:040000000200853243
:01000B0032C2
:030013000210CC0C
:03001B000211AD22
:0100230032AA
:03002B000269FF68
:01003300329A
:03003B000211A00F
:03004300026D3219
:03004B0002408EE2
:01005300327A
:01005B003272
:01006300326A
:03006B00020E9DE5
:03007300021281F5
:03007B00020F88E9
:0300E30002007E9A
:05007E001202D080FE1B
:0A00E600C008858108C082C0837C39
:0300F000007D0090
:0E00F300C3EC9490ED6480948140030201E21E
:0E010100C374C89C74808DF063F08095F0503C
:0C010F000B7490C39CFE74019DFF8004E3
:04011B008C068D07BA
:0C011F00A8080886028A82C002C004C042
:0E012B0005C006C007121496D007D006D005F6
:0B013900D004D00290E000E4F0A3F03E
:0E014400C00290E000E0FBA3E0FAC3EB9EEAED
:0E01520064808FF063F08095F0D0025022C0E0
:0E0160000290E000E0FBA3E0FA90E002EBF07A
:0E016E00A3EAF090E000E02401F0A3E03400EA
:05017C00F0D00280C379
:0E0181008A82C004C005C006C0071214ADD0AB
:0E018F0007D006D005D00490E000E4F0A3F005
:08019D0074C8C39EFAE49FFB45
:0E01A50090E000E0FEA3E0FFC3EE9AEF64805E
:0E01B3008BF063F08095F0501E90E000E0FEAF
:0E01C100A3E0FF90E002EEF0A3EFF090E0006C
:0B01CF00E02401F0A3E03400F080CB3E
:0501DA000CBC00010D4A
:0301DF000200F328
:0601E200850881D008220F
:0A01E800C00885810805810581C269
:0A01F200AF759F037AF87BFF7C00D5
:0301FC00BC08003C
:0A01FF00501DEC2406FDE434E0FE80
:0E0209008A828B83E493FFA3AA82AB838D824B
:070217008E83EFF00C80DE86
:0C021E00759F01D2AFAA080A7B007C404B
:0E022A007402C0E0E4C0E0E4C0E08A828B838E
:0E0238008CF01282B215811581158190EC9C1C
:09024600E0FAA3E0FB4A701FFA84
:03024F00BA0200F0
:0C0252005038AB080BEA2BF87401C39A7B
:0A025E002406F582E434E0F583E0A5
:05026800FBF60A80E234
:0A026D0090D81975F0801250FFAA16
:0C027700080AEA04F890EC9CE0FAA3E00E
:09028300FCF6A808087B00A602A5
:0C028C00AA080A7B007C408A828B838CCD
:0C029800F0125575A8080886028A037A47
:0C02A40000AC080CEC04F886047D00ECB3
:0E02B0002AFAED3BFBE4C0E0C0E0C0E0C00273
:0D02BE00C00390FFFF123D84E58124FB8505
:0502CB000881D00822AB
:0702D00012AA48121FE112FF
:0902D700258D121464900001123F
:0D02E00000E690C20075F001E41270769007
:0602ED0025EE1211A11222
:0602F3002D1312280390F8
:0902F900D83E75F0801250FF9010
:09030200D85775F0801250FF126B
:09030B00150F900000129064121D
:0D03140051A61201E8E4C0E0C0E0C0E09096
:0E032100ECB675F00012284515811581158186
:0E032F0012939FE4C0E0C0E0C0E090ECE075E7
:0E033D00F000122845158115811581121E7ED3
:0E034B009000041200E61246FAAAE27B00AD12
:0E035900E37C00EC2AFAED3BFB90E2E5EAF0D3
:0E036700A3EBF090E2FD7401F090D88375F0E6
:0703750080125591121513CF
:0E037C00121517122F55AA82AB83C3E49A7490
:0E038A00808BF063F08095F040E890D9AFE4EE
:0E03980093FAA3E493FB8A828B83120083AA5C
:0E03A60082AB8390E004EAF0A3EBF0EA4B6038
:0E03B400C7124A8A124E4DAA82AB83ACF07477
:0D03C20080C0E0E4C0E08A828B838CF012E2
:0E03CF003A55AA82AB831581158190E004EAAD
:0E03DD00F0A3EBF0C3E49A74808BF063F08021
:0E03EB0095F0508D8A828B83124E4190DB3B41
:0E03F900E493FAA3E493FBC002C0038A828B54
:0B04070083120083D003D00202037CAC
:0ED8190053657474696E67206D616E75616C85
:0ED8270020616464726573732066726F6D20F9
:09D835006E6F64655F69640A000E
:0ED83E0057656C636F6D6520746F20436F6ECD
:0BD84C0074696B6920322E342E0A0034
:0ED8570052756E6E696E67206F6E3A204E3706
:0ED865003430204E616E6F53656E736F72200B
:0ED87300284343323433312D46313238292ECA
:02D881000A009B
:02DB880000009B
:0A041200C008858108C082C083C0C5
:0C041C00F0058105810581E50824FDF84C
:0C042800E5082404F9E6F7E4C0E0C0E0B9
:0C04340074C8C0E07442C0E0E50824F980
:0E044000F886820886830886F008E6129AEF96
:0E044E00AE82AF83ADF0FAE58124FCF581E5C6
:0C045C000824F9F8A60608A60708A60563
:0C04680008A60290ECB2E0FA6015749453
:0B047400C0E074D8C0E07480C0E0124B
:08047F0090141581158115810F
:0C048700A808088602088603088604E521
:06049300082404F88605B0
:0E0499008D061DEE607290ECB2E0FE6062C057
:0E04A7000574012AFEE43BFF8C058E828F83D4
:0C04B5008DF0129CF7FEE5082405F8A667
:0E04C100060876008A828B838CF0129CF7FF6F
:0C04CF007D00C002C003C004C005E508A9
:0E04DB002405F8E6C0E008E6C0E0C007C00552
:0A04E90074ADC0E074D8C0E0748068
:0E04F300C0E0129014E58124F9F581D005D007
:0705010004D003D002D00575
:0905080074022AFAE43BFB80882E
:0C05110090ECB2E0FA606FE50824F9F805
:0E051D0086820886830886F008E61249AEAA98
:0C052B0082AB83E50824F9F8868208867C
:0E053700830886F008E6C002C0031249ABAC90
:0C05450082AD8390E3FCE0FEE508240595
:0E055100F8A60608760090E3FBE0FE7F00C0EF
:0C055F0004C005E5082405F8E6C0E0082B
:0C056B00E6C0E0C006C00774B7C0E07432
:0C057700D8C0E07480C0E0129014E58150
:0405830024F5F581E5
:06058700850881D0082266
:0A058D00C008E581F5082418F58187
:0C059700124E4DAA82AB83ACF0A80808FD
:0C05A300A60208A60308A604A80808E5A4
:0C05AF0008240EF9740B26F7E408360946
:0C05BB00F70809E6F7A808088682088601
:0D05C700830886F0129CF7FDBD330280030F
:0305D400020A8692
:0C05D700A80808740126FDE40836FE08A0
:0E05E30086078D828E838FF0129CF7600302D4
:0205F1000A8678
:0C05F3008D828E838FF074011256EEE5AD
:0C05FF000824FBF8E6C0E008E6C0E008B5
:0E060B00E6C0E090E07475F00012243E158108
:0C06190015811581E50824F8F8E6C0E022
:0C06250008E6C0E008E6C0E0E50824FBA1
:0E063100F886820886830886F01273ABAD82CD
:0E063F00AE83AFF0158115811581ED4E4F6031
:0E064D0011740C2DFDE43EFE8D828E838FF025
:04065B00E41256EE61
:0C065F00A80808740926FDE40836FE080F
:0E066B0086078D828E838FF0129CF7FDA312FE
:0E0679009CF7FE8D828E83127DBFAD82AE8314
:0C068700AFF0FAC005C006C007C002E5D5
:0A0693000824F7F8E6C0E0E50824AB
:0E069D000EF886820886830886F0120412E5A5
:0C06AB008124FBF581A80808740426FADD
:0E06B700E40836FB0886048A828B838CF012DE
:0D06C5009CF7FAA3129CF7FB8A828B83122C
:0C06D2007DBFAA82AB83ACF0FDE50824DC
:0E06DE0004F8A60208A60308A60408A605E470
:0D06EC00C0E0C0E074C8C0E07442C0E0E5AA
:0C06F900082404F886820886830886F036
:0E07050008E6129AEFAA82AB83ACF0FDE58104
:0C07130024FCF581E5082404F8A6020887
:0C071F00A60308A60408A605A80808E523
:0C072B00082411F9740226F7E4083609CE
:0C073700F70809E6F7E5082411F88682AF
:0E0743000886830886F0129CF7FBA3129CF731
:0D075100FC7464C0E0E4C0E08B828C831275
:0C075E001073AB82AC8315811581E50897
:0C076A002408F8A60308A604A8080874D8
:0E0776000626FDE40836FB0886048D828B8380
:0E0784008CF0129CF7FDA3129CF7FB8D828B6C
:0C07920083127DBFAA82AB83ACF0FDE5B2
:0C079E0008240AF8A60208A60308A60416
:0E07AA0008A605E4C0E0C0E074C8C0E07442D8
:0C07B800C0E0E508240AF8868208868369
:0E07C4000886F008E6129AEFAA82AB83ACF02A
:0C07D200FDE58124FCF581E508240AF80F
:0C07DE00A60208A60308A60408A605A8A9
:0C07EA000808740826FEE40836FF0886A4
:0D07F600028E828F838AF0129CF77003023E
:02080300095793
:0A08050090ECB2E0FA70030208AEB6
:0C080F00E5082404F88682088683088629
:0C081B00F008E61249AEAA82AB83E508A3
:0E0827002404F886820886830886F008E6C05E
:0C08350002C0031249ABAC82AD83E508A1
:0C0841002411F886820886830886F0E502
:0A084D00082415F9129CF7F7A31216
:0C0857009CF709F7C004C005E508240860
:0E086300F8E6C0E008E6C0E090006412689578
:0C087100AE82AF8315811581E5082415C7
:0E087D00F8E6C39EFE08E69FFFC006C007E532
:0C088B00082408F8E6C0E008E6C0E074AD
:0A089700D5C0E074D8C0E07480C042
:0D08A100E0129014E58124F5F581020A862D
:0C08AE00E5082404F8868208868308868A
:0C08BA00F008E61249AEAA82AB83E50804
:0E08C6002404F886820886830886F008E6C0BF
:0C08D40002C0031249ABAC82AD83E50802
:0C08E0002411F886820886830886F0E563
:0A08EC00082415F9129CF7F7A31277
:0C08F6009CF709F7C004C005E5082408C1
:0E090200F8E6C0E008E6C0E0900064126895D8
:0C091000AE82AF8315811581E508241527
:0E091C00F8E6C39EFE08E69FFFC006C007E592
:0C092A00082408F8E6C0E008E6C0E0E49D
:0C093600C0E0C0E0E4C0E0C0E07402C01B
:0C094200E074D9C0E07480C0E012901492
:09094E00E58124F1F581020A861D
:0A09570090ECB2E0FA70030209F020
:0C096100E5082404F886820886830886D6
:0C096D00F008E61249AEAA82AB83E50850
:0E0979002404F886820886830886F008E6C00B
:0C09870002C0031249ABAC82AD83E5084E
:0E099300240AF886820886830886F008E6C0EB
:0C09A10004C0051249AEC8E5082415C8C2
:0C09AD00A68208A683E508240AF88682CA
:0E09B9000886830886F008E61249ABAE82AFCE
:0C09C70083E5082415F8E6C0E008E6C04F
:0A09D300E0C006C007741BC0E0740A
:0C09DD00D9C0E07480C0E0129014E581E5
:0709E90024F5F581020A86E6
:0C09F000E5082404F88682088683088647
:0C09FC00F008E61249AEAA82AB83E508C1
:0E0A08002404F886820886830886F008E6C07B
:0C0A160002C0031249ABAC82AD83E508BE
:0E0A2200240AF886820886830886F008E6C05B
:0C0A300004C0051249AEC8E5082415C832
:0C0A3C00A68208A683E508240AF886823A
:0E0A48000886830886F008E61249ABAE82AF3E
:0C0A560083E4C0E0C0E0E4C0E0C0E0E5E4
:0C0A6200082415F8E6C0E008E6C0E0C07B
:0A0A6E0006C0077402C0E074D9C08E
:0E0A7800E07480C0E0129014E58124F1F58155
:060A8600850881D0082262
:0A0A8C00C008858108AA82AB83AC84
:0C0A9600F0E50824FDF8B6831E90E00E89
:0D0AA20075F000C002C003C0041266A590EC
:0E0AAF00E07475F00012243BD004D003D00296
:0E0ABD007D018A828B838CF0129CF7FEA312BF
:0B0ACB009CF7FFBE0005BF0002800C7E
:090AD600BEB106BF0003020B874C
:030ADF00020BAD5A
:0E0AE200C002C003C004126985E5828583F05E
:0E0AF00090E089F0A3E5F0F01271C590000AC5
:080AFE00127704748CC0E0744F
:0C0B0600D8C0E07480C0E07492C0E0E44D
:0D0B1200C0E090E089E0C0E0A3E0C0E0900A
:0E0B1F00E00E75F0001265F9E58124F9F5810C
:0A0B2D007490C0E074D8C0E074803A
:0E0B3700C0E07480C0E0E4C0E090E07475F0AF
:0E0B4500001223B9E58124FBF581D004D00312
:020B5300D002CE
:0E0B5500C002C003C004E4C0E07403C0E0901E
:0E0B6300E08B75F000121BDB15811581D004AC
:0E0B7100D003D0027D008A828B838CF074B199
:080B7F001256EEA3E41256EE3B
:0E0B8700ED601E90E08B75F000C002C003C050
:0E0B950004121C9FE5828583F0D004D003D0AB
:050BA3000245F070ADF9
:050BA8007582018012BE
:0D0BAD008A828B838CF0E41256EEA3E412D2
:050BBA0056EE758203F8
:030BBF00D0082239
:0A0BC200C008858108AA82AB83AC4D
:0E0BCC00F07D01129CF7FEA3129CF7FFBE0005
:060BDA0005BF0002800BC4
:080BE000BEC305BF0002801531
:030BE800020C7587
:0E0BEB007D008A828B838CF074C31256EEA3B9
:040BF900E41256EEBE
:0C0BFD00ED601090E2ABE0FDE50824FD87
:070C0900F8E6B505028005C5
:050C10007582018072F5
:0C0C1500E50824FAF88605088606088623
:0A0C210007EDB44F32EEB4D92EEF08
:0E0C2B00B4802AC002C003C00490ECB1E0FA0D
:060C390090ECB1B40100D3
:0E0C3F00E433F090ECB2E0FA90ECB2B40100B5
:0B0C4D00E433F0D004D003D002809309
:0A0C5800EDB4588FEEB4D98BEFB461
:0D0C6200808790ECB0E0FD90ECB0B4010094
:060C6F00E433F0020BEB80
:0D0C75008A828B838CF0E41256EEA3E41209
:050C820056EE7582032F
:030C8700D0082270
:03D883009EEC0018
:06D88600A7EC0000000009
:04D88C000000000098
:02D890008D0504
:02D892002879F3
:0ED894004D554C5449484F505F52454345494D
:0BD8A2005645443A206F726967200071
:0AD8AD0025642E2564202D3E200086
:0ED8B70025642E256420524F5554455F494E7E
:0ED8C500444558203D202D25642E2530327517
:02D8D3000A0049
:0ED8D500444154415F5041434B45543A206C4E
:0ED8E300696768742025642E25303264206247
:0ED8F1006174746572792025642E25303275BD
:03D8FF00560A00C6
:0ED9020025642E253032752025642E25303206
:0BD91000642025642E253032750A00CB
:0ED91B00444154415F5041434B45543A2074FF
:0ED92900656D70657261747572652025642EDF
:0ED93700253032754320626174746572792068
:0AD9450025642E25303275560A00C5
:09DB8A000000008C0A00000000FC
:09DB9300000000C20B00000000BC
:01DB9C000088
:01DB9D000087
:01DB9E000185
:02DB9F00000084
:01DBA1000182
:040C8A0053F4FE22FF
:040C8E0053F4FE22FB
:040C920043F4012204
:030C9600D29022D7
:030C9900C29022E4
:070C9C00A290E433F582226F
:040CA30043FE0122E9
:040CA70053FEFE22D8
:070CAB00438D01439A102262
:0A0CB200538DFEE58D7003539AEF99
:010CBC002215
:0C0CBD007401558DFA7B008A828B832223
:040CC900438C022234
:040CCD00538CFD2225
:0C0CD1007401558AFA7B008A828B832212
:060CDD00C2EB758A002243
:040CE30053F3EF22B6
:040CE70053F3EF22B2
:040CEB0043F310229D
:030CEF00D284228A
:030CF200C2842297
:070CF500A284E433F5822222
:040CFC0043FD102282
:040D000053FDEF228E
:0E0D0400438C1090E095E04410F043B820229C
:0E0D120090E095E054EFF090E095E0FA54F098
:030D20006001224D
:040D2300538CEF22DC
:0E0D270090E095E0FA5302107B008A828B83E5
:010D3500229B
:040D3600438C0122C7
:040D3A00538CFE22B6
:0C0D3E0074105589FA7B008A828B832296
:060D4A00C2C575890022FC
:0D0D5000120C9CE582701990E097F5F012EE
:0B0D5D0052BDAA82AB83EA4BB4010038
:080D6800E433FA7003FA800283
:020D70007A0106
:090D7200EA3395E08A82F5832240
:0C0D7B00AA82AB83BA8105BB000280068F
:060D8700BA8206BB000366
:030D8D00020CBD98
:040D900090000022AD
:0A0D9400C008858108AA82AB83BA6B
:070D9E008005BB0002800884
:080DA500BA814ABB0047800E31
:070DAD00120CC9120C8A129E
:070DB4000CA7900001803A3A
:0B0DBB00E50824FCF8E608466025125D
:0E0DC6000CBDE5828583F045F0701CC0E0C0D6
:0E0DD400E090E09775F00012520B158115812A
:080DE200120CDD120CAB8003C2
:030DEA00120CB236
:050DED009000018003ED
:030DF2009000006E
:030DF500D0082201
:0D0DF800120CF5E582701990E09BF5F012E9
:0B0E050052BDAA82AB83EA4BB401008F
:080E1000E433FA7003FA8002DA
:020E18007A015D
:090E1A00EA3395E08A82F5832297
:0C0E2300AA82AB83BA8105BB00028006E6
:060E2F00BA8206BB0003BD
:030E3500020D2784
:040E38009000002204
:0A0E3C00C008858108AA82AB83BAC2
:070E46008005BB00028008DB
:080E4D00BA8147BB0044800B91
:0B0E5500120CE3120D00900001803A27
:0B0E6000E50824FCF8E60846602512B7
:0E0E6B000D27E5828583F045F0701CC0E0C0C5
:0E0E7900E090E09B75F00012520B1581158180
:080E8700120D4A120D04800354
:030E8F00120D122F
:050E9200900001800347
:030E9700900000C8
:030E9A00D008225B
:0C0E9D00C020C0E0C0F0C082C083C002D2
:0E0EA900C003C004C005C006C007C000C001E1
:0E0EB700C0D075D000C2AFAAE27B00ADE3E46C
:0E0EC5002AFAED3BFB90E2E9EAF0A3EBF09095
:0E0ED300E2FF7401F0120D3EE5828583F045CA
:0E0EE100F0602F90E09B75F0001252BDE5828C
:0E0EEF008583F045F0601D7420C0E0E4C0E093
:0E0EFD0090E09B75F00012520B15811581904C
:080F0B00D95875F08012332E55
:0E0F1300758900C2C590E2FFE0604B90E2BD20
:0E0F2100E0FAA3E0FBA3E0FCA3E0FDAEE27F5C
:0E0F2F0000A9E3E42EFEE93FFF90E2E9E0F8BE
:0E0F3D00A3E0F9EEC398FEEF99FFE4F8F9EE99
:0E0F4B002AFAEF3BFBE83CFCE93DFD90E2BDDD
:0E0F5900EAF0A3EBF0A3ECF0A3EDF090E2FFC2
:020F6700E4F0B4
:0E0F6900D2AFD0D0D001D000D007D006D00536
:0E0F7700D004D003D002D083D082D0F0D0E0DE
:030F8500D0203247
:0C0F8800C020C0E0C0F0C082C083C002E6
:0E0F9400C003C004C005C006C007C000C001F5
:0E0FA200C0D075D000C2AFAAE27B00ADE3E480
:0E0FB0002AFAED3BFB90E2E9EAF0A3EBF090A9
:0E0FBE00E2FF7401F0120CD1E5828583F0454C
:0E0FCC00F0602F90E09775F0001252BDE582A4
:0E0FDA008583F045F0601D7420C0E0E4C0E0A7
:0E0FE80090E09775F00012520B158115819064
:080FF600D94F75F08012332E73
:0E0FFE00758A00C2EB90E2FFE0604B90E2BD0E
:0E100C00E0FAA3E0FBA3E0FCA3E0FDAEE27F70
:0E101A0000A9E3E42EFEE93FFF90E2E9E0F8D2
:0E102800A3E0F9EEC398FEEF99FFE4F8F9EEAD
:0E1036002AFAEF3BFBE83CFCE93DFD90E2BDF1
:0E104400EAF0A3EBF0A3ECF0A3EDF090E2FFD6
:02105200E4F0C8
:0E105400D2AFD0D0D001D000D007D006D0054A
:0E106200D004D003D002D083D082D0F0D0E0F2
:03107000D020325B
:03D94F0061D9801B
:02D95200500D76
:02D95400940D30
:02D956007B0D47
:03D958006AD98009
:02D95B00F80DC5
:02D95D003C0E7E
:02D95F00230E95
:09D96100427574746F6E203100F0
:09D96A00427574746F6E203200E6
:0A107300C008858108AA82AB837CC7
:05107D00007D007E1063
:0C108200EB339200EBCA25E0CA33FBED13
:0C108E00CC25E0CC33FD3000034304010E
:0C109A00E50824FCF8C3EC96ED08964035
:0C10A60010E50824FCF8ECC396FCED08F3
:0510B20096FD43020160
:0910B700DEC98A828B83D0082275
:0C10C000AA83E58290E09FF0A3EAF022F2
:0C10CC00C020C0E0C0F0C082C083C002A1
:0E10D800C003C004C005C006C007C000C001B0
:0E10E600C0D075D000AAE27B00ADE3E42AFA88
:0E10F400ED3BFB90E2E9EAF0A3EBF090E2FFA7
:0E1102007401F0C28B90E09FE0FAA3E0FB7C4A
:0C11100080BA0008BB0005BC000280167D
:09111C007432C0E07411C0E090CF
:0D112500E09FE0C0E0A3E0C0E085C18222B1
:0E11320090E2FFE0604B90E2BDE0FAA3E0FB2C
:0E114000A3E0FCA3E0FDAEE27F00A9E3E42EF5
:0E114E00FEE93FFF90E2E9E0F8A3E0F9EEC30E
:0E115C0098FEEF99FFE4F8F9EE2AFAEF3BFB5C
:0E116A00E83CFCE93DFD90E2BDEAF0A3EBF0AD
:0B117800A3ECF0A3EDF090E2FFE4F028
:0E118300D0D0D001D000D007D006D005D004C7
:0D119100D003D002D083D082D0F0D0E0D0C7
:02119E002032FD
:0111A000321C
:0C11A100AA83E58290E0A1F0A3EAF0220E
:0C11AD00C020C0E0C0F0C082C083C002BF
:0E11B900C003C004C005C006C007C000C001CE
:0E11C700C0D075D000AAE27B00ADE3E42AFAA6
:0E11D500ED3BFB90E2E9EAF0A3EBF090E2FFC5
:0E11E3007401F0C28F90E0A1E0FAA3E0FB7C63
:0C11F10080BA0008BB0005BC000280169C
:0911FD007413C0E07412C0E0900C
:0D120600E0A1E0C0E0A3E0C0E085F9822295
:0E12130090E2FFE0604B90E2BDE0FAA3E0FB4A
:0E122100A3E0FCA3E0FDAEE27F00A9E3E42E13
:0E122F00FEE93FFF90E2E9E0F8A3E0F9EEC32C
:0E123D0098FEEF99FFE4F8F9EE2AFAEF3BFB7A
:0E124B00E83CFCE93DFD90E2BDEAF0A3EBF0CB
:0B125900A3ECF0A3EDF090E2FFE4F046
:0E126400D0D0D001D000D007D006D005D004E5
:0D127200D003D002D083D082D0F0D0E0D0E5
:02127F0020321B
:01128100323A
:0A128200C008E581F5082408F58195
:09128C00E582FA20E003021325BB
:0E12950090E0A3E0FB90E0A4E0FCEB6C30E006
:0E12A3001DABE27C00AEE3E4FD2BFBEE3CFC59
:0E12B10090E2EBEBF0A3ECF090E3007401F0A0
:0212BF00806449
:0C12C10090E300E0605EC00290E2C1A873
:0C12CD000808E0F6A3E008F6A3E008F62D
:0E12D900A3E008F6ACE27D00AEE38E03E42C49
:0E12E700FFEB3DFB90E2EBE0FCA3E0FDEFC36C
:0C12F5009CFFEB9DFB7C007D00A808081E
:0E130100EF26FFEB0836FBEC0836FCED083655
:0E130F00FD90E2C1EFF0A3EBF0A3ECF0A3ED34
:08131D00F090E300E4F0D002BF
:07132500EA20E1030213BD01
:0E132C0090E0A3E0FB90E0A4E0FCEB6C30E16D
:0E133A001DABE27C00AEE3E4FD2BFBEE3CFCC1
:0E13480090E2EDEBF0A3ECF090E3017401F005
:021356008065B0
:0C13580090E301E0605FC00290E2C5E598
:0C136400082405F8E0F6A3E008F6A3E07A
:0E13700008F6A3E008F6ABE27C00AFE3E42B46
:0E137E00FBEF3CFC90E2EDE0FAA3E0FFEBC3D6
:0C138C009AFAEC9FFFE4FBFCE508240546
:0E139800F8EA26FAEF0836FFEB0836FBEC0801
:0E13A60036FC90E2C5EAF0A3EFF0A3EBF0A353
:0913B400ECF090E301E4F0D0023A
:0713BD00EA20E20302144ED6
:0E13C40090E0A3E0FA90E0A4E0FBEA6B30E2D8
:0E13D2001DAAE27B00ADE3E4FC2AFAED3BFB32
:0E13E00090E2EFEAF0A3EBF090E3027401F06C
:0213EE00805E1F
:0A13F00090E302E0605890E2C9A803
:0C13FA000808E0F6A3E008F6A3E008F6FF
:0E140600A3E008F6AAE27B00AFE3E42AFAEFC7
:0E1414003BFB90E2EFE0FEA3E0FFEAC39EFE8A
:0C142200EB9FFF7A007B00A80808EE2674
:0E142E00FEEF0836FFEA0836FAEB0836FB90B0
:0E143C00E2C9EEF0A3EFF0A3EAF0A3EBF0900C
:04144A00E302E4F0E5
:0E144E0090E0A4E0FA90E0A3E062028A82122D
:06145C006852850881D0F2
:0214620008225E
:0914640012683690E0A4E4F09057
:04146D00E0A3F022E6
:0E14710090E0A4E0FA90E0A3E06202EAF4FA50
:0E147F00F582C0021214C6900190126933D09B
:06148D00028A820214C66F
:03149300026837B5
:0D149600AA8290E0A3E0FBF4FCEA5204906F
:0A14A300E0A3EA4BF08C82021282F3
:0D14AD00AA8290E0A3E0FBEA5BFCEAF49069
:0914BA00E0A35BF08C82021282B7
:0314C3000214C64A
:0D14C600AA8290E0A4E06AF08A82021282FD
:0E14D300AA82AB83EA4B600675820102149672
:0614E1007582010214AD4A
:0E14E700AA82AB83EA4B60067582020214965D
:0614F5007582020214AD35
:0E14FB00AA82AB83EA4B600675820402149647
:061509007582040214AD1E
:04150F0085C9C9229F
:0415130043C908229E
:0E151700740F55C944A0F5C9740F55C944504E
:03152500F5C922E3
:0315280002151792
:05152B0075C903C2AF09
:041530000002153070
:0A153400C008E581F5082407F581E1
:0E153E0090E0A5E0FAA3E0FBA3E0FCEA4B4C32
:0C154C00700A90E0A8E4F0A3F00216CBB7
:0C155800126985AA82AB83E5082403F821
:0E156400A60208A60390E0A5E0FCA3E0FDA30C
:0C157200E0FEE5082405F8A60408A60524
:0C157E0008A606E5082405F88682088609
:0E158A00830886F0129CF7FFA3129CF7FAE587
:0C159800082405F8740226FBE40836FC69
:0E15A4000886058B828C838DF0129CF7FBA3CA
:0C15B200129CF7FCEB2FFFEC3AFAE50866
:0C15BE002403F8EFC396FFEA0896FAA891
:0A15CA000808A60708A602E5082499
:0E15D40005F8740426FCE40836FD0886068C33
:0E15E200828D838EF0129CF7FCA3129CF7FD05
:0C15F000A3129CF7FEE5082405F8A604F1
:0615FC0008A60508A60682
:0C160200E5082405F8B6000B08B6000748
:07160E0008B600030216B745
:0C161500E5082405F88682088683088614
:0B162100F0129CF7FCA3129CF7FDE503
:0C162C00082405F8740226FEE40836FFCE
:0E1638000886028E828F838AF0129CF7FAA336
:0C164600129CF7FBEA2CFEEB3DFFE508D0
:0C1652002403F8EEC396FEEF0896FFA8F4
:0C165E000808C3EE96EF0896501BEA2C1B
:0C166A00FCEB3DFDE5082403F8ECC39602
:0C167600FCED0896FDA80808A60408A6D4
:011682000562
:0C168300E5082405F8740426FAE4083693
:0E168F00FB0886048A828B838CF0129CF7FA8B
:0B169D00A3129CF7FBA3129CF7FCE5D6
:0C16A800082405F8A60208A60308A60402
:0316B40002160219
:0916B700E5082403F8A9080990D4
:0B16C000E0A8E726F009E70836A3F0D9
:0616CB00850881D0082211
:0A16D100C008E581F508240CF5813E
:0E16DB00AA82AB83ACF07D01129CF7FEA31235
:0B16E9009CF7FFBE0005BF0002800B55
:0816F400BE5A05BF0002801E72
:0316FC00021ABE11
:0916FF0090E0A5E4F0A3F0A3F0D3
:0E1708007D008A828B838CF0745A1256EEA3F9
:04171600E41256EE95
:09171A00ED7006758201021AD07F
:0A172300E50824FDF8B687028003F4
:03172D000218C8D7
:0C173000E50824FAF886050886060886FD
:0C173C0007E5082407F8A60508A6060823
:02174800A607F2
:0E174A0090E0A5E0FDA3E0FEA3E0FFED4E4F12
:0E175800606EC002C003C00474072DFAE43EA8
:0E176600FB8F048A828B838CF0129CF7FAA30F
:0A177400129CF7FBA3129CF7FCE5A2
:0C177E00082407F8E6B5020C08E6B503E5
:08178A000708E6B5040280081F
:08179200D004D003D002802E28
:0E179A00D004D003D00274042DFDE43EFE8D79
:0E17A800828E838FF0129CF7FDA3129CF7FE39
:0E17B600A3129CF7FF90E0A5EDF0A3EEF0A3C8
:0417C400EFF0808240
:0E17C80090E0A5E0FDA3E0FEA3E0FFED4E4F94
:0517D60070030217087A
:0B17DB00A80808A60508A60608A60737
:0C17E600A80808740426FDE40836FE087C
:0C17F20086078D828E838FF0E508240AA4
:0D17FE00F8129CF7F6A3129CF708F6A31250
:0C180B009CF708F6E508240AF8E60846F9
:0718170008467003021708E8
:0C181E00C002C003C004E508240AF874EE
:0E182A000726FAE40836FB0886048A828B83C0
:0D1838008CF0129CF7FAA3129CF7FBA31290
:0C1845009CF7FCE5082407F8E6B5020C4F
:0C18510008E6B5030708E6B504028008AD
:08185D00D004D003D002804149
:0C186500E508240AF8740426FAE40836AA
:0E187100FB0886048A828B838CF0129CF7FAA7
:0E187F00A3129CF7FBA3129CF7FC8D828E83B4
:0E188D008FF0EA1256EEA3EB1256EEA3EC1209
:0B189B0056EED004D003D0020217E686
:0E18A6008D828E838FF0129CF7FDA3129CF7AB
:0C18B400FEA3129CF7FFA80808A6050878
:0818C000A60608A6070217E6C0
:0A18C800E50824FDF8B68202800353
:0318D200021708F2
:0C18D500E5082404F8E4F608F6087600A4
:0C18E10090E0A5E0FDA3E0FEA3E0FFA85E
:0A18ED000808A60508A60608A607CD
:0C18F700A80808B6000B08B6000708B6E9
:051903000003021708BB
:0C190800A8080886820886830886F0C0C4
:0E19140002C003C0041252BDE5828583F0D0EC
:0C19220004D003D00245F07003021A7CD0
:0C192E00C002C003C004A808087407260B
:0E193A00FDE40836FE0886078D828E838FF04E
:0B194800129CF7FAA3129CF7FBA312FD
:0C1953009CF7FCC004C005C006C007A83B
:0C195F000808E6C0E008E6C0E008E6C0AA
:0E196B00E07488C0E08A828B838CF0122F9289
:0E197900AA82AB83E58124FCF581D007D0065D
:0E198700D005D004EA4BD004D003D002600398
:03199500021A6DC6
:0D1998008D828E838FF0E41256EEA3E412D0
:0819A50056EEA3E41256EEE534
:0C19AD00082404F8E6084608466054C010
:0C19B90002C003C004E5082404F8740414
:0C19C50026FDE40836FE088607A8080886
:0E19D100740426FAE40836FB0886048A828B2A
:0E19DF00838CF0129CF7FAA3129CF7FBA31264
:0E19ED009CF7FC8D828E838FF0EA1256EEA3DB
:0E19FB00EB1256EEA3EC1256EED004D003D041
:031A090002802D2B
:0C1A0C00A80808740426FDE40836FE0853
:0E1A180086078D828E838FF0129CF7FDA3123D
:091A26009CF7FEA3129CF7FF904F
:0A1A2F00E0A5EDF0A3EEF0A3EFF048
:0C1A3900A80808740426FDE40836FE0826
:0E1A450086078D828E838FF0E41256EEA3E4A6
:0E1A53001256EEA3E41256EEC002C003C00409
:0C1A6100121534D004D003D0020218D5B6
:0E1A6D00C002C003C004121AD6D004D003D0A9
:011A7B000268
:0A1A7C00A80808E5082404F9E6F7BD
:0C1A86000809E6F70809E6F7A80808744C
:0E1A92000426FDE40836FE0886078D828E834A
:0D1AA0008FF0129CF7FDA3129CF7FEA3121D
:0C1AAD009CF7FFA80808A60508A606087C
:051AB900A6070218F76A
:0D1ABE008A828B838CF0E41256EEA3E412B2
:051ACB0056EE758203D8
:061AD000850881D0082208
:091AD60090ECB675F00002305DE1
:0A1ADF00C008858108C082C083C0E2
:0C1AE900F0121AD6A80808740726FDE4C5
:0D1AF5000836FE0886078D828E838FF01262
:0A1B02009CF7FAA3129CF7FBA31254
:0E1B0C009CF7FCEA4B4C606290E0A5E0FAA367
:051B1A00E0FBA3E0FC6C
:0B1B1F00BA0008BB0005BC0002804CAF
:0C1B2A00A80808E6B5020C08E6B50307A1
:071B360008E6B5040280027D
:021B3D00800620
:061B3F00121534021BD553
:0E1B4500C005C006C00774042AFDE43BFE8CF8
:0D1B5300078D828E838FF0129CF7FDA31288
:0E1B60009CF7FEA3129CF7FF8D028E038F04EC
:081B6E00D007D006D00580A9C4
:0E1B760090ECD7E0FAA3E0FBA3E0FC8D828E9A
:0E1B8400838FF0EA1256EEA3EB1256EEA3EC9E
:0C1B92001256EEA80808740426FAE408B5
:0E1B9E0036FB08860490E0A5E0FDA3E0FEA360
:0E1BAC00E0FF8A828B838CF0ED1256EEA3EEE2
:091BBA001256EEA3EF1256EEA83C
:0C1BC300080890E0A5E6F008A3E6F00892
:061BCF00A3E6F01215343C
:061BD500850881D0082202
:0A1BDB00C008858108AA82AB83AC24
:0C1BE500F0C002C003C004E50824FCF8B6
:0E1BF100E6C0E008E6C0E08A828B838CF0122A
:0E1BFF00520B15811581D004D003D0028A82CA
:0A1C0D008B838CF0121ADFD008223E
:0D1C1700AA82AB83ACF0C002C003C004126F
:0E1C24005259D004D003D0028A828B838CF0F8
:031C3200021ADFB4
:0D1C3500AA82AB83ACF0C002C003C0041251
:0E1C42005295D004D003D0028A828B838CF09E
:031C5000021ADF96
:0A1C5300C008858108C082C083C06C
:0C1C5D00F0A8080886820886830886F03C
:0A1C6900129CF7FDA3129CF7FEE5A4
:0C1C73000824FCF88607088602EF2DFD0F
:0C1C7F00EA3EFEA808088682088683085A
:0C1C8B0086F0ED1256EEA3EE1256EE129B
:061C97001534850881D020
:021C9D0008221B
:0E1C9F00AA82AB83ACF074072AFAE43BFB8AFE
:0E1CAD00828B838CF0129CF7FAA3129CF7FB3B
:0E1CBB00A3129CF7FCE4BA0007BB0004BC00B7
:021CC900010414
:091CCB00FA3395E08A82F58322C8
:0E1CD400AA82AB83ACF0129CF7FDA3129CF722
:0E1CE200FE74022AFAE43BFB8A828B838CF0AC
:0E1CF000129CF7FAA3129CF7FBEA2DFDEB3EC7
:051CFE008D82F5832238
:0D1D0300129CF7FAA3129CF78A82F5832246
:0E1D100090E0A5E0FAA3E0FBA3E0FCE4BA003B
:081D1E0007BB0004BC00010436
:041D2600FAB401000A
:0A1D2A00E433FA7B008A828B8322E7
:0D1D3400121D10E5828583F045F0600A90D5
:091D4100E0A8E0FAA3E0FB800435
:041D4A007A007B00A0
:051D4E008A828B832254
:0A1D5300C008858108C082C083C06B
:0D1D5D00F090E0A5E0FDA3E0FEA3E0FFA8EC
:0C1D6A000808E6B5050C08E6B5060708F9
:061D7600E6B50702800241
:021D7C00802EB7
:0E1D7E0074042DFAE43EFB8F048A828B838C62
:0C1D8C00F0129CF7FAA3129CF7FBA312C4
:0E1D98009CF7FC90E0A5EAF0A3EBF0A3ECF0C2
:061DA600121534021E3488
:0B1DAC00BD0008BE0005BF000280382B
:0E1DB70074042DFAE43EFB8F048A828B838C29
:0C1DC500F0129CF7FAA3129CF7FBA3128B
:0C1DD1009CF7FCA80808E6B5020C08E628
:0A1DDD00B5030708E6B5040280080C
:081DE7008A058B068C0780BD04
:0D1DEF00ED4E4F604074042DFDE43EFEA853
:0C1DFC000808740426FAE40836FB088688
:0D1E0800048A828B838CF0129CF7FAA312DF
:0E1E15009CF7FBA3129CF7FC8D828E838FF04E
:0C1E2300EA1256EEA3EB1256EEA3EC12EE
:051E2F0056EE1215340F
:0C1E3400A80808740426FAE40836FB082D
:0E1E400086048A828B838CF0E41256EEA3E4B3
:091E4E001256EEA3E41256EEA8B0
:0C1E57000808740726FAE40836FB088629
:0E1E6300048A828B838CF0E41256EEA3E41204
:081E710056EEA3E41256EE85C3
:051E79000881D00822E1
:09DBA200000000D1160000000093
:091E7E001232E2AA82AB83ACF03F
:0E1E8700EA4B4C605E74052AFDE43BFE8C07BE
:0E1E95008D828E838FF0129CF7FDA3129CF7B6
:0E1EA300FEC002C003C004C005C0067401C02A
:0A1EB100E0E4C0E074C5C0E0741E58
:0A1EBB00C0E0C005C00690008122BF
:0E1EC50015811581D006D005D004D003D002BF
:0E1ED3008A828B838CF01232F4AD82AE83AF24
:091EE100F08D028E038F04809D38
:0E1EEA00AAE27B00ADE37C00EC2AFAED3BFBA4
:0E1EF80090E2F9EAF0A3EBF090E3077401F03A
:011F060022B8
:0A1F0700C008E581F5082404F58107
:091F11001232E2AA82AB83ACF0AB
:0E1F1A00EA4B4C605C74052AFDE43BFE8C072C
:0E1F28008D828E838FF0129CF7FDA3129CF722
:0E1F3600FEC002C003C004C005C006E4C0E047
:0A1F4400C0E07456C0E0741FC0E056
:081F4E00C005C00690008122CD
:0E1F560015811581D006D005D004D003D0022D
:0E1F64008A828B838CF01232F4AD82AE83AF92
:091F7200F08D028E038F04809FA4
:0A1F7B0090E307E0605A90E2DDA851
:0C1F85000808E0F6A3E008F6A3E008F668
:0E1F9100A3E008F6AAE27B00AFE37E00EE2A92
:0E1F9F00FAEF3BFB90E2F9E0FEA3E0FFEAC39D
:0C1FAD009EFEEB9FFF7A007B00A8080856
:0E1FB900EE26FEEF0836FFEA0836FAEB083691
:0E1FC700FB90E2DDEEF0A3EFF0A3EAF0A3EB57
:061FD500F090E307E4F0C8
:061FDB00850881D00822F8
:03DBAB004BDB80D1
:03DBAE004FD980CC
:06DBB10058D980000000BD
:031FE10002406952
:0A1FE400C00885810805810581AA67
:0C1FEE0082AB83ACF0A80808E4F608F60B
:0E1FFA0090E0AEE0FFA3E0FDA3E0FEEF4D4E51
:0A2008007008A808087601087600A9
:0E20120074022AFDE43BFE8C078D828E838FC4
:0C202000F0E50824F8F8E61256EEA308DC
:0E202C00E61256EE74042AFDE43BFE8C078D8E
:0C203A00828E838FF0E50824F5F8E61292
:0C20460056EEA308E61256EEA308E612C0
:0C20520056EE8A828B838CF0E50824FC9B
:0C205E00F8E61256EEA308E61256EE90CB
:0C206A00E0AEEAF0A3EBF0A3ECF0A80855
:0C20760008B6011108B6000DE50824FCB6
:09208200F8868208868312408270
:09208B00900000850881D00822B4
:0A209400C00885810805810581055B
:0E209E008190E0AEE0FAA3E0FBA3E0FCEA4B89
:0620AC004C7003022157F5
:0C20B200A80808A60208A60308A60490CF
:0C20BE00E0AEE4F0A3F0A3F0A808087462
:0E20CA000226FDE40836FE0886078D828E830E
:0C20D8008FF0129CF7FDA3129CF7FEA8ED
:0C20E4000808740426FFE40836FA088699
:0D20F000038F828A838BF0129CF7FFA312EE
:0E20FD009CF7FAA3129CF7FBC005C006C007B3
:0A210B00C002C0037427C0E0742175
:0C211500C0E0C005C006A80808868208CB
:0621210086830886F0220F
:0E212700158115811581D006D00590E0AEE03F
:0E213500FAA3E0FBA3E0FCEA4B4C60168A82A2
:0E2143008B838CF0129CF7FAA3129CF7FB8A98
:06215100828B8312408224
:06215700850881D008227A
:0A215D00C008858108C082C083C05D
:0B216700F0E581240FF581A80808E5D1
:0C217200082404F9E6F70809E6F708095C
:0E217E00E6F775821A1250E9AD82AE83AFF01B
:0C218C00E5082407FA7B007C40C005C079
:0E21980006C0078A828B838CF0125494158146
:0E21A6001581158175821B1250E9AA82AB8348
:0C21B400ACF0E5082409FD7E007F40C06F
:0E21C00002C003C0048D828E838FF0125494EF
:0E21CE0015811581158175821B1250E9AA82B8
:0A21DC00AB83ACF074FBC0E074E3C9
:0E21E600C0E0E4C0E08A828B838CF01254FDCE
:0E21F400AA82AB83158115811581EA4B700319
:032202000222961F
:0C220500A80808741226FAE40836FB084A
:0E22110086048A828B838CF0129CF7FAA3124B
:0E221F009CF7FBA3129CF7FC8A828B838CF049
:0D222D00129CF7FAA3129CF7FB4A70030203
:02223A0023B3CC
:0E223C00758213C002C00312509AAC82D00308
:0C224A00D002E5082407FD7E007F40C0A4
:0C22560002C003C004E50824FBF8E6C049
:0E226200E008E6C0E008E6C0E0C005C006C027
:0A227000077489C0E07422C0E0C0CA
:0C227A0002C003A80808868208868308BA
:0322860086F022BD
:0D228900E58124F9F581D003D0020223B3D2
:0C2296007A007B007C00A8080874122667
:0E22A200FDE40836FE0886078D828E838FF0DD
:0B22B000129CF7FDA3129CF7FEA31286
:0E22BB009CF7FF74022DFDE43EFE8D828E83A3
:0C22C9008FF0E508240BF8129CF7F6A338
:0C22D500129CF708F6E508240BF8E60858
:0622E10046700302239287
:0C22E70075821312509AAF828F02E50836
:0C22F3002409FDE508240DF8A605087676
:0C22FF0000087640E5082407FD7E007F03
:0C230B0040C002E50824FBF8E6C0E00832
:0C231700E6C0E008E6C0E0E508240DF890
:0E232300E6C0E008E6C0E008E6C0E0C005C085
:0A23310006C0077454C0E07423C016
:0C233B00E0E508240BF8E6C0E008E6C06E
:0C234700E0A8080886820886830886F05B
:012353002267
:0E235400AD82AE83AFF0E58124F6F5818D02F7
:0E2362008E038F04758213C002C003C00412E4
:0E237000509AE5828583F02401FDE435F0FEED
:0E237E00C005C00675821312507715811581B7
:06238C00D004D003D002D2
:0C239200EA4B4C601CC002C003C004E514
:0C239E00082404F886820886830886F074
:0923AA0012402A158115811581EC
:0623B300850881D008221C
:0A23B900C008858108AA82AB83AC3E
:0C23C300F0C002C003C004747FC0E074CE
:0A23CF00D9C0E07480C0E0E50824E6
:0E23D900FCF8E6C0E008E6C0E08A828B838C48
:0C23E700F0123FA5E58124FBF581747322
:0B23F300C0E074D9C0E07480C0E0E5D9
:0C23FE000824FCF886820886831230DF79
:0E240A00158115811581D004D003D002741203
:0C2418002AFAE43BFB8A828B838CF0E5FF
:0C2424000824F9F8E61256EEA308E612B0
:0924300056EEA308E61256EED0A8
:02243900082277
:03243B0002402735
:0A243E00C008858108C082C083C079
:0C244800F0A80808741226FDE40836FE17
:0E2454000886078D828E838FF0129CF7FAA304
:0E246200129CF7FBA3129CF7FC74022AFAE40A
:0E2470003BFB8A828B838CF0129CF7FAA3123E
:0C247E009CF7FB4A7006900000022587C6
:0E248A00C005C006C007124B33D007D006D0E5
:0D249800058D828E838FF0129CF7FDA3123C
:0E24A5009CF7FEA3129CF7FF74022DFDE43E8F
:0D24B300FE8D828E838FF0129CF7FDA31228
:0E24C0009CF7FEE4C0E0E4C0E0C0E0C0E0E550
:0C24CE000824FBF8E6C0E008E6C0E008C7
:0A24DA00E6C0E074FBC0E074E3C04C
:0A24E400E0E4C0E07400C0E07425DD
:0C24EE00C0E0C005C006A80808868208EF
:0624FA0086830886F02233
:0E250000AD82AE83AAF0E58124F6F5818D044C
:0C250E008E03EC4B4A7005900000806DBD
:0C251A00C002C003C004E50824FBF8E682
:0E252600C0E008E6C0E008E6C0E075821B12C7
:0C25340050B015811581158174FBC0E0CA
:0B25400074E3C0E0E4C0E075821A12F2
:0E254B0050B01581158115817401C0E0E4C007
:0E255900E075821312507715811581D004D0E1
:0C25670003D002C004C003C002A8080892
:0E25730086820886830886F012402A1581159C
:06258100811581900001AC
:06258700850881D0082246
:0CD973001A101B101305191018100000EA
:04D97F005D21000026
:0D258D0043FE0A43FD0443F3E075820E0295
:02259A00259C7E
:0C259C00AA827B01C0E0C0A8C2AF7C0096
:0325A800BC08006C
:0E25AB005025EB5AFDEC6010ED600D8CF00534
:0425B900F0ED8002BF
:0225BD00C31346
:0425BF00D5F0FBFD5B
:0E25C300ED24FF9282D293C293EB2BFB0C808F
:0125D100D633
:0E25D200D291C291D0E053E080E5E042A8D063
:0725E000E090E0B1EAF022F7
:0725E70090E0B1E0F5822253
:0600B400E478FFF6D8FD20
:0500DE0090E139E4F09F
:0925EE00AA82BA0D04900000223B
:0E25F70090E139E0FB701DC00290E0B275F07B
:0E26050000126DB8AB82AC831581EB4C7025D2
:0826130090E1397401F0801D13
:0E261B00BA0A1AC00290E0B275F000126DB853
:0E262900AA82AB831581EA4B600590E139E48B
:01263700F0B2
:0D26380090ECCB75F00012305D9000012297
:0A264500C00885810805810581AAFF
:0D264F0082AB83ACF07D01129CF7FEA3125C
:0B265C009CF7FFBE0005BF00028014C9
:08266700BE6805BF000280659A
:09266F00BE7A06BF00030227CF6A
:032678000227EB4B
:0E267B00C002C003C004122838E582D004D08B
:0E26890003D00290E138F090E1BAE4F0A3F043
:0D26970090E0B275F000C002C003C0041254
:0D26A4006EC5AE82AF83D004D003D002A873
:0A26B1000808A60608A607A80808F6
:0E26BB00B6FF1F08B6FF1B7D008A828B838C42
:0B26C900F074681256EEA3E41256EE07
:0926D400ED70C07582010227FDC2
:0C26DD00A80808B60A0608B600028040F3
:0E26E90090E1BAE0FEA3E0FFC3EE947FEF6441
:0E26F700809480509BC002C003C00490E1BAE2
:0C27050074012EF0E43FA3F0EE243AFE35
:0A271100EF34E1FFA8080886028EED
:0E271B00828F83EAF0D004D003D0020226970A
:0E272900C002C003C00490E1BAE0FEA3E0FFCE
:0D27370090E1BA74012EF0E43FA3F0EE240F
:0A2744003AF582EF34E1F583E4F08A
:0B274E00C002C003C004743AC0E07475
:0C275900E1C0E0E4C0E090E138E0C0E046
:0E27650090000075F000122F92E58124FCF523
:0E27730081D004D003D00290ECD7E0FEA3E0AA
:0E278100FFA3E0FAC004E4C0E0C0E0C0E074D2
:0E278F0085C0E08E828F838AF0122F92AA827C
:0E279D00AB83E58124FCF581D004BA0005BBB6
:0427AB0000028008A0
:0827AF00D004D003D002802AFF
:0E27B700D004D003D0027D008A828B838CF088
:0A27C500747A1256EEA3E41256EEE9
:0C27CF00ED600AE50824FDF8B6850280E4
:0127DB0005F8
:0527DC00758201801C64
:0A27E10090E1BAE4F0A3F00226979D
:0D27EB008A828B838CF0E41256EEA3E41278
:0527F80056EE7582039E
:0627FD00850881D00822CE
:0A2803007480C0E074B8C0E074E017
:0E280D00C0E0E4C0E090E0B275F000126D395A
:0E281B00E58124FCF581E4C0E0C0E0C0E0905F
:0E282900ECCB75F00012284515811581158144
:01283700227E
:09DBB700000000452600000000FA
:0D28380090E1BCE0FA90E1BC04F08A82223D
:0A284500C008858108C082C083C06E
:0E284F00F090ECD4E0FDA3E0FEA3E0FF8D02CC
:04285D008E038F0453
:0C286100A80808E6B5020C08E6B503075D
:07286D0008E6B5040280211A
:0B287400BA0008BB0005BC0002801683
:0E287F008A828B838CF0129CF7FAA3129CF7CE
:08288D00FBA3129CF7FC80CCB8
:0C289500A80808E6B5020C08E6B5030729
:0728A10008E6B50402800205
:0228A8008003AB
:0328AA00022934CC
:0C28AD00A8080886820886830886F0EDE3
:0B28B9001256EEA3EE1256EEA3EF1233
:0628C40056EEA808089082
:0D28CA00ECD4E6F008A3E6F008A3E6F0A8C1
:0C28D7000808740726FAE40836FB08869F
:0D28E300048A828B838CF074011256EEA8DB
:0C28F0000808740526FAE40836FB088688
:0E28FC00048A828B838CF0E41256EEA3E41261
:0C290A0056EEE50824FBF8E6C0E008E605
:0C291600C0E008E6C0E07481C0E0A80842
:0E2922000886820886830886F0123006E5815A
:0429300024FCF5810D
:06293400850881D0082295
:0A293A00C008858108C082C083C078
:0E294400F0E5812409F58190ECD7E0FDA3E0D9
:0C295200FEA3E0FFE5082407F8A6050836
:0C295E00A60608A607A8080886820886BE
:0E296A00830886F01230A1E5828583F045F0E7
:052978007003022AC0FB
:0C297D00A80808740726FDE40836FE08D0
:0D29890086078D828E838FF0E41256EE904B
:0C299600ECD4E0FDA3E0FEA3E0FFE508A8
:0B29A2002404F8A60508A60608A607F6
:0C29AD00E5082404F8B6000A08B600068D
:0629B90008B6000280696F
:0A29BF00A80808E5082404F986F0D2
:0E29C900E7B5F0120886F009E7B5F00A0886B7
:0829D700F009E7B5F0028028C9
:0C29DF00A80808E6C0E008E6C0E008E632
:0C29EB00C0E07487C0E0E5082404F88612
:0E29F700820886830886F0122BB5E58124FC49
:022A0500F58159
:0C2A0700E5082404F8868208868308860F
:0E2A1300F0129CF71818F6A3129CF708F6A311
:072A2100129CF708F6808506
:0C2A2800A80808740326FDE40836FE0828
:0E2A340086078D828E838FF0129CF7FAA31214
:0E2A42009CF7FB8A058B067F80BD0008BE0056
:062A500005BF0002806AD0
:0A2A5600A80808E50824FBF986F043
:0E2A6000E7B5F0120886F009E7B5F00A08861F
:082A6E00F009E7B5F002804A0F
:0C2A7600A8080890ECD7E6F008A3E6F0F2
:0C2A820008A3E6F0A80808740526FDE48F
:0E2A8E000836FE088607C002C003E4C0E0C0A0
:0C2A9C00E0C0E07483C0E074B6C0E074D9
:0C2AA8002AC0E0C002C0038D828E838F24
:022AB400F0220E
:0A2AB600E58124FCF581D003D00275
:0C2AC00090ECD4E0FAA3E0FBA3E0FCA83B
:0C2ACC000808E6B5020C08E6B503070890
:062AD800E6B504028002D5
:022ADE00802254
:0E2AE0008A828B838CF0129CF7FDA3129CF768
:0E2AEE00FEA3129CF7FF90ECD4EDF0A3EEF0E7
:062AFC00A3EFF0022B9D88
:0C2B02008A058B068C07E5082404F8A661
:072B0E000508A60608A60752
:0C2B1500E5082404F8B6000A08B6000623
:062B210008B600028076F8
:0C2B2700E5082404F886820886830886EE
:0C2B3300F0129CF7FDA3129CF7FEA31209
:0C2B3F009CF7FFA80808E6B5050C08E6A6
:0A2B4B00B5060708E6B50702800290
:022B55008036C8
:0C2B5700A8080886820886830886F01211
:0A2B63009CF7FAA3129CF7FBA312E3
:0C2B6D009CF7FCE5082404F8868208862A
:0E2B7900830886F0EA1256EEA3EB1256EEA386
:062B8700EC1256EE801076
:0C2B8D00E5082404F8A60508A60608A622
:042B990007022B15EF
:0C2B9D00E5082407F890ECD7E6F008A348
:0A2BA900E6F008A3E6F0850881D0ED
:022BB3000822F6
:0A2BB500C008858108C082C083C0FB
:0C2BBF00F0A80808740726FDE40836FEA4
:0E2BCB000886078D828E838FF0129CF7FA2009
:052BD900E003022CE9FD
:0C2BDE00C005C006C007A8080874032644
:0E2BEA00FAE40836FB0886048A828B838CF09E
:0E2BF800129CF7FAA3129CF7FB8A048B057E51
:0E2C060080BC000FBD000CBE0009D007D00638
:052C1400D005022CE9CF
:0C2C1900D007D006D005A8080890ECD722
:0E2C2500E6F008A3E6F008A3E6F08D828E83A9
:0E2C33008FF074021256EEC005C006C007A84E
:0C2C41000808740526FCE40836FD08862F
:0C2C4D0006C003C005C006C007E508244F
:0E2C5900FAF8E6C0E008E6C0E008E6C0E0E5F4
:0A2C67000824FDF8E6C0E07481C007
:0C2C7100E0742CC0E0C002C0038C828D17
:042C7D00838EF02230
:0E2C8100AA82E58124FCF581D007D006D0059B
:0E2C8F00D003EA3395E0FBBA020BBB0008D07D
:072C9D0007D006D0058016E8
:0E2CA400D007D006D005BA0305BB0002800899
:082CB200E50824FDF8B68324B7
:0C2CBA00A80808E6C0E008E6C0E008E654
:0C2CC600C0E0A808088682088683088603
:0C2CD200F012293A158115811581800B44
:0B2CDE008D828E838FF074011256EE81
:062CE900850881D00822DD
:0E2CEF00AA82AB83ACF090ECD7E0C0E0A3E08B
:0D2CFD00C0E0A3E0C0E08A828B838CF0125F
:092D0A00293A1581158115812279
:0C2D130090E1BC748AF090E1BEE4F09006
:0C2D1F00E1BDF090ECD4F0A3F0A3F09024
:092D2B00ECD7E4F0A3F0A3F022C0
:0A2D3400C0088581080581058105AE
:0E2D3E008190E29FE4F090ECD4E0FAA3E0FB79
:0C2D4C00A3E0FCA80808A60208A60308E3
:022D5800A604CF
:0C2D5A00A80808B6000B08B6000708B671
:052D66000003022DE650
:0C2D6B00A80808740826FDE40836FE08DD
:0E2D770086078D828E838FF0129CF76042A833
:0C2D85000808740726FAE40836FB0886EC
:0E2D9100048A828B838CF074011256EE8D82C0
:0E2D9F008E838FF0E41256EEE4C0E0C0E0C078
:0C2DAD00E07482C0E0A808088682088656
:0D2DB900830886F0122BB5E58124FCF5811E
:0C2DC600A8080886820886830886F012A0
:0D2DD2009CF71818F6A3129CF708F6A31240
:072DDF009CF708F6022D5AD3
:062DE600850881D00822DF
:082DEC0090E1BDE0FA70012244
:0C2DF40090E1BEE0FB75F007A4FC24BFDA
:0C2E0000F582E434E1F583E090E2A0F0FC
:0A2E0C00EC24BFFCE434E1FD8C82ED
:0E2E16008D83A3E0FEA3E0FFA3E0F890E2A10D
:0E2E2400EEF0A3EFF0A3E8F08C828D83A3A361
:0E2E3200A3A3E0FCA3E0FDA3E0FE90E2A4EC6D
:0E2E4000F0A3EDF0A3EEF07C000BBB00010C44
:0E2E4E00C0027420C0E0E4C0E08B828C8312CE
:0E2E5C00A9C7AB8215811581D00290E1BEEBB3
:0E2E6A00F0EA1490E1BDF090E2A4E0FAA3E0DB
:0E2E7800FBA3E0FCBA0008BB0005BC00028012
:012E86000348
:032E8700022F19FE
:0E2E8A0090ECD4E0FDA3E0FEA3E0FF90E2A7F1
:082E9800EDF0A3EEF0A3EFF052
:0E2EA00090E2A7E0FDA3E0FEA3E0FFBD000767
:072EAE00BE0004BF00012279
:0A2EB50090E29FE0FD6003122D344F
:0E2EBF0090E2A7E0FDA3E0FEA3E0FF90E2A1F9
:0E2ECD00E0C0E0A3E0C0E0A3E0C0E090E2A01F
:0E2EDB00E0C0E08D828E838FF0122BB5E58172
:0E2EE90024FCF58190E2A7E0FDA3E0FEA3E04B
:0D2EF700FF8D828E838FF0129CF7FDA312D9
:092F04009CF7FEA3129CF7FF905C
:0C2F0D00E2A7EDF0A3EEF0A3EFF0808748
:0E2F190090E2A0E0FDBD811474072AFEE43BA7
:0E2F2700FF8C008E828F8388F074011256EEAC
:0E2F350090E2A1E0C0E0A3E0C0E0A3E0C0E0B5
:0E2F4300C0058A828B838CF0122BB5E58124A9
:042F5100FCF58122E8
:0A2F550090E29FE0FA6003122D34B1
:0B2F5F00122DEC90E1BDE0FA7B009029
:0E2F6A00E29FE0FC7D00EC2AFAED3B8A82F546
:022F78008322B2
:0E2F7A0090E1BDE0FA7B0090E29FE0FC7D005C
:0A2F8800EC2AFAED3B8A82F5832261
:0A2F9200C008858108AA82AB83AC59
:0E2F9C00F090E1BDE0FDBD20059000018059E0
:0E2FAA0090E1BEE0FEED2E541FFE90E2AAF074
:0C2FB800EE75F007A4FE24BFF582E4349F
:0A2FC400E1F583E50824FDF8E6F0CE
:0A2FCE00EE24BFFEE434E1FF8E8222
:0C2FD8008F83A3E50824FAF8E6F0A308B4
:0E2FE400E6F0A308E6F08E828F83A3A3A3A3DA
:0E2FF200EAF0A3EBF0A3ECF090E1BDED04F0EB
:033000009000003D
:03300300D00822D0
:0A300600C008858108AA82AB83ACE4
:0E301000F090ECD7E0FDA3E0FEA3E0FFC005CA
:0C301E00C006C007E50824FAF8E6C0E090
:0C302A0008E6C0E008E6C0E0E50824FD70
:0E303600F8E6C0E08A828B838CF0122BB5E5A1
:0E3044008124FCF581D007D006D00590ECD792
:0B305200EDF0A3EEF0A3EFF0D0082299
:0E305D00AA82AB83ACF0BA0007BB0004BC0033
:02306B00012240
:0E306D0074072AFDE43BFE8C078D828E838F54
:0A307B00F0129CF7FDBD0102800376
:03308500BD021871
:0E30880074082AFAE43BFB8A828B838CF07476
:0A309600011256EE90E29F7401F063
:0130A000220D
:0E30A100AA82AB83ACF074072AFAE43BFB8AE8
:0E30AF00828B838CF0129CF7FAE4BA000104C5
:0430BD00FAB4010060
:0A30C100E433FA7B008A828B83223D
:03DBC00000000062
:03DBC3000000005F
:0E30CB0090ECDDE0FAA3E0FBA3E0FC8A828B30
:0630D900838CF00241426D
:0630DF00C0088581081203
:0E30E50031BDAA82AB83ACF0EA4B4C6055744F
:0E30F300052AFDE43BFE8C078D828E838FF054
:0C310100E50824FBF8E61256EEA308E6F1
:0E310D001256EEA308E61256EE74082AFAE4F3
:0C311B003BFBE50824FBF8868208868355
:0E3127000886F0C002C003C004127906AD8213
:0E313500AE83D004D003D0028A828B838CF04C
:04314300ED1256EE45
:03314700D008228B
:0A314A00C008858108AA82AB83AC9F
:0E315400F074032AFDE43BFE8C078D828E830F
:0C3162008FF0E50824FCF8E61256EEA3FE
:0E316E0008E61256EE90ECDDE0FDA3E0FEA3B5
:0E317C00E0FFC002C003C0048D828E838FF07E
:0C318A001241EF158115811581D008223B
:0E319600AA82AB83ACF090ECDDE0FDA3E0FE7E
:0E31A400A3E0FFC002C003C0048D828E838FA3
:0B31B200F012449D158115811581224B
:0A31BD00C008858108C082C083901D
:0E31C700ECDDE0FCA3E0FDA3E0FE8C828D8336
:0B31D5008EF0124150AC82AD83AEF0D2
:0B31E000BC0008BD0005BE00028047D7
:0E31EB0074032CFFE43DFA8E038F828A838BDF
:0B31F900F0129CF7FFA3129CF7FAA84D
:0C3204000808E6B5070708E6B5020280DE
:0132100002BB
:02321100800833
:083213008C828D838EF0801D7A
:0E321B008C828D838EF01246C6AA82AB83AFE2
:09322900F08A048B058F0680AECB
:0632320090000075F000A1
:06323800850881D0082288
:03DBC6000000005C
:03DBC900DAEC0093
:0A323E00C008858108C082C083C06B
:0C324800F005810581E4FDFEE50824048A
:09325400F8E4F608F67B007C00AA
:0C325D00C005C00690E2ACE0FD7E00E57C
:0C326900082404F8C3E69D08E664808E8B
:0E327500F063F08095F0D006D0055057C005EC
:0A328300C006EB24BFF582EC34EC2A
:0C328D00F583E0FDA3E0FEA3E0FAA80832
:0E32990008E6B5050C08E6B5060708E6B5021E
:0332A7000280069C
:0632AA00D006D005800AE9
:0A32B000D006D0058D828E838022A7
:0C32BA0074032BFBE43CFCE5082404F842
:0632C60006B60002080636
:0C32CC00E5082404F886050886068085C5
:0432D8008D828E83D2
:0632DC00850881D00822E4
:0E32E20090ECBFE0FAA3E0FBA3E0FC8A828B35
:0432F000838CF022B9
:0E32F40012323EE5828583F02401FAE435F0C3
:0E330200FBC002C003900003126895AA82ABC4
:0C3310008315811581EA24BFF582EB349F
:0C331C00ECF583E0FAA3E0FBA3E0FC8AE0
:06332800828B838CF02271
:0C332E0012323EAA82AB83EA24AAFAEB1A
:0C333A0034E0FB8A828B83E0FC430480BB
:0D3346008A828B83ECF090ECE075F00002C1
:02335300305DEB
:0A335500C008858108C082C083C053
:0C335F00F0E5812408F581A808088682AA
:0C336B000886830886F0129ABFC8E508A7
:0E3377002404C8A68208A6837F007D007E0085
:023385007A00CC
:0E33870090E2ACE0FB7C00C3EF9BED64808C19
:0B339500F063F08095F0400302344329
:0B33A000C007C005EE24BFF582EA3430
:0C33AB00ECF583E0FBA3E0FCA3E0FD8B4D
:0E33B700828C838DF0129CF7FBA3129CF7FC16
:0E33C500A3129CF7FDC002C005C006C007E5BC
:0C33D300082404F8E6C0E008E6C0E0C0F2
:0C33DF0003C004C005A808088682088608
:0E33EB00830886F0127CEEAB82AC83E5812471
:0E33F900FBF581D007D006D005D002D005D05C
:0C34070007EB4C7028EE24BFF582EA347D
:0A341300ECF583E5082406F8E0F666
:0C341D00A3E008F6A3E008F6E50824068A
:0B342900F886820886830886F0801574
:0C34340074032EFEE43AFA0FBF00010DF5
:03344000023387CD
:0634430090000075F0008E
:06344900850881D0082275
:0A344F00C00885810805810581058C
:0E34590081AA82AB83ACF07D01129CF7FEA32A
:0C346700129CF7FFBE0005BF000280159C
:09347300BE7806BF0003023577A4
:09347C00BE7F06BF000302364CBE
:033485000236AF5D
:0E348800C002C003C004122838E582D004D070
:0E34960003D00290E2ABF090E2ADE4F0A3F0C0
:0E34A400C002C003C00490E2ADE0FEA3E0FF52
:0E34B200C004C006C007C006C0079000031289
:0E34C0006895AA82AB8315811581D007D006CE
:0A34CE00D004EA24BFF582EB34ECD1
:0C34D800F583A80808E0F6A3E008F6A3BE
:0C34E400E008F6A80808B6001008B600C2
:0D34F0000C08B60008D004D003D0028063A1
:0A34FD00EE24AAF582EF34E0F58317
:0C350700E4F0A80808740526FAE4083671
:0E351300FB0886048A828B838CF0129CF7FAE8
:0E352100A3129CF7FBC002C003C004E4C0E08C
:0A352F00C0E07441C0E07435C0E054
:08353900C002C00390008022D3
:0E35410015811581D004D003D00290E2ADE0D8
:0E354F002401F0A3E03400F0D004D003D00239
:03355D000234A491
:0535600090E2ACEEF06A
:0E3565007D008A828B838CF074781256EEA360
:04357300E41256EE1A
:09357700ED70067582010236C1F7
:0E35800090E2AFE4F0A3F090E2ADE4F0A3F02F
:0E358E00C002C003C00490E2ADE0FEA3E0FF67
:0E359C0090E2ACE0FA7B00C3EE9AEF64808B05
:0E35AA00F063F08095F0D004D003D00240030F
:0335B80002369E3A
:0C35BB00C002C003C004EE24AAF582EF99
:0C35C70034E0F583E0D004D003D00220F3
:0535D300E70302368F42
:0E35D800C002C003C004C002C003C004C0068D
:0E35E600C007900003126895AE82AF83158176
:0C35F4001581D004D003D002EE24BFF5F6
:0C36000082EF34ECF583E0FEA3E0FFA3B2
:0E360C00E0FAC004C006C007C00290E2ABE0C6
:0E361A00C0E090000075F000122F92AA82AB63
:0E36280083E58124FCF581D004EA4BD004D068
:0E36360003D0027029FD8A828B838CF0747F92
:083644001256EEA3E41256EE4B
:0C364C00ED601090E2ABE0FDE50824FD0D
:07365800F8E6B5050280054C
:05365F00758201805D91
:0C36640090E2ADE0FDA3E0FEED24AAFD25
:0C367000EE34E0FE8D828E83E0FF5307F5
:0E367C007F8D828E83EFF090E2AFE02401F0AC
:05368A00A3E03400F094
:0D368F0090E2ADE02401F0A3E03400F00271
:02369C00358E69
:0E369E0090E2AFE0FDA3E0FE4D600302358038
:0336AC000235657F
:0D36AF008A828B838CF0E41256EEA3E412A5
:0536BC0056EE758203CB
:0636C100850881D00822FB
:09DBCC000000004F3400000000CD
:0E36C7007582E61253677582E612536753E967
:0236D500DF22F2
:0736D700AA82BA0102802063
:0536DE00BA0202800A9F
:0536E300BA030280059E
:0536E800BA0535802247
:0E36ED0090DF02E04410F090DF03E0FA54EFAB
:0336FB00F080312B
:0E36FE0090DF02E04418F090DF03E0FA441081
:03370C00F080202A
:0E370F0090DF02E04408F090DF03E0FA54EF90
:03371D00F0800F2A
:0E37200090DF02E054E7F090DF03E0FA54EF90
:01372E00F0AA
:04372F00758201227C
:0A373300C008858108C082C083C071
:01373D00F09B
:0E373E0090DF62E0FD20E4F890E2B2E0FD30A2
:07374C00E60590FFFF80502D
:07375300ED20E703123CBA70
:0C375A007582E7125367E50824FCF8862E
:083766000574022DF5D97D0068
:0C376E008D067F00E50824FCF8C3EE96F1
:0C377A00EF0896501BA80808ED26FEE49E
:0D3786000836FF0886028E828F838AF012BB
:073793009CF7F5D90D80D46D
:09379A0075D90075D900900000FA
:0637A300850881D0082218
:0837A90090DF62E090000022B5
:0E37B10090DF62E0FA5302047B008A828B8371
:0137BF0022E7
:0B37C00090ECE9E0FA600490000022A9
:0837CB0090DF17E0FA54F7F05B
:0D37D30090DF17E0FA530210BA010280F3F4
:0837E000E5E930E7FB53BEFBF5
:0E37E800E5BE30E6FB90E2B2E4F090DF5474F0
:0E37F60001F090DF027402F090DF0374E2F045
:0E38040090DF047430F090DF05E4F090DF0CEC
:0D3812007432F090DF0D74F5F07582121223
:0C381F003C097582E71253677582E612BF
:0E382B005367E4C0E0C0E0C0E0E4C0E0C0E0ED
:0E38390090FFFF123D84E58124FBF58175822E
:0E384700001236D775912053E9DF539BFC9099
:09385500ECE97401F0900001227D
:0A385E00C008E581F5082408F58193
:0E386800E4C0E0758200123DF6AA82AB831523
:0E38760081BA0132BB002F90E5FEE0FAA3E01C
:0E388400FBA3E0FCA3E0FD0ABA00090BBB00A9
:06389200050CBC00010D55
:0E38980090E5FEEAF0A3EBF0A3ECF0A3EDF058
:0638A600900002023A4FFF
:0E38AC0090DF62E0FA30E12F90E5FEE0FAA333
:0E38BA00E0FBA3E0FCA3E0FD0ABA00090BBB93
:0738C80000050CBC00010D1E
:0E38CF0090E5FEEAF0A3EBF0A3ECF0A3EDF021
:0638DD00900002023A4FC8
:0A38E30090E304E0605890E2D1A8E1
:0C38ED000808E0F6A3E008F6A3E008F6E7
:0E38F900A3E008F6AAE27B00AFE3E42AFAEFB0
:0E3907003BFB90E2F3E0FEA3E0FFEAC39EFE6E
:0C391500EB9FFF7A007B00A80808EE265C
:0E392100FEEF0836FFEA0836FAEB0836FB9098
:0E392F00E2D1EEF0A3EFF0A3EAF0A3EBF090EC
:04393D00E304E4F0CB
:0D394100AAE27B00ADE3E42AFAED3BFB9027
:0E394E00E2F1EAF0A3EBF090E3037401F075F0
:07395C0082E31253677A00B9
:0E39630090DF62E0FB20E4148A030ABB03003D
:0E397100500C90000AC002126933D00280E4AC
:0E397F0090DF62E0FA20E40C7582E7125367D5
:06398D007A017B00800CB2
:0C39930090DF62E0FC20E4F87A007B008A
:0E399F0090E303E06063C002C00390E2CDE558
:0C39AD00082405F8E0F6A3E008F6A3E00B
:0E39B90008F6A3E008F6ACE27D00ABE3E42CD8
:0E39C700FCEB3DFD90E2F1E0FAA3E0FBECC367
:0C39D5009AFAED9BFBE4FCFDE5082405DC
:0E39E100F8EA26FAEB0836FBEC0836FCED0897
:0E39EF0036FD90E2CDEAF0A3EBF0A3ECF0A3DE
:0B39FD00EDF090E303E4F0D003D002F3
:0D3A0800ACE27D00AFE3E42CFCEF3DFD904F
:0E3A1500E2F3ECF0A3EDF090E3047401F09006
:0E3A2300E606E0FCA3E0FDA3E0FEA3E0FF0C3E
:0C3A3100BC00090DBD00050EBE00010F19
:0E3A3D0090E606ECF0A3EDF0A3EEF0A3EFF0A0
:043A4B008A828B835D
:063A4F00850881D0082269
:0A3A5500C008858108C082C083C04C
:083A5F00F0ADD9747FB505003C
:0E3A6700503290E5F6E0FAA3E0FBA3E0FCA3EA
:0E3A7500E0FD0ABA00090BBB00050CBC000105
:013A83000D35
:0E3A840090E5F6EAF0A3EBF0A3ECF0A3EDF072
:093A92001236C7900000023C034B
:053A9B007404B50500F4
:0E3AA000403290E5F2E0FAA3E0FBA3E0FCA3C5
:0E3AAE00E0FD0ABA00090BBB00050CBC0001CC
:013ABC000DFC
:0E3ABD0090E5F2EAF0A3EBF0A3ECF0A3EDF03D
:093ACB001236C7900000023C0312
:0D3AD4008D067F00EE24FEFEEF34FFFFE5BF
:0C3AE1000824FCF8C3E69E08E69F503263
:0E3AED0090E5EEE0FAA3E0FBA3E0FCA3E0FD11
:0D3AFB000ABA00090BBB00050CBC00010D50
:0E3B080090E5EEEAF0A3EBF0A3ECF0A3EDF0F5
:093B16001236C7900000023C03C6
:043B1F001D1D7E00EA
:043B2300EEB50500F6
:0C3B2700501FC005A80808EE26FFE408A7
:0E3B330036FD0886028F828D838AF0E5D91256
:073B410056EE0ED00580DBFB
:0E3B4800E5D924D3FAE5D9FB30E75DEA3395E1
:0E3B5600E0FCC003C005C002C004758204126A
:0E3B6400507715811581D005D00353037F7A69
:0E3B720000C005C003C0027582031250771513
:0E3B8000811581D00590E60AE0FAA3E0FBA3D0
:0E3B8E00E0FCA3E0FE0ABA00090BBB00050C28
:043B9C00BC00010E5A
:0E3BA00090E60AEAF0A3EBF0A3ECF0A3EEF03F
:023BAE00803164
:0E3BB00090E5FAE0FAA3E0FBA3E0FCA3E0FE40
:0D3BBE000ABA00090BBB00050CBC00010E8B
:0E3BCB0090E5FAEAF0A3EBF0A3ECF0A3EEF025
:083BD9001236C79000008022A3
:0E3BE10090DF62E0FA53020CBA040E90DF533C
:0B3BEF00E0FA7007C0051236C7D005D1
:093BFA0053E9DF7A008D828A8311
:063C0300850881D00822B3
:053C0900AA82BA0B00C5
:073C0E004007741AB5020023
:023C1500500459
:043C17007582FF2291
:0E3C1B007582FFC0021253677582E51253676F
:0E3C2900D0028A037C00EB24F5FBEC34FFFC98
:0E3C3700C002C003C004900005126895AD8263
:0E3C4500AE83158115818D038E0474652BFBF3
:0D3C530074013CFC43044090DF10ECF09045
:0E3C6000DF11EBF07582E2125367D0028A8208
:013C6E002233
:073C6F00AA827464B5020093
:063C760050047582FF22DC
:0E3C7C00EA75F01FA4FBACF0C0027464C0E057
:0E3C8A00E4C0E08B828C83121073AD82AE8397
:0E3C980015811581D0028D038E0474602BFB04
:0D3CA60074A13C90DF0AF090DF0BEBF09072
:073CB300E2B1EAF08A82226F
:0E3CBA0090E2B2E0FA20E73490DF4F747FF022
:0E3CC80090DF0674D2F090E2B274804AF09061
:073CD600DF17E0FA54F7F0DC
:083CDD00E5E930E7FB53BEFBF3
:0E3CE500E5BE30E6FB7582E21253677582E69B
:033CF30012536702
:0E3CF600AAE27B00ADE37C00EC2AFAED3BFB7A
:0E3D040090E2F3EAF0A3EBF090E3047401F018
:043D120090000122FA
:0D3D16007582FF1253677582E512536790A6
:0D3D2300DF17E0FA4408F090E2B2E4F090FF
:0E3D3000E304E0604B90E2D1E0FAA3E0FBA3D5
:0E3D3E00E0FCA3E0FDAEE27F00A9E3E42EFE70
:0E3D4C00E93FFF90E2F3E0F8A3E0F9EEC39840
:0E3D5A00FEEF99FFE4F8F9EE2AFAEF3BFBE8E2
:0E3D68003CFCE93DFD90E2D1EAF0A3EBF0A3B4
:0A3D7600ECF0A3EDF090E304E4F09C
:043D8000900001228C
:0A3D8400C008858108AA82AB839075
:0C3D8E00DF4BEBF090DF4CEAF0E508247E
:0C3D9A00FCF890DF4D08E6F0E50824FC82
:0C3DA600F886027B0090DF4EEAF0E50892
:0E3DB20024F9F8B6000A08B6000608B60002AA
:023DC000803150
:063DC2007D437EDF7F005F
:033DC800BF080031
:0C3DCB005026E50824F9F8EF26FAE40879
:0E3DD70036FB0886048A828B838CF0129CF7E0
:0E3DE500FA8D828E83F0A3AD82AE830F80D55F
:033DF300D00822D3
:0A3DF600C0088581087A007582E29A
:0E3E0000C002125367900040126933D002E5F1
:093E0E000824FDF8B6000280450D
:0C3E1700E50824FDF8B6014790DF62E0EA
:083E2300FB30E0317B017C0063
:083E2B00EB60387401B50400DE
:043E330050027B00BE
:0E3E3700900100C002C003C004126933D00421
:0E3E4500D003D00290DF62E0FD20E0047B009D
:023E53007A01F2
:033E55000C80D30B
:043E58007A01800A61
:0A3E5C0090DF62E0FB20E0027AFF35
:0C3E6600EA3395E0FB8A828B83D00822AF
:0B3E7200E582FA60067582E9025367E2
:063E7D007582E8025367A4
:01DBD500004F
:0A3E8300C008858108AA82AB83AC59
:0E3E8D00F0758219C002C003C0041250E9ADE6
:0A3E9B0082AE83AFF074FBC0E07448
:0C3EA500E3C0E0E4C0E08D828E838FF06B
:0E3EB1001254FDAD82AE83158115811581D0AE
:0E3EBF0004D003D002ED4E605D740F2AFDE4C6
:0E3ECD003BFE8C078D828E838FF0129CF7FDDA
:0E3EDB00A3129CF7FEA3129CF7FF8D828E832C
:0E3EE9008FF0129CF7FDA3129CF7FEC005C0DF
:0C3EF70006E50824FBF8E6C0E008E6C081
:0A3F0300E008E6C0E0741BC0E074A3
:0C3F0D003FC0E0C005C0068A828B838C98
:023F1900F02294
:0A3F1B00158115811581D006D0052F
:033F2500D008229F
:0A3F2800C008858108AA82AB83ACB3
:0E3F3200F0740F2AFDE43BFE8C078D828E8317
:0D3F40008FF0129CF7FDA3129CF7FEA31258
:0E3F4D009CF7FF74022DFDE43EFE8D828E83F4
:0E3F5B008FF0129CF7FDA3129CF7FE4D60390B
:0C3F6900C005C006E50824FAF8E6C0E038
:0C3F750008E6C0E0E50824FCF8E6C0E027
:0A3F810008E6C0E07498C0E0743F49
:0D3F8B00C0E0C005C0068A828B838CF02246
:0A3F9800E58124FCF581D006D00578
:033FA200D0082222
:0A3FA500C008858108AA82AB83AC36
:0C3FAF00F0C002C003C0047489C0E074BC
:0A3FBB00D9C0E07480C0E0E50824DE
:0E3FC500FCF8E6C0E008E6C0E08A828B838C40
:0E3FD300F0126C7BE58124FBF581D004D00355
:0E3FE100D002740F2AFAE43BFB8A828B838C99
:0C3FEF00F0E50824F9F8E61256EEA308ED
:0B3FFB00E61256EEA308E61256EE7424
:0A40060083C0E074D9C0E07480C0EC
:0C401000E0E50824FCF886820886831294
:0B401C0030DF158115811581D00822CE
:03402700026CFD2B
:0A402A00C008858108AA82AB83ACB0
:0C403400F0C002C003C004E50824FBF843
:0E404000E6C0E008E6C0E008E6C0E0758219C0
:0E404E001250B0158115811581D004D003D019
:0C405C00028A828B838CF0126D00D00869
:014068002235
:06D983001910181000004D
:02D98900833EDB
:02D98B00283F33
:0E40690075E409D2B9E5F120E60543FD0880B3
:014077000345
:0340780043FE0202
:07407B0075E64453D8BF2293
:0C408200AA82AB838ADC8BDD43E640227F
:0C408E00C020C0E0C0F0C082C083C002AF
:0E409A00C003C004C005C006C007C000C001BE
:0E40A800C0D075D000C2B9AAE27B00ADE3E43F
:0E40B6002AFAED3BFB90E2E9EAF0A3EBF09072
:0E40C400E2FF7401F053E4BF53E6BF122094F4
:0E40D20090E2FFE0604B90E2BDE0FAA3E0FB5D
:0E40E000A3E0FCA3E0FDAEE27F00A9E3E42E26
:0E40EE00FEE93FFF90E2E9E0F8A3E0F9EEC33F
:0E40FC0098FEEF99FFE4F8F9EE2AFAEF3BFB8D
:0E410A00E83CFCE93DFD90E2BDEAF0A3EBF0DD
:0B411800A3ECF0A3EDF090E2FFE4F058
:0E412300D2B9D0D0D001D000D007D006D00540
:0E413100D004D003D002D083D082D0F0D0E0F2
:03413F00D020325B
:0C414200E41256EEA3E41256EEA3E402D1
:02414E0056EE2B
:0B415000129CF7FAA3129CF7FBA312CD
:0A415B009CF7FC8A828B838CF02213
:0A416500C008858108AA82AB83AC74
:0C416F00F0E50824FBF886050886060829
:0E417B0086078D828E838FF0129CF7FDA312B3
:0E4189009CF7FEA3129CF7FF8A828B838CF0BA
:0C419700ED1256EEA3EE1256EEA3EF124E
:0541A30056EED00822D9
:0B41A800129CF7FAA3129CF7FBA31275
:0E41B3009CF7FCEA4B4C7006900000F5F022E1
:0E41C1008A828B838CF0129CF7FDA3129CF770
:0E41CF00FEA3129CF7FFBD0008BE0005BF0056
:0341DD0002800855
:0841E0008D028E038F0480D9CB
:0741E8008A828B838CF02218
:0A41EF00C0088581080581058105DF
:0E41F90081AA82AB83ACF0C002C003C004E513
:0C4207000824FBF8E6C0E008E6C0E00870
:0E421300E6C0E08A828B838CF012449D1581F8
:0C42210015811581D004D003D002E508FF
:0E422D0024FBF886050886060886078D828E1B
:0E423B00838FF0E41256EEA3E41256EEA3E4D5
:0E4249001256EE8A828B838CF0C002C003C036
:0C42570004C005C006C0071241A8A8085A
:0E42630008A68208A68308A6F0D007D006D0D1
:0B42710005D004D003D002A80808A864
:0C427C000808E60846084670168A828B87
:0E428800838CF0ED1256EEA3EE1256EEA3EF6D
:054296001256EE801934
:0C429B00A8080886820886830886F0EDDB
:0B42A7001256EEA3EE1256EEA3EF122B
:0242B20056EEC6
:0642B400850881D00822FC
:0A42BA00C008858108AA82AB83AC1E
:0C42C400F0C002C003C004E50824FBF8B1
:0E42D000E6C0E008E6C0E008E6C0E08A828BA7
:0E42DE00838CF012449D158115811581D0044A
:0E42EC00D003D0028A828B838CF0129CF7FDE7
:0B42FA00A3129CF7FEA3129CF7FFE547
:0C4305000824FBF886820886830886F0F6
:0C431100ED1256EEA3EE1256EEA3EF12D2
:0C431D0056EE8A828B838CF0E50824FBAE
:0E432900F8E61256EEA308E61256EEA308E6DA
:064337001256EED0082230
:0A433D00C008858108C082C083C05B
:0C434700F0A8080886820886830886F02B
:0B435300129CF7FDA3129CF7FEA312C2
:0E435E009CF7FFED4E4F7008900000F5F00246
:02436C00442CDF
:0E436E008D828E838FF0129CF7FAA3129CF7BB
:0E437C00FBA3129CF7FCEA4B4C70288D028EBE
:0C438A00038F04A80808868208868308B8
:0E43960086F0E41256EEA3E41256EEA3E412F3
:0B43A40056EE8A828B838CF002442CC2
:0643AF008D028E038F0455
:0E43B5008A828B838CF0129CF7FDA3129CF77A
:0D43C300FEA3129CF7FF8D828E838FF012F7
:0A43D0009CF7FDA3129CF7FEA31258
:0E43DA009CF7FFBD0008BE0005BF0002801664
:0E43E8008A828B838CF0129CF7FAA3129CF74A
:0843F600FBA3129CF7FC80B749
:0E43FE008A828B838CF0129CF7FDA3129CF731
:0E440C00FEA3129CF7FF8A828B838CF0E412D1
:0A441A0056EEA3E41256EEA3E412DE
:0844240056EE8D828E838FF0AD
:06442C00850881D0082282
:0A443200C008858108058105810599
:0D443C0081AA82AB83ACF0129CF7FDA312A5
:094449009CF7FEA3129CF7FFA8EA
:0B4452000808A60508A60608A607A893
:0C445D000808ED4E4F60288D828E838F82
:0C446900F0129CF7FDA3129CF7FEA312BA
:0E4475009CF7FF8A828B838CF0ED1256EEA32B
:09448300EE1256EEA3EF1256EE04
:0C448C00A8080886820886830886F08550
:054498000881D008229C
:0A449D00C008858108C082C083C0FA
:0C44A700F0E5812409F581A80808868250
:0E44B3000886830886F0129CF7FDA3129CF782
:0E44C100FEA3129CF7FFED4E4F70030245EB79
:0C44CF00E5082407F8E4F608F60876007B
:0C44DB00E5082404F8A60508A60608A6BB
:0C44E70007E50824FBF88602088603089D
:0244F30086043D
:0C44F500E5082404F8B6000B08B6000728
:0745010008B600030245EBC0
:0C450800E5082404F8E6B5020C08E6B54E
:09451400030708E6B50402800368
:03451D000245B59F
:0C452000E5082407F8E608460846703657
:0C452C00E5082404F886820886830886CF
:0C453800F0129CF7FDA3129CF7FEA312EA
:0C4544009CF7FFA8080886820886830800
:0E45500086F0ED1256EEA3EE1256EEA3EF1219
:04455E0056EE80365F
:0C456200E5082404F88682088683088699
:0C456E00F0129CF7FDA3129CF7FEA312B4
:0C457A009CF7FFE5082407F886820886FD
:0E458600830886F0ED1256EEA3EE1256EEA359
:04459400EF1256EEDE
:0C459800E5082404F88682088683088663
:0D45A400F0E41256EEA3E41256EEA3E4126A
:0445B10056EE80360C
:0A45B500E5082404F8E5082407F9DE
:0C45BF00E6F70809E6F70809E6F7E5084A
:0E45CB002404F886820886830886F0129CF786
:0E45D9001818F6A3129CF708F6A3129CF70818
:0445E700F60244F59F
:0645EB00850881D00822C2
:0B45F100129CF7FAA3129CF7FBA31228
:0745FC009CF7FC7D007E002E
:0B460300BA0008BB0005BC0002801BD1
:05460E000DBD00010ECE
:0E4613008A828B838CF0129CF7FAA3129CF71C
:08462100FBA3129CF7FC80DAF8
:054629008D828E83224A
:0A462E00C008858108AA82AB83ACA6
:0C463800F0E50824FBF8E6084608467090
:0C46440021E50824F8F8E6C0E008E6C014
:0E465000E008E6C0E08A828B838CF01242BA4A
:08465E00158115811581805DB5
:0C466600E50824F8F886020886030886A0
:0C46720004E50824FBF886820886830813
:0D467E0086F0129CF7FDA3129CF7FEA3121C
:0E468B009CF7FF8A828B838CF0ED1256EEA313
:0A469900EE1256EEA3EF1256EEE506
:0C46A3000824FBF8860508860608860738
:0D46AF008D828E838FF0EA1256EEA3EB127F
:0746BC0056EEA3EC1256EECE
:0346C300D00822FA
:0C46C600AA82AB83ACF0EA4B4CB40100BC
:0D46D200E433FD60087D007E007F00801451
:0E46DF008A828B838CF0129CF7FDA3129CF74D
:0646ED00FEA3129CF7FF82
:0746F3008D828E838FF022FF
:0800920079AAE94400601B7A21
:05009A000190DB8878F5
:03009F009C7593BA
:0A00A200ECE493F2A308B800020595
:0800AC0093D9F4DAF27593FF19
:0446FA007A007B00C7
:0E46FE00C3EA940CEB64809480504C8A04EB69
:0D470C00CC25E0CC33CC25E0CC33FDEC24F3
:0A471900B5FCED34E2FD8A06EBCE9C
:0C47230025E0CE33FFEE24E5F582EF34F4
:0C472F00E2F583E4F0A3F08C828D83E4BB
:0C473B00F0A3F0A3F0A3F0EA24FDF58247
:0C474700EB34E2F583E4F00ABA00AC0B9E
:0247530080A93B
:014755002241
:0A475600C008858108C082C083E519
:0A47600081240AF581A80808E62468
:0A476A00FDFC08E634E2FD8C828DB0
:0747740083E07003024834EA
:0D477B00ACE27D00AFE3E42CFCEF3DFDE57A
:0A478800082403F8A60408A605A8FB
:0C4792000808860608E6CE25E0CE33CEEF
:0B479E0025E0CE33FFEE24B5FEEF3423
:0A47A900E2FF8E828F83E5082405ED
:0E47B300F8E0F6A3E008F6A3E008F6A3E0089D
:0C47C100F6A80808860208E6CA25E0CA2F
:0A47CD0033FBE5082409F8EA24E5AF
:0A47D700F6EB34E208F6E5082409C9
:0C47E100F88682088683E0FCA3E0FDE57A
:0C47ED00082403F8E6C39CFC08E69DFDD0
:0C47F900E4FAFBE5082405F8EC26FCEDD2
:0E4805000836FDEA0836FAEB0836FB8E828F85
:0D48130083ECF0A3EDF0A3EAF0A3EBF0E5D9
:0A482000082409F88682088683E563
:0A482A00082403F9E7F0A309E7F002
:0C483400A80808860208E6CA25E0CA337E
:0C484000CA25E0CA33FBEA24B5F582EB80
:0C484C0034E2F583E0FAA3E0FBA3E0FCFB
:0C485800A3E08A828B838CF0850881D05D
:02486400082228
:07486600900000E4F5F022D0
:0A486D00C008858108AA82E583CA0D
:0C48770025E0CA33CA25E0CA33FBEA245E
:09488300B5F582EB34E2F583E5A2
:0C488C000824FAF8E6F0A308E6F0A30800
:09489800E6F0A308E6F0D00822C6
:0A48A100C008E581F508240AF5813E
:0948AB00E5082403F8E4F608F620
:0C48B400E5082403F8C3E6940C08E66451
:0848C00080948040030249A529
:0A48C800E5082403F8E624FDFC08CF
:0C48D200E634E2FD8C828D83E07003026E
:0248DE004997F8
:0D48E000ACE27D00AFE3E42CFCEF3DFDA851
:0A48ED000808A60408A605E5082443
:0E48F70003F8860608E6CE25E0CE33CE25E097
:0A490500CE33FFEE24B5FEEF34E2DE
:0C490F00FF8E828F83E5082405F8E0F697
:0D491B00A3E008F6A3E008F6A3E008F6E527
:0C492800082403F8860208E6CA25E0CA4D
:0A49340033FBE5082409F8EA24E546
:0A493E00F6EB34E208F6E508240960
:0C494800F88682088683E0FCA3E0FDA84E
:0C4954000808E6C39CFC08E69DFDE4FAA0
:0C496000FBE5082405F8EC26FCED083609
:0E496C00FDEA0836FAEB0836FB8E828F83ECEC
:0C497A00F0A3EDF0A3EAF0A3EBF0E508D9
:0C4986002409F88682088683A90809E746
:05499200F0A309E7F0AD
:0B499700E5082403F806B6000208063D
:0349A2000248B414
:0649A500850881D0082204
:0349AB00027CADDE
:0A49AE00C008858108C082C083C0E4
:0C49B800F0C0E0E5812408F581A80808A3
:0E49C40086820886830886F008E61249AB1248
:0E49D2007CE1AE82AF83AAF0FBC006C007C036
:0C49E00002C003A808088682088683082D
:0E49EC0086F008E612B122AA82AB83ACF0FD81
:0E49FA00E58124FCF581C002C003C004C005A5
:0E4A080090000075F0C8744212B6E7AA82ABA7
:0C4A160083ACF0FDE58124FCF581E5088F
:0E4A22002405F8A60208A60308A60408A605A7
:0C4A3000E4C0E0C0E0C0E0C0E0E5082405
:0D4A3C0005F886820886830886F008E612D9
:0E4A49005464AE82E58124FCF581EE6012E536
:0C4A5700082405F8860608860708860279
:054A630008860380122B
:0C4A6800E5082405F88606088607088685
:064A74000208E6B2E7FBB8
:0C4A7A008E828F838AF0EB127DB48508D9
:044A860081D00822B1
:0E4A8A0090E343E4F0A3F090E341E4F0A3F0E6
:0E4A980090E3457430F090ECEAE0FAA3E0FB06
:0E4AA600A3E0FC90E3F874302AF0E43BA3F0A8
:064AB400A3ECF0024F50DC
:074ABA0090E3457430F02287
:0A4AC100C008858108C082C083C0D0
:0C4ACB00F0124A8AE50824FCF8C374804D
:0C4AD70096E4089650067D807E00800A60
:0A4AE300E50824FCF88605088606A5
:0E4AED0090E3F8E0FFA3E0FAA3E0FBC005C0F1
:0C4AFB0006C005C006A80808E6C0E008D8
:0E4B0700E6C0E008E6C0E08F828A838BF012E1
:0D4B15008214E58124FBF581D006D00590C7
:0C4B2200E341EDF0A3EEF08D828E838560
:054B2E000881D00822FF
:0A4B3300C008E581F5082407F581AC
:0D4B3D00124ECAE5828583F045F0604C12EF
:0C4B4A004F18A808080808A68208A683D7
:0E4B5600124F06AC82AD83AEF090ECEAE0FFA9
:0E4B6400A3E0FAA3E0FB74302FFFE43AFAE579
:0C4B7200082403F8E6C0E008E6C0E0C03C
:0E4B7E0004C005C0068F828A838BF012821459
:094B8C00E58124FBF581024C389F
:0E4B950090E343E0FAA3E0FB4A7003024C38C1
:0E4BA300124F18AA82AB8374302AFAE43BFB4F
:084BB100A80808763008760020
:0C4BB900A80808C3E69A08E664808BF0A8
:0E4BC50063F08095F05065C002C00390ECEAEA
:0C4BD300E0FEA3E0FFA3E0FAA80808E55C
:0C4BDF00082405F9E62EF708E63F09F768
:0C4BEB0009A70290E343E0FBA3E0FCA854
:0C4BF7000808E62BFB08E63CFCEB2EFE59
:0E4C0300EC3FFF8E828F838AF0129CF7FEE555
:0C4C1100082405F886820886830886F0D7
:0C4C1D00EE1256EEA8080806B6000208C9
:014C29000684
:074C2A00D003D002024BB9D8
:074C310090E343E4F0A3F05F
:064C3800850881D008226E
:0A4C3E00C008858108C082C083C051
:0E4C4800F090E345E0FDFE7F007430C39EFE59
:0E4C5600E49FFF90ECEAE0FAA3E0FBA3E0FC91
:0E4C6400ED2AFDE43BFBC006C007C005C003FF
:0C4C7200C004A808088682088683088613
:0E4C7E00F0128214E58124FBF58190E345E0FD
:0E4C8C00FB7C007430C39BFBE49CFC8B828C91
:074C9A0083850881D0082288
:0A4CA100C008858108C082C083C0EE
:0E4CAB00F0E5812408F58190E345E0FDFE7FF1
:0C4CB90000E5082404F87430C39EF6E403
:0C4CC5009F08F690E341E0FAA3E0FBE555
:0C4CD100082404F8EA26FAEB0836FBC3BE
:0D4CDD0074809AE49B5006900000024DA8E0
:0E4CEA007430C39EFEE49FFF90ECEAE0FAA354
:0E4CF800E0FBA3E0FCED2AFAE43BFBC006C0A3
:0C4D060007C002C003C004A80808868291
:0E4D12000886830886F0128214E58124FBF5E2
:0E4D20008190E343E0FAA3E0FB90E3F8E0FCAF
:0E4D2E00A3E0FDA3E0FEEA2CFAEB3DFB8E07AE
:0A4D3C00A80808E5082406F9743001
:0E4D460026F7E4083609F70809E6F790E3457A
:0C4D5400E0FC7D00E5082406F8E6C39CA6
:0E4D6000FC08E69DFD08860690E341E0C0E0F9
:0E4D6E00A3E0C0E0C002C003C0078C828D83AA
:0E4D7C008EF0128214E58124FBF58190E34550
:0D4D8A00E0FA7B007430C39AFAE49BFB90C2
:0E4D9700E341E0FCA3E0FDEC2AFAED3BFB8AD1
:034DA500828B837B
:064DA800850881D00822FD
:0E4DAE00AA82AB8390E345E0FC7D00C3EC9A43
:0E4DBC00ED64808BF063F08095F0402BC00218
:0E4DCA00C003124F30AC82AD83D003D002EA9A
:0E4DD8002CFCEB3DFDC374809CE49D400E90CE
:0D4DE600E345E090E345C39AF09000012200
:044DF300900000220A
:0E4DF700AA8290E345E0FB90E345EA2BF02210
:0E4E0500AA82AB8390E341E0FCA3E0FD8A06A5
:0D4E13008B07C3EC9EED9F50049000002221
:0E4E200090E343E0FEA3E0FF90E343EA2EF0B0
:0E4E2E00EB3FA3F090E341ECC39AF0ED9BA3A1
:054E3C00F090000122CE
