:040000000200853243
:01000B0032C2
:0300130002125B7B
:03001B0002133C91
:0100230032AA
:03002B00028B94B1
:01003300329A
:03003B0002132F7E
:030043000296B66C
:03004B0002711A25
:01005300327A
:01005B003272
:01006300326A
:03006B0002107907
:0300730002141064
:03007B000211640B
:0300E30002007E9A
:05007E001202D080FE1B
:0A00E600C008858108C082C0837C39
:0300F000007D0090
:0E00F300C3EC9490ED6480948140030201E21E
:0E010100C374C89C74808DF063F08095F0503C
:0C010F000B7490C39CFE74019DFF8004E3
:04011B008C068D07BA
:0C011F00A8080886028A82C002C004C042
:0E012B0005C006C007122FE7D007D006D0058A
:0B013900D004D00290E000E4F0A3F03E
:0E014400C00290E000E0FBA3E0FAC3EB9EEAED
:0E01520064808FF063F08095F0D0025022C0E0
:0E0160000290E000E0FBA3E0FA90E002EBF07A
:0E016E00A3EAF090E000E02401F0A3E03400EA
:05017C00F0D00280C379
:0E0181008A82C004C005C006C007122FFED03F
:0E018F0007D006D005D00490E000E4F0A3F005
:08019D0074C8C39EFAE49FFB45
:0E01A50090E000E0FEA3E0FFC3EE9AEF64805E
:0E01B3008BF063F08095F0501E90E000E0FEAF
:0E01C100A3E0FF90E002EEF0A3EFF090E0006C
:0B01CF00E02401F0A3E03400F080CB3E
:0501DA000CBC00010D4A
:0301DF000200F328
:0601E200850881D008220F
:0A01E800C00885810805810581C269
:0A01F200AF759F037AF87BFF7C00D5
:0301FC00BC08003C
:0A01FF00501DEC2406FDE434E0FE80
:0E0209008A828B83E493FFA3AA82AB838D824B
:070217008E83EFF00C80DE86
:0C021E00759F01D2AFAA080A7B007C404B
:0E022A007402C0E0E4C0E0E4C0E08A828B838E
:0E0238008CF012A13C15811581158190ECC34C
:09024600E0FAA3E0FB4A701FFA84
:03024F00BA0200F0
:0C0252005038AB080BEA2BF87401C39A7B
:0A025E002406F582E434E0F583E0A5
:05026800FBF60A80E234
:0A026D0090D9F575F080127BD3AA3A
:0C027700080AEA04F890ECC3E0FAA3E0E7
:09028300FCF6A808087B00A602A5
:0C028C00AA080A7B007C408A828B838CCD
:0C029800F0123D8FA8080886028A037A45
:0C02A40000AC080CEC04F886047D00ECB3
:0E02B0002AFAED3BFBE4C0E0C0E0C0E0C00273
:0D02BE00C00390FFFF126863E58124FB85FB
:0502CB000881D00822AB
:0702D00012BBB8123B321211
:0902D70041DB122FB59000011269
:0D02E00000E690C20075F001E41299FA905A
:0602ED005612121330123C
:0602F30018EC12582790E0
:0902F900DA1A75F080127BD39033
:09030200DA3375F080127BD3128E
:09030B003060900000129B951275
:0D0314007C7A1201E8E4C0E0C0E0C0E09097
:0E032100ECEA75F00012141E1581158115818D
:0E032F001251F6E4C0E0C0E0C0E090ED2F7582
:0E033D00F00012141E1581158115811239CFA2
:0E034B009000041200E61272ADAAE27B00AD33
:0E035900E37C00EC2AFAED3BFB90E3A5EAF012
:0E036700A3EBF090E3BD7401F090DA5F75F047
:07037500801288551230646C
:0E037C00123068121B2EAA82AB83C3E49A745F
:0E038A00808BF063F08095F040E890DDBCE4DD
:0E03980093FAA3E493FB8A828B83120083AA5C
:0E03A60082AB8390E004EAF0A3EBF0EA4B6038
:0E03B400C712755E127921AA82AB83ACF07479
:0D03C20080C0E0E4C0E08A828B838CF012E2
:0E03CF006534AA82AB831581158190E004EAA3
:0E03DD00F0A3EBF0C3E49A74808BF063F08021
:0E03EB0095F0508D8A828B8312791590DE3C3E
:0E03F900E493FAA3E493FBC002C0038A828B54
:0B04070083120083D003D00202037CAC
:0ED9F50053657474696E67206D616E75616CA8
:0EDA030020616464726573732066726F6D201B
:09DA11006E6F64655F69640A0030
:0EDA1A0057656C636F6D6520746F20436F6EEF
:0BDA280074696B6920322E342E0A0056
:0EDA330052756E6E696E67206F6E3A204E3728
:0EDA41003430204E616E6F53656E736F72202D
:0EDA4F00284343323433312D46313238292EEC
:02DA5D000A00BD
:02DE810000009F
:06041200C00885810812FC
:0E0418007921AA82AB83ACF012AE67FDBD3332
:030426000280034E
:030429000204AA20
:0C042C00C002C003C004E50824F8F8E694
:0C043800C0E008E6C0E008E6C0E0E5080F
:0E04440024FBF886820886830886F01245168F
:0E045200AD82AE83AFF0158115811581D00407
:0E046000D003D002ED4E4F6011740C2DFDE460
:0C046E003EFE8D828E838FF0E41289B276
:05047A000ABA00010BAD
:0E047F008A828B838CF012AE67602090E08B37
:0E048D007401F0E4C0E0C0E0C0E07485C0E09F
:0E049B0090ECC575F000121B6BE58124FCF59A
:0104A90081D1
:0304AA00D0082255
:0A04AD00C008858108C082C083C02A
:0E04B700F0E581240CF58112755E90000B12A9
:0E04C5007915127921AD82AE83AFF074331237
:0E04D30089B274012DFAE43EFB8F048A828BFD
:0E04E100838CF074091289B274042DFAE43E83
:0E04EF00FB8F048A828B838CF0740F1289B20B
:0C04FD00A374271289B2E5082404F874E7
:0C050900022DF6E43E08F608A607E508FF
:0E0515002404F886820886830886F0740F128C
:0905230089B2A374271289B2E524
:0C052C00082407F874062DF6E43E08F6DB
:0C05380008A607E5082407F8868208865C
:0D054400830886F0740F1289B2A374271289
:0C05510089B2E508240AF874082DF6E4CD
:0C055D003E08F608A607E508240AF88608
:0E056900820886830886F0E41289B290ECE2E4
:07057700E0FD700302060F16
:0C057E00E508240AF886820886830886B7
:0C058A00F012AE67FDE508240AF8A60593
:0C059600087600E5082407F88682088635
:0C05A200830886F0E5082407F912AE6714
:0C05AE00F7A312AE6709F7E5082404F873
:0E05BA0086820886830886F012AE67FEA312C2
:0E05C800AE67FD8A828B838CF012AE67FAA3B9
:0C05D60012AE67FBE508240AF8E6C0E05E
:0C05E20008E6C0E0E5082407F8E6C0E0E9
:0D05EE0008E6C0E0C006C005C002C00374EE
:0A05FB0068C0E074DAC0E07480C04C
:0A060500E012A8F1E58124F5F5816B
:0C060F00A80808E6C0E008E6C0E008E625
:0E061B00C0E090E00E75F00012408CAA82AB99
:0C062900831581158115818A828B8385E1
:050635000881D008223D
:06063A00C008858108E5FF
:0C0640000824FBF88602088603088604E4
:0E064C0074012AFDE43BFE8C078D828E838FA5
:0E065A00F012AE67FD7E008A828B838CF01258
:0E066800AE67FA7B00C005C006C002C0037476
:0A0676009EC0E074DAC0E07480C09A
:0E068000E012A8F1E58124F9F581E4C0E0C0A4
:0E068E00E0C0E07485C0E090ECC575F000128D
:0B069C001B6BE58124FCF581D00822D7
:0A06A70074CDC0E074DAC0E0748086
:0E06B100C0E012A8F1158115811581E4C0E0AA
:0E06BF00C0E0C0E07485C0E090ECC575F000AE
:0A06CD00121B6BE58124FCF581226D
:0E06D700AA82AB83ACF074331289B274042A89
:0E06E500FDE43BFE8C07C002C003C004C0054C
:0E06F300C006C007125E58A882A983D007D0A7
:0E07010006D005D004D003D0028D828E838FE7
:0E070F00F0E81289B2A3E91289B274022AFD41
:0E071D00E43BFE8C07C002C003C004C005C050
:0E072B0006C007125FDDA882A983D007D006A2
:0E073900D005D004D003D0028D828E838FF0C5
:0E074700E81289B2A3E91289B274062AFDE411
:0E0755003BFE8C07C002C003C004C005C006F6
:0E076300C0071260B2A882A983D007D006D0CA
:0E07710005D004D003D0028D828E838FF0E875
:0E077F001289B2A3E91289B274082AFAE43B87
:0E078D00FB90ECE0E08A828B838CF00289B254
:0E079B00124601AA82AB83ACF0EA4B4C600917
:0907A9008A828B838CF00247F870
:0107B2002224
:0A07B300C008858108C082C083C021
:0C07BD00F0E581240BF581E5082404F828
:0C07C90076DFE5082404FD04F876DFE587
:0C07D5000824FDF8B6831290E02375F0B4
:0B07E10000122C4290E00E75F0001298
:0207EC00408942
:0C07EE007D01A808088682088683088622
:0E07FA00F012AE67FEA312AE67FFBE0005BF91
:040808000002802743
:09080C00BEAC06BF000302093373
:09081500BEB106BF00030209791F
:09081E00BEC806BF0003020AB7C0
:09082700BED906BF0003020B3B21
:03083000020B5860
:0E083300128B1AAE82AF8390E089EEF0A3EF35
:0A084100F074F6C0E074DAC0E07451
:0E084B0080C0E07492C0E0E4C0E0C006C007C8
:0E08590090E02375F000122B96E58124F9F54E
:0A0867008174FAC0E074DAC0E07496
:0E08710080C0E07480C0E0E4C0E090E00E754E
:0E087F00F000124007E58124FBF581124330A2
:06088D0090000A12486F02
:0E089300E4C0E07401C0E090E08C75F000124B
:0E08A100372C1581158190ECE1E0FE7003020A
:0208AF000B2418
:0C08B100E5082404FE7F007A408E828F50
:0D08BD00838AF0124601AA82AB83ACF0E5FD
:0C08CA00082406F8E4BA0007BB0004BCD8
:0308D6000001041A
:0108D900F628
:0C08DA00E5082404FE7F007A408E828F27
:0E08E600838AF0124601AA82AB83ACF0EA4B83
:0C08F4004C704FE5082404FE7F007A40A1
:0E0900007480C0E0E4C0E0C006C007C00290F2
:0E090E00E02375F000122CE8E58124FBF58152
:0C091C007D00A8080886820886830886F3
:0B092800F074AC1289B2A3E41289B293
:0C093300ED600AE50824FDF8B68502809E
:01093F009A1D
:06094000758201020B6F3D
:0C094600E5082406F8E660467480C0E076
:0E095200E4C0E090E0A075F00012372C158193
:0C09600015817D00A808088682088683A7
:0D096C000886F074B11289B2A3E41289B2BA
:0E097900ED601290E0A075F0001237F0E582FC
:070987008583F045F07006C6
:06098E00758201020B6FEF
:0C099400E5082404FA7B007C408A828B7A
:0D09A000838CF0124601AA82AB83ACF0E517
:0C09AD00082407F8A60208A60308A60408
:0C09B900E5082407F8740626FEE4083662
:0E09C500FF0886028E828F838AF012AE67FED4
:0C09D3007A00E5082407F8740526FBE410
:0D09DF000836FC0886078B828C838FF0128F
:0C09EC00AE67FBE508240AF8A6030876B5
:0C09F80000E508240404F886077D00E5F3
:0C0A0400082404F886047B00C006C00231
:0C0A1000E508240AF8E6C0E008E6C0E0B3
:0C0A1C00C007C005C004C00374FEC0E0A9
:0C0A280074DAC0E07480C0E012A8F1E5B0
:0E0A34008124F5F58190E08BE4F012755E9060
:0E0A4200000B127915127921AA82AB83ACF059
:0E0A50008A0574012DFEE43BFF8C028E828F1E
:0E0A5E00838AF0E41289B28D828B838CF012B1
:0C0A6C0006D7E5082404FA7B007C40C09B
:0E0A780002C003C00490E00E75F00012408C26
:0E0A86001581158115817480C0E0E4C0E090F8
:0E0A9400E09675F00012372C158115817D005B
:0C0AA200A8080886820886830886F07485
:090AAE00C81289B2A3E41289B256
:0E0AB700ED601C90E09675F0001237F0E582BD
:0C0AC5008583F045F07010E50824FDF872
:050AD100B6850280065D
:060AD600758201020B6FA6
:0C0ADC0090E08BE0FA60177435C0E07405
:0C0AE800DBC0E07480C0E012A8F11581B2
:060AF40015811581802A26
:0A0AFA00745CC0E074DBC0E074809F
:0C0B0400C0E012A8F1158115811581E5F3
:0C0B1000082404FA7B007C408A828B835E
:080B1C008CF012079B0208B1E6
:0C0B24007D00A8080886820886830886E9
:0B0B3000F074D91289B2A3E41289B25C
:0E0B3B00ED601590E08C75F0001237F0E58249
:0A0B49008583F045F0600302089375
:050B530075820180170E
:0C0B5800A8080886820886830886F0E45E
:0B0B64001289B2A3E41289B27582036B
:060B6F00850881D0082278
:0A0B7500C008858108C082C083C05B
:0C0B7F00F07D01A8080886820886830823
:0E0B8B0086F012AE67FEA312AE67FFBE000535
:050B9900BF0002800B0B
:080B9E00BEE805BF0002801A49
:030BA600020C81BD
:0C0BA9007D00A808088682088683088664
:0B0BB500F074E81289B2A3E41289B2C8
:0C0BC000ED601090E36BE0FDE50824FD03
:070BCC00F8E6B50502800602
:060BD300758201020C987E
:0C0BD900E50824FAF88605088606088660
:0A0BE50007EDB44847EEB4DC43EF1F
:0E0BEF00B4803F90ECE1E0FA90ECE1B401003C
:0C0BFD00E433F090ECE1E0FA60067ACFFF
:040C09007BDB80040D
:040C0D007AD77BDB3C
:0C0C11007C80C002C003C004749FC0E0DF
:0C0C1D0074DBC0E07480C0E012A8F1E5B8
:080C29008124FAF581020BA9F8
:0A0C3100EDB4510AEEB4DC06EFB496
:040C3B0080028003B0
:030C3F00020BA9FC
:0B0C420090ECE0E0FA90ECE0B4010060
:0C0C4D00E433F090ECE0E0FA60067A106E
:040C59007BDC8004BC
:040C5D007A167BDCAC
:0C0C61007C80C002C003C00474DFC0E04F
:0C0C6D0074DBC0E07480C0E012A8F1E568
:080C79008124FAF581020BA9A8
:0C0C8100A8080886820886830886F0E434
:0B0C8D001289B2A3E41289B275820341
:060C9800850881D008224E
:0A0C9E00C008858108C082C083C031
:0C0CA800F005810581E5082404F876FFC2
:0A0CB400E5082404FD04F876EEE5DF
:0C0CBE000824FDF8B6830990E00E75F0E4
:040CCA00001240894B
:0C0CCE007D01A80808868208868308863D
:0E0CDA00F012AE67FEA312AE67FFBE0005BFAC
:040CE8000002800B7B
:080CEC00BE1405BF0102807671
:030CF400020E49A4
:0A0CF70074FAC0E074DAC0E0748003
:0E0D0100C0E07480C0E0E4C0E090E00E75F049
:0A0D0F0000124007E58124FBF58186
:0C0D1900E5082404FE7F007A407480C0CE
:0E0D2500E0E4C0E0C006C007C00290E0237505
:0E0D3300F000122CE8E58124FBF5817480C0ED
:0E0D4100E0E4C0E090E0B275F00012372C152F
:0C0D4F008115817D00A8080886820886B6
:0D0D5B00830886F074141289B2A37401128B
:020D680089B24E
:0E0D6A00ED601290E0B275F0001237F0E582F5
:070D78008583F045F07006D1
:060D7F00758201020E6006
:0C0D8500E5082404FA7B007C408A828B85
:0E0D9100838CF0124601AA82AB83ACF0EA4BD1
:060D9F004C7003020D1967
:0A0DA5007422C0E074DCC0E074802A
:0E0DAF00C0E012A8F1158115811581123B32AA
:0E0DBD00128B1AE5828583F090E0ACF0A3E57E
:060DCB00F0F07A647B00E9
:0C0DD100E5082404FC7D007E408C828D2F
:0E0DDD00838EF0C002C0031204AD90006412B9
:0B0DEB008AC8D003D0021ABAFF011B17
:0E0DF600EA4B70D7128B1AAA82AB8390E0AE44
:0E0E0400EAF0A3EBF090E0ACE0FCA3E0FDEA26
:0E0E1200C39CFAEB9DFB90E0B0EAF0A3EBF07E
:0E0E2000EBC40354F8CAC403CA6ACA54F8CA21
:0B0E2E006AFBC002C0037436C0E07411
:0C0E3900DCC0E07480C0E012A8F1E5818C
:040E450024FBF58114
:0C0E4900A8080886820886830886F0E46A
:0B0E55001289B2A3E41289B275820377
:060E6000850881D0082284
:03DA5F00C5EC0013
:06DA6200CEEC0000000004
:0EDA680053656E64696E6720646174612063AB
:0EDA76006F6E74656E743A626174745B257530
:0EDA84005D6C696768745B25755D74656D7017
:0CDA92005B25755D3B645B25755D0A003B
:0EDA9E00524F5554455F444953434F5645522D
:0EDAAC00593A204E657720726F7574652074AC
:0EDABA006F2025642E256420697320666F7529
:05DAC8006E642E0A004F
:0EDACD00524F5554455F444953434F564552FE
:0EDADB00593A2043616E6E6F74206469736364
:0DDAE9006F76657220726F7574652E0A00ED
:02DAF6003A06EE
:02DAF800A7067F
:02DAFA00120414
:02DAFC00FB9B92
:0EDAFE004D554C5449484F505F53454E443AE5
:0EDB0C002053656E64696E67207061636B65FF
:0EDB1A007420746F776172642025642E256478
:0DDB2800207669612025642E25642E0A00F8
:0EDB35004D554C5449484F505F41434B3A20E8
:0EDB43005061636B65742069732061636B6EC3
:0BDB51006F776C65646765642E0A0046
:0EDB5C004D554C5449484F505F41434B3A20C1
:0EDB6A005061636B6574206973204E4F542028
:0EDB780061636B6E6F776C65646765642E2069
:0EDB860052656D6F76696E6720696E76616C10
:0BDB9400696420726F7574652E0A0032
:0EDB9F00427574746F6E2031206973207072AD
:0EDBAD0065737365642C2073656E736F7273FD
:0EDBBB00207265706F7274696E672068617306
:06DBC9002025732E0A0066
:08DBCF00737461727465640057
:08DBD70073746F707065640047
:0EDBDF00427574746F6E20322069732070726C
:0EDBED0065737365642C2073776974636869CF
:0EDBFB006E6720746F202573207265706F7244
:07DC090074696E672E0A002A
:06DC10006C6967687400F6
:0CDC160074656D70657261747572650054
:0EDC2200546865207061746820697320666F15
:06DC3000756E642E0A006F
:0EDC36007469636B73203D205B7E2575206D45
:04DC4400735D0A0002
:09DE8300000000B30700000000DC
:09DE8C00000000750B000000000D
:09DE95000000009E0C00000000DA
:01DE9E000083
:01DE9F000082
:01DEA0000180
:01DEA100017F
:040E660053F4FE2221
:040E6A0053F4FE221D
:040E6E0043F4012226
:030E7200D29022F9
:030E7500C2902206
:070E7800A290E433F5822291
:040E7F0043FE01220B
:040E830053FEFE22FA
:070E8700438D01439A102284
:0A0E8E00538DFEE58D7003539AEFBB
:010E98002237
:0C0E99007401558DFA7B008A828B832245
:040EA500438C022256
:040EA900538CFD2247
:0C0EAD007401558AFA7B008A828B832234
:060EB900C2EB758A002265
:040EBF0053F3EF22D8
:040EC30053F3EF22D4
:040EC70043F31022BF
:030ECB00D28422AC
:030ECE00C28422B9
:070ED100A284E433F5822244
:040ED80043FD1022A4
:040EDC0053FDEF22B1
:0E0EE000438C1090E0BCE04410F043B8202298
:0E0EEE0090E0BCE054EFF090E0BCE0FA54F06D
:030EFC0060012270
:040EFF00538CEF22FF
:0E0F030090E0BCE0FA5302107B008A828B83E0
:010F110022BD
:040F1200438C0122E9
:040F1600538CFE22D8
:0C0F1A0074105589FA7B008A828B8322B8
:060F2600C2C5758900221E
:0D0F2C00120E78E582701990E0BEF5F0120B
:0B0F39007D91AA82AB83EA4BB401005B
:080F4400E433FA7003FA8002A5
:020F4C007A0128
:090F4E00EA3395E08A82F5832262
:0C0F5700AA82AB83BA8105BB00028006B1
:060F6300BA8206BB000388
:030F6900020E99DC
:040F6C0090000022CF
:0A0F7000C008858108AA82AB83BA8D
:070F7A008005BB00028008A6
:080F8100BA814ABB0047800E53
:070F8900120EA5120E661204
:070F90000E83900001803A7E
:0B0F9700E50824FCF8E608466025127F
:0E0FA2000E99E5828583F045F0701CC0E0C01A
:0E0FB000E090E0BE75F000127CDF1581158127
:080FBE00120EB9120E87800328
:030FC600120E8E7A
:050FC90090000180030F
:030FCE0090000090
:030FD100D0082223
:0D0FD400120ED1E582701990E0C2F5F01206
:0B0FE1007D91AA82AB83EA4BB40100B3
:080FEC00E433FA7003FA8002FD
:020FF4007A0180
:090FF600EA3395E08A82F58322BA
:0C0FFF00AA82AB83BA8105BB0002800609
:06100B00BA8206BB0003DF
:03101100020F03C8
:041014009000002226
:0A101800C008858108AA82AB83BAE4
:071022008005BB00028008FD
:08102900BA8147BB0044800BB3
:0B103100120EBF120EDC900001803A8E
:0B103C00E50824FCF8E60846602512D9
:0E1047000F03E5828583F045F0701CC0E0C009
:0E105500E090E0C275F000127CDF158115817D
:08106300120F26120EE08003BB
:03106B00120EEE74
:05106E00900001800369
:03107300900000EA
:03107600D008227D
:0C107900C020C0E0C0F0C082C083C002F4
:0E108500C003C004C005C006C007C000C00103
:0E109300C0D075D000C2AFAAE27B00ADE3E48E
:0E10A1002AFAED3BFB90E3A9EAF0A3EBF090F6
:0E10AF00E3BF7401F0120F1AE5828583F0454D
:0E10BD00F0602F90E0C275F000127D91E58288
:0E10CB008583F045F0601D7420C0E0E4C0E0B5
:0E10D90090E0C275F000127CDF158115819049
:0810E700DC5175F080125ABFC4
:0E10EF00758900C2C590E3BFE0604B90E37DC1
:0E10FD00E0FAA3E0FBA3E0FCA3E0FDAEE27F7F
:0E110B0000A9E3E42EFEE93FFF90E3A9E0F81F
:0E111900A3E0F9EEC398FEEF99FFE4F8F9EEBB
:0E1127002AFAEF3BFBE83CFCE93DFD90E37D3E
:0E113500EAF0A3EBF0A3ECF0A3EDF090E3BF23
:02114300E4F0D6
:0E114500D2AFD0D0D001D000D007D006D00558
:0E115300D004D003D002D083D082D0F0D0E000
:03116100D0203269
:0C116400C020C0E0C0F0C082C083C00208
:0E117000C003C004C005C006C007C000C00117
:0E117E00C0D075D000C2AFAAE27B00ADE3E4A2
:0E118C002AFAED3BFB90E3A9EAF0A3EBF0900A
:0E119A00E3BF7401F0120EADE5828583F045CF
:0E11A800F0602F90E0BE75F000127D91E582A0
:0E11B6008583F045F0601D7420C0E0E4C0E0C9
:0E11C40090E0BE75F000127CDF158115819061
:0811D200DC4875F080125ABFE1
:0E11DA00758A00C2EB90E3BFE0604B90E37DAE
:0E11E800E0FAA3E0FBA3E0FCA3E0FDAEE27F93
:0E11F60000A9E3E42EFEE93FFF90E3A9E0F834
:0E120400A3E0F9EEC398FEEF99FFE4F8F9EECF
:0E1212002AFAEF3BFBE83CFCE93DFD90E37D52
:0E122000EAF0A3EBF0A3ECF0A3EDF090E3BF37
:02122E00E4F0EA
:0E123000D2AFD0D0D001D000D007D006D0056C
:0E123E00D004D003D002D083D082D0F0D0E014
:03124C00D020327D
:03DC48005ADC8023
:02DC4B002C0F9C
:02DC4D00700F56
:02DC4F00570F6D
:03DC510063DC8011
:02DC5400D40FEB
:02DC56001810A4
:02DC5800FF0FBC
:09DC5A00427574746F6E203100F4
:09DC6300427574746F6E203200EA
:0C124F00AA83E58290E0C6F0A3EAF0223A
:0C125B00C020C0E0C0F0C082C083C00210
:0E126700C003C004C005C006C007C000C0011F
:0E127500C0D075D000AAE27B00ADE3E42AFAF7
:0E128300ED3BFB90E3A9EAF0A3EBF090E3BF94
:0E1291007401F0C28B90E0C6E0FAA3E0FB7C93
:0C129F0080BA0008BB0005BC00028016ED
:0912AB0074C1C0E07412C0E090AF
:0D12B400E0C6E0C0E0A3E0C0E085C18222FA
:0E12C10090E3BFE0604B90E37DE0FAA3E0FB1A
:0E12CF00A3E0FCA3E0FDAEE27F00A9E3E42E65
:0E12DD00FEE93FFF90E3A9E0F8A3E0F9EEC3BD
:0E12EB0098FEEF99FFE4F8F9EE2AFAEF3BFBCC
:0E12F900E83CFCE93DFD90E37DEAF0A3EBF05C
:0B130700A3ECF0A3EDF090E3BFE4F0D6
:0E131200D0D0D001D000D007D006D005D00436
:0D132000D003D002D083D082D0F0D0E0D036
:02132D0020326C
:01132F00328B
:0C133000AA83E58290E0C8F0A3EAF02256
:0C133C00C020C0E0C0F0C082C083C0022E
:0E134800C003C004C005C006C007C000C0013D
:0E135600C0D075D000AAE27B00ADE3E42AFA15
:0E136400ED3BFB90E3A9EAF0A3EBF090E3BFB2
:0E1372007401F0C28F90E0C8E0FAA3E0FB7CAB
:0C13800080BA0008BB0005BC000280160B
:09138C0074A2C0E07413C0E090EB
:0D139500E0C8E0C0E0A3E0C0E085F98222DE
:0E13A20090E3BFE0604B90E37DE0FAA3E0FB38
:0E13B000A3E0FCA3E0FDAEE27F00A9E3E42E83
:0E13BE00FEE93FFF90E3A9E0F8A3E0F9EEC3DB
:0E13CC0098FEEF99FFE4F8F9EE2AFAEF3BFBEA
:0E13DA00E83CFCE93DFD90E37DEAF0A3EBF07A
:0B13E800A3ECF0A3EDF090E3BFE4F0F5
:0E13F300D0D0D001D000D007D006D005D00455
:0D140100D003D002D083D082D0F0D0E0D054
:02140E0020328A
:0114100032A9
:0D14110090E0CAE0FA90E0CA04F08A82225E
:0A141E00C008858108C082C083C0A9
:0E142800F090ECE4E0FDA3E0FEA3E0FF8D02F7
:041436008E038F048E
:0C143A00A80808E6B5020C08E6B5030798
:0714460008E6B50402802155
:0B144D00BA0008BB0005BC00028016BE
:0E1458008A828B838CF012AE67FAA312AE6705
:08146600FBA312AE67FC80CC71
:0C146E00A80808E6B5020C08E6B5030764
:07147A0008E6B50402800240
:021481008003E6
:0314830002150D42
:0C148600A8080886820886830886F0ED1E
:0B1492001289B2A3EE1289B2A3EF1280
:06149D0089B2A8080890C6
:0D14A300ECE4E6F008A3E6F008A3E6F0A8EC
:0C14B0000808740726FAE40836FB0886DA
:0D14BC00048A828B838CF074011289B2A81F
:0C14C9000808740526FAE40836FB0886C3
:0E14D500048A828B838CF0E41289B2A3E412A5
:0C14E30089B2E50824FBF8E6C0E008E64A
:0C14EF00C0E008E6C0E07481C0E0A8087E
:0E14FB000886820886830886F0121BDFE581D2
:0415090024FCF58148
:06150D00850881D00822D0
:0A151300C008858108C082C083C0B3
:0E151D00F0E5812409F58190ECE7E0FDA3E004
:0C152B00FEA3E0FFE5082407F8A6050871
:0C153700A60608A607A8080886820886F9
:0E154300830886F0121C7AE5828583F045F05D
:05155100700302169971
:0C155600A80808740726FDE40836FE080B
:0D15620086078D828E838FF0E41289B2908F
:0C156F00ECE4E0FDA3E0FEA3E0FFE508D3
:0B157B002404F8A60508A60608A60731
:0C158600E5082404F8B6000A08B60006C8
:0615920008B600028069AA
:0A159800A80808E5082404F986F00D
:0E15A200E7B5F0120886F009E7B5F00A0886F2
:0815B000F009E7B5F002802804
:0C15B800A80808E6C0E008E6C0E008E66D
:0C15C400C0E07487C0E0E5082404F8864D
:0E15D000820886830886F012178EE58124FCBF
:0215DE00F58195
:0C15E000E5082404F8868208868308864B
:0E15EC00F012AE671818F6A312AE6708F6A349
:0715FA0012AE6708F68085C0
:0C160100A80808740326FDE40836FE0863
:0E160D0086078D828E838FF012AE67FAA312CD
:0E161B00AE67FB8A058B067F80BD0008BE000F
:0616290005BF0002806A0B
:0A162F00A80808E50824FBF986F07E
:0E163900E7B5F0120886F009E7B5F00A08865A
:08164700F009E7B5F002804A4A
:0C164F00A8080890ECE7E6F008A3E6F01D
:0C165B0008A3E6F0A80808740526FDE4CA
:0E1667000836FE088607C002C003E4C0E0C0DB
:0C167500E0C0E07483C0E0748FC0E0743B
:0C16810016C0E0C002C0038D828E838F73
:02168D00F02249
:0A168F00E58124FCF581D003D002B0
:0C16990090ECE4E0FAA3E0FBA3E0FCA866
:0C16A5000808E6B5020C08E6B5030708CB
:0616B100E6B50402800210
:0216B70080228F
:0E16B9008A828B838CF012AE67FDA312AE679F
:0E16C700FEA312AE67FF90ECE4EDF0A3EEF090
:0616D500A3EFF0021776FE
:0C16DB008A058B068C07E5082404F8A69D
:0716E7000508A60608A6078E
:0C16EE00E5082404F8B6000A08B600065F
:0616FA0008B60002807634
:0C170000E5082404F88682088683088629
:0C170C00F012AE67FDA312AE67FEA31240
:0C171800AE67FFA80808E6B5050C08E65F
:0A172400B5060708E6B507028002CB
:02172E00803603
:0C173000A8080886820886830886F0124C
:0A173C00AE67FAA312AE67FBA3121A
:0C174600AE67FCE5082404F886820886E3
:0E175200830886F0EA1289B2A3EB1289B2A3D3
:06176000EC1289B28010BA
:0C176600E5082404F8A60508A60608A65D
:04177200070216EE66
:0C177600E5082407F890ECE7E6F008A373
:0A178200E6F008A3E6F0850881D028
:02178C00082231
:0A178E00C008858108C082C083C036
:0C179800F0A80808740726FDE40836FEDF
:0E17A4000886078D828E838FF012AE67FA20C2
:0517B200E0030218C273
:0C17B700C005C006C007A808087403267F
:0E17C300FAE40836FB0886048A828B838CF0D9
:0E17D10012AE67FAA312AE67FB8A048B057E88
:0E17DF0080BC000FBD000CBE0009D007D00674
:0517ED00D0050218C246
:0C17F200D007D006D005A8080890ECE74E
:0E17FE00E6F008A3E6F008A3E6F08D828E83E5
:0E180C008FF074021289B2C005C006C007A892
:0C181A000808740526FCE40836FD08866A
:0C18260006C003C005C006C007E508248A
:0E183200FAF8E6C0E008E6C0E008E6C0E0E52F
:0A1840000824FDF8E6C0E0745AC069
:0C184A00E07418C0E0C002C0038C828D66
:04185600838EF0226B
:0E185A00AA82E58124FCF581D007D006D005D6
:0E186800D003EA3395E0FBBA020BBB0008D0B8
:0718760007D006D005801623
:0E187D00D007D006D005BA0305BB00028008D4
:08188B00E50824FDF8B68324F2
:0C189300A80808E6C0E008E6C0E008E68F
:0C189F00C0E0A80808868208868308863E
:0C18AB00F0121513158115811581800BBA
:0B18B7008D828E838FF074011289B2C5
:0618C200850881D0082218
:0E18C800AA82AB83ACF090ECE7E0C0E0A3E0B6
:0D18D600C0E0A3E0C0E08A828B838CF0129A
:0918E300151315811581158122F0
:0C18EC0090E0CA748AF090E0CCE4F09028
:0C18F800E0CBF090ECE4F0A3F0A3F09043
:09190400ECE7E4F0A3F0A3F022EB
:0A190D00C0088581080581058105E9
:0E1917008190E1ADE4F090ECE4E0FAA3E0FB97
:0C192500A3E0FCA80808A60208A603081E
:02193100A6040A
:0C193300A80808B6000B08B6000708B6AC
:05193F0000030219BFC6
:0C194400A80808740826FDE40836FE0818
:0E19500086078D828E838FF012AE676042A8EC
:0C195E000808740726FAE40836FB088627
:0E196A00048A828B838CF074011289B28D8204
:0E1978008E838FF0E41289B2E4C0E0C0E0C0BC
:0C198600E07482C0E0A808088682088691
:0D199200830886F012178EE58124FCF58194
:0C199F00A8080886820886830886F012DB
:0D19AB00AE671818F6A312AE6708F6A31277
:0719B800AE6708F6021933C7
:0619BF00850881D008221A
:0819C50090E0CBE0FA70012272
:0C19CD0090E0CCE0FB75F007A4FC24CDFA
:0C19D900F582E434E0F583E090E1AEF02C
:0A19E500EC24CDFCE434E0FD8C821C
:0E19EF008D83A3E0FEA3E0FFA3E0F890E1AF3C
:0E19FD00EEF0A3EFF0A3E8F08C828D83A3A39D
:0E1A0B00A3A3E0FCA3E0FDA3E0FE90E1B2EC9B
:0E1A1900F0A3EDF0A3EEF07C000BBB00010C7F
:0E1A2700C0027420C0E0E4C0E08B828C831209
:0E1A3500BB37AB8215811581D00290E0CCEB5F
:0E1A4300F0EA1490E0CBF090E1B2E0FAA3E0FC
:0E1A5100FBA3E0FCBA0008BB0005BC0002804D
:011A5F000383
:031A6000021AF275
:0E1A630090ECE4E0FDA3E0FEA3E0FF90E1B50F
:081A7100EDF0A3EEF0A3EFF08D
:0E1A790090E1B5E0FDA3E0FEA3E0FFBD000795
:071A8700BE0004BF000122B4
:0A1A8E0090E1ADE0FD600312190DB8
:0E1A980090E1B5E0FDA3E0FEA3E0FF90E1AF1A
:0E1AA600E0C0E0A3E0C0E0A3E0C0E090E1AE4D
:0E1AB400E0C0E08D828E838FF012178EE581E8
:0E1AC20024FCF58190E1B5E0FDA3E0FEA3E079
:0D1AD000FF8D828E838FF012AE67FDA31292
:091ADD00AE67FEA312AE67FF9094
:0C1AE600E1B5EDF0A3EEF0A3EFF0808777
:0E1AF20090E1AEE0FDBD811474072AFEE43BD6
:0E1B0000FF8C008E828F8388F074011289B2F0
:0E1B0E0090E1AFE0C0E0A3E0C0E0A3E0C0E0E3
:0E1B1C00C0058A828B838CF012178EE581241F
:041B2A00FCF5812223
:0A1B2E0090E1ADE0FA600312190D1A
:0B1B38001219C590E0CBE0FA7B009092
:0E1B4300E1ADE0FC7D00EC2AFAED3B8A82F574
:021B51008322ED
:0E1B530090E0CBE0FA7B0090E1ADE0FC7D007D
:0A1B6100EC2AFAED3B8A82F583229C
:0A1B6B00C008858108AA82AB83AC94
:0E1B7500F090E0CBE0FDBD200590000180590E
:0E1B830090E0CCE0FEED2E541FFE90E1B8F095
:0C1B9100EE75F007A4FE24CDF582E434CC
:0A1B9D00E0F583E50824FDF8E6F00A
:0A1BA700EE24CDFEE434E0FF8E8250
:0C1BB1008F83A3E50824FAF8E6F0A308EF
:0E1BBD00E6F0A308E6F08E828F83A3A3A3A315
:0E1BCB00EAF0A3EBF0A3ECF090E0CBED04F019
:031BD90090000079
:031BDC00D008220C
:0A1BDF00C008858108AA82AB83AC20
:0E1BE900F090ECE7E0FDA3E0FEA3E0FFC005F6
:0C1BF700C006C007E50824FAF8E6C0E0CC
:0C1C030008E6C0E008E6C0E0E50824FDAB
:0E1C0F00F8E6C0E08A828B838CF012178EE517
:0E1C1D008124FCF581D007D006D00590ECE7BD
:0B1C2B00EDF0A3EEF0A3EFF0D00822D4
:0E1C3600AA82AB83ACF0BA0007BB0004BC006E
:021C440001227B
:0E1C460074072AFDE43BFE8C078D828E838F8F
:0A1C5400F012AE67FDBD010280032F
:031C5E00BD0218AC
:0E1C610074082AFAE43BFB8A828B838CF074B1
:0A1C6F00011289B290E1AD7401F09A
:011C79002248
:0E1C7A00AA82AB83ACF074072AFAE43BFB8A23
:0E1C8800828B838CF012AE67FAE4BA0001047E
:041C9600FAB401009B
:0A1C9A00E433FA7B008A828B832278
:03DEA2000000007D
:03DEA5000000007A
:0A1CA400C008858108C082C083C01B
:0C1CAE00F0E581240BF581E5082404FD1D
:0C1CBA007E007F40E50824FBF8E6C0E057
:0E1CC60008E6C0E008E6C0E08D828E838FF055
:0C1CD400123CAE158115811581E5082435
:0C1CE00004FDE50824FBF8A605087600CA
:0E1CEC0008764012755E127921AD82AE83AF8C
:0C1CFA00F0E5082406F8A60508A6060878
:0C1D0600A607900006127915E5082406D7
:0E1D1200F8740426FAE40836FB0886048A8278
:0C1D20008B838CF0E41289B2E5082406E5
:0C1D2C00F8E5082409F9740226F7E40821
:0C1D38003609F70809E6F7A808087461EE
:0E1D440026FDE40836FE0886078D828E838F0A
:0B1D5200F012AE67FAA312AE67FBE5CB
:0C1D5D00082409F886820886830886F0B6
:0A1D6900EA1289B2A3EB1289B2E579
:0C1D7300082406F8740526FAE40836FB84
:0E1D7F000886048A828B838CF074331289B23A
:0C1D8D00C005C006C007E50824FBF8E60E
:0C1D9900C0E008E6C0E008E6C0E0E50895
:0E1DA5002406F886820886830886F0123CAE7B
:0E1DB300158115811581D007D006D0058D82CF
:0E1DC1008E838FF012AE67FDA312AE67FEC0D8
:0C1DCF0005C006A8080886820886830864
:0C1DDB0086F0126DE815811581A808083B
:0E1DE700746126FAE40836FB0886048A828BB3
:0E1DF500838CF012AE67FDA312AE67FE0DBD2B
:031E030000010ECD
:0D1E06008A828B838CF0ED1289B2A3EE125C
:061E130089B2850881D0B0
:021E190008229D
:0A1E1B00C008858108C082C083C0A2
:0C1E2500F005810581E5082404FD7E0025
:0C1E31007F40E50824FBF8E6C0E008E66E
:0D1E3D00C0E008E6C0E08D828E838FF012B9
:0C1E4A003CAE15811581158112755EE516
:0A1E5600082404FDE50824FBF8A6AB
:0E1E600005087600087640127921AD82AE8327
:0E1E6E00AFF0900008C005C006C0071279153D
:0E1E7C00D007D006D0058D828E838FF0E41241
:0E1E8A0089B274012DFAE43EFB8F04C005C03E
:0C1E980006C007E50824FBF8E6C0E008DF
:0E1EA400E6C0E008E6C0E08A828B838CF01274
:0E1EB2003CAE158115811581D007D006D005F4
:0E1EC00074032DFAE43EFB8F04C005C006C07B
:0A1ECE000774C8C0E074E1C0E0E44E
:0E1ED800C0E08A828B838CF0123CAE1581151F
:0E1EE600811581D007D006D00574052DFAE4D1
:0D1EF4003EFB8F048A828B838CF0743312C6
:0E1F010089B274062DFDE43EFE8D828E838F24
:0C1F0F00F0E50824F9F8E61289B2A308F6
:0C1F1B00E61289B2E50824FBF886820873
:0E1F270086830886F0124601AA82AB83ACF0D6
:0D1F3500EA4B4C602A74052AFAE43BFBA835
:0C1F42000808743626FDE40836FE088608
:0E1F4E0007C002C003C0048D828E838FF01284
:081F5C0070B615811581158195
:061F6400850881D008226F
:0A1F6A00C008858108AA82AB83AC91
:0C1F7400F0E4C0E0E50824F6F8E6C0E068
:0D1F800008E6C0E008E6C0E008E6C0E0E5C5
:0C1F8D000824FBF8E6C0E008E6C0E0080D
:0E1F9900E6C0E08A828B838CF0124373E581F0
:071FA70024F8F581D00822A7
:0A1FAE00C008E581F5082406F5815E
:0C1FB800AA82AB83ACF0E50824FBF8869D
:0C1FC40005088606A80808A60508A60661
:071FD000E50824FDF8860777
:0E1FD7008F051FED602FC00774042AFDE43B48
:0E1FE500FE8C078D828E838FF012AE67FDA3F7
:0C1FF30012AE67FEA80808ED26F6EE0806
:0D1FFF0036F674062AFAE43BFBD00780CBCF
:0C200C00A80808868208868312A07AAA21
:0C20180082AB83ACF0FDE5082403F8A6C1
:0C2024000208A60308A60408A605E508AB
:0E20300024FDF886067F0074012EFAE43FFBC3
:0E203E00C002C0038E828F83128A2AAA82AB50
:0E204C0083158115818A828B8312A07AAA8265
:0E205A00AB83ACF0FDC002C003C004C005E5BE
:0C206800082403F886820886830886F0AE
:0E20740008E612AC5FAA82AB83ACF0FDE581FA
:0C20820024FCF581E5082403F8A6020800
:0C208E00A60308A60408A605E508240324
:0C209A00F886820886830886F008E68538
:0520A6000881D00822B2
:0A20AB00C008E581F508240BF5815B
:0C20B500AA82AB83ACF0E50824FAF886A0
:0A20C100058D067F001EBEFF011F03
:0D20CB00C002C003C004C005C006C00790DD
:0E20D8000006128A2AAE82AF8315811581D0D0
:0E20E60005D004D003D002EE2AFAEF3BFB90A7
:0E20F400ECE3E0FE6025C002C003C004C0059E
:0A210200746CC0E074DCC0E074806F
:0E210C00C0E012A8F1158115811581D005D013
:05211A0004D003D00217
:0C211F00E5082405F8A60208A60308A69F
:01212B0004AF
:09212C008D061DEE700302229DD8
:0C213500C005E5082405F8740226FEE44D
:0D2141000836FF0886058E828F838DF01210
:0E214E00AE67FEA312AE67FF8E828F83C005C0
:0D215C0012A092AA82AB83ACF0FED005A8C1
:0C2169000808A60208A60308A60408A6A1
:0E21750006E4C0E0C0E074C8C0E07442C0E000
:0C218300A8080886820886830886F008F9
:0E218F00E612AC5FAD82AE83AFF0FAE58124BC
:0C219D00FCF581A80808A60508A60608A5
:0E21A900A60708A60290ECE3E0FAD005EA7063
:0421B7000302228C71
:0C21BB00C005E5082405F8740426FAE4C9
:0D21C7000836FB0886048A828B838CF01298
:0921D400AE67FAA312AE67FBA886
:0C21DD00080886820886830886F008E661
:0C21E900C002C003C0051271D1C8E50897
:0C21F500240AC8A68208A683A808088651
:0E220100820886830886F008E61271CEC8E5D2
:0C220F00082408C8A68208A683D005D0C9
:0C221B0003D002E5082405F8740126FD3C
:0E222700E40836FF0886048D828F838CF01247
:0C223500AE67FD7C00E5082405F88682F9
:0E2241000886830886F012AE67FE7F00C00597
:0C224F00C002C003E508240AF8E6C0E065
:0C225B0008E6C0E0E5082408F8E6C0E052
:0D22670008E6C0E0C005C004C006C0077452
:0A22740084C0E074DCC0E07480C098
:0E227E00E012A8F1E58124F3F581D005D0052A
:0C228C00E5082405F8E624FAF608E6341C
:05229800FFF602212CFD
:0A229D0090ECE3E0FA700302235016
:0C22A700E50824F6F88682088683088685
:0C22B300F008E61271D1C8E5082408C844
:0C22BF00A68208A683E50824F6F88682B3
:0D22CB000886830886F008E61271CEC8E58B
:0A22D80008240AC8A68208A683E5C0
:0C22E2000824FBF886060886070886041E
:0E22EE0074012EFDE43FFA8C038D828A838BEF
:0E22FC00F012AE67FD7A008E828F838CF01296
:0C230A00AE67FE7B00E5082408F8E6C082
:0C231600E008E6C0E0E508240AF8E6C094
:0C232200E008E6C0E0E50824F4F8E6C09E
:0E232E00E008E6C0E0C005C002C006C00374AF
:0A233C009DC0E074DCC0E07480C0B6
:0A234600E012A8F1E58124F3F5810F
:06235000850881D008227F
:0A235600C008E581F5082418F581A0
:0D236000AA82AB83ACF0C002C003C004121F
:0E236D007921AD82AE83AFF0D004D003D00250
:0C237B00A80808A60508A60608A607E5A5
:0C238700082406F8EA24CAF6EB34FF082C
:0C239300F608A604A80808740526FAE461
:0D239F000836FB0886048A828B838CF012BE
:0823AC00AE67FABA33028003A8
:0323B40002278C71
:0C23B700A8080886820886830886F012B9
:0C23C300AE67FA0AA80808868208868324
:0E23CF000886F0EA1289B275F006A42408FA16
:0C23DD00E435F0FB8A828B83127915A88E
:0A23E9000808E508240CF974082622
:0C23F300F7E4083609F70809E6F7A80827
:0E23FF000886820886830886F012AE6775F0A5
:0C240D0006A4FAABF0E508240CF8EA265F
:0C241900FAEB0836FB088604E5082409ED
:0E242500F8EA24FAF6EB34FF08F608A6047471
:0A243300C8C0E074E1C0E0E4C0E0BE
:0C243D00E5082409F886820886830886DA
:0C244900F0123CAE158115811581E508EC
:0E2455002409F8740226FAE40836FB0886040F
:0E246300C002C003C004125E58AD82AE83D02A
:0D24710004D003D0028A828B838CF0ED1220
:08247E0089B2A3EE1289B2E558
:0C248600082409F8740426FAE40836FB68
:0D249200088604758204C002C003C0041255
:0E249F007B6EAD82AE83D004D003D0028A8261
:0E24AD008B838CF0ED1289B2A3EE1289B2A8D7
:0C24BB000808740626FAE40836FB0886C0
:0D24C700048A828B838CF012AE67FDA31295
:0C24D400AE67FEA8080886820886830810
:0E24E00086F012AE67FFC002C003C004C00544
:0C24EE00C006C007E508240CF886820830
:0C24FA0086830886F0121FAEC8E5082497
:0E2506000FC8A68208A68308A6F008F6158165
:0C25140015811581D004D003D002E50829
:0E252000240F8A828B838CF012AE67FBA3120D
:0C252E00AE67FCA80808868208868308B7
:0C253A0086F012AE67FAA80808740326A9
:0D254600FDE40836FE088607C003C004E56A
:0C25530008240FF8E6C0E008E6C0E0082D
:0E255F00E6C0E008E6C0E0C002C005C006C04D
:0C256D0007E508240CF886820886830825
:0C25790086F01220ABE58124F6F581E528
:0A25850008240FF8E5082415F9E614
:0E258F00F70809E6F70809E6F708E6B2E709DB
:0C259D00F7A80808740326FEE40836FFC7
:0C25A900088602E4C0E0E5082415F8E60E
:0E25B500C0E008E6C0E008E6C0E008E6C0E0CE
:0C25C300E50824FBF8E6C0E008E6C0E0F4
:0E25CF0008E6C0E08E828F838AF0124373E527
:0C25DD008124F8F581A80808740126FA92
:0C25E900E40836FB08860474C8C0E074E7
:0C25F500E1C0E0E4C0E08A828B838CF03F
:0E260100123D17AA82AB83158115811581EA5F
:06260F004B7003022712CC
:0C26150090E1B9E4F0E5082406F87448F0
:0E26210026FAE40836FB0886048A828B838C36
:0C262F00F01254E3E5082406F87463265A
:0E263B00FAE40836FB0886048A828B838CF052
:0B26490012AE67FDA312AE67FEA312E5
:0E265400AE67FF8D828E838FF012AE67FDA3FE
:0A26620012AE67FE4D700302278CD4
:0A266C00A80808E5082415F9740316
:0C26760026F7E4083609F70809E6F7E546
:0C268200082413FD7E007F40C002C0034E
:0C268E00C004E5082415F8E6C0E008E6EA
:0D269A00C0E008E6C0E08D828E838FF01254
:0E26A7003CAE158115811581D004D003D00200
:0E26B5008A828B838CF012AE67FAA312AE6796
:0D26C300FBA312AE67FC8A828B838CF012A1
:0926D000AE67FAA312AE67FBE548
:0C26D900082413FC7D007E40C002C003FA
:0B26E500C004C005C0067405C0E0740E
:0A26F00027C0E0C002C003E5082483
:0B26FA0006F886820886830886F0221E
:0D270500158115811581D003D00202278CAB
:0C271200A80808740126FAE40836FB0849
:0C271E008604E5082404FD7E007F40C016
:0E272A0002C003C0048D828E838FF0123CAE7D
:0C273800158115811581A8080874012680
:0E274400FAE40836FB0886048A828B838CF048
:0E275200124601AA82AB83ACF0EA4B4C602C1D
:0C27600074052AFAE43BFBE5082406F8A7
:0E276C00743626FDE40836FE088607C002C05B
:0E277A0003C0048D828E838FF01270B615811D
:042788001581158121
:06278C00850881D008223F
:0A279200C008858108C082C083C022
:0E279C00F0E5812411F581127921AD82AE8322
:0C27AA00AFF0E5082404F8A60508A60618
:0A27B60008A607A80808E508240794
:0C27C000F9E6F70809E6F70809E6F7E576
:0C27CC00082404F8740526FAE40836FB23
:0E27D8000886048A828B838CF012AE67FABAF0
:0427E6003302800634
:0627EA00900000022B909C
:0C27F000A80808745D26FAE40836FB080F
:0C27FC008604E50824F8F8E6C0E008E6D2
:0D280800C0E008E6C0E08A828B838CF012ED
:0E2815003D17AA82AB83158115811581EA4B10
:0C2823006047A80808745F26FAE4083635
:0E282F00FB0886048A828B838CF012AE67FA57
:0C283D00A312AE67FBE5082404F8740247
:0E28490026FCE40836FD0886068C828D838E00
:0E285700F012AE67FCA312AE67FDEAB50407EF
:07286500EBB50503022B8D0A
:0C286C00E5082407F8745D26FAE408363D
:0C287800FB088604E50824F8F8E6C0E040
:0E28840008E6C0E008E6C0E08A828B838CF094
:0C289200123CAE158115811581E508246B
:0E289E0007F8745F26FAE40836FB088604E5A6
:0C28AC00082404F8740226FDE40836FE3F
:0E28B8000886078D828E838FF012AE67FDA317
:0E28C60012AE67FE8A828B838CF0ED1289B20F
:0A28D400A3EE1289B274C8C0E074CC
:0A28DE00E1C0E0E4C0E0E5082404D6
:0E28E800F886820886830886F0123D17AA82C1
:0D28F600AB83158115811581EA4B7003023B
:022903002A4068
:0A29050090ECE3E0FA70030229CB26
:0A290F00E50824F5F8E508240AF9AC
:0C291900E6F7097700E50824FBF88604C7
:0E29250008860508860674012CFFE43DFA8E34
:0C293300038F828A838BF012AE67FFE5F1
:0C293F0008240EF8A6070876008C828D94
:0C294B00838EF012AE67FCE508240CF847
:0C295700A604087600E50824F8F88605C0
:0E29630008860608860374012DFCE43EFA8BFC
:0E297100078C828A838FF012AE67FC7A008D8D
:0C297F00828E838BF012AE67FD7B00E5BA
:0C298B0008240AF8E6C0E008E6C0E0E519
:0C29970008240EF8E6C0E008E6C0E0E509
:0C29A30008240CF8E6C0E008E6C0E0C024
:0C29AF0004C002C005C00374B9C0E0748D
:0C29BB00DCC0E07480C0E012A8F1E581EF
:0429C70024F3F5817F
:0E29CB00E4C0E0C0E07480C0E074BFC0E0E58E
:0A29D9000824F5F8E6C0E0E5082444
:0E29E300FBF8E6C0E008E6C0E008E6C0E0E56C
:0C29F1000824F8F886820886830886F027
:0D29FD00121F6AE58124F8F581758204122D
:0C2A0A007B6EAA82AB83C002C003E5080B
:0E2A160024F8F8E6C0E008E6C0E008E6C0E0FC
:0C2A2400E5082407F886820886830886EF
:0E2A3000F0121E1BE58124FBF58190000002D0
:022A3E002B90DB
:0A2A400090ECE3E0FA7003022B4D66
:0A2A4A00E50824F5F8E508240EF96C
:0C2A5400E6F7097700E50824FBF886048B
:0E2A600008860508860674012CFFE43DFA8EF8
:0C2A6E00038F828A838BF012AE67FFE5B5
:0C2A7A0008240AF8A6070876008C828D5C
:0C2A8600838EF012AE67FCE508240CF80B
:0C2A9200A604087600E50824F8F8860584
:0E2A9E0008860608860374012DFCE43EFA8BC0
:0E2AAC00078C828A838FF012AE67FC7A008D51
:0C2ABA00828E838BF012AE67FDE50824CD
:0C2AC60010F8A605087600E5082404F8C6
:0E2AD200740126FEE40836FF0886038E828F0C
:0C2AE000838BF012AE67FE7B00E508243B
:0E2AEC0004F886820886830886F012AE67FD25
:0C2AFA007F00E508240EF8E6C0E008E6C6
:0C2B0600C0E0E508240AF8E6C0E008E69C
:0C2B1200C0E0E508240CF8E6C0E008E68E
:0C2B1E00C0E0C004C002E5082410F8E686
:0E2B2A00C0E008E6C0E0C006C003C005C0075A
:0A2B380074F8C0E074DCC0E07480A3
:0B2B4200C0E012A8F1E58124EFF5814E
:0E2B4D00E4C0E0C0E07480C0E074BFC0E0E50A
:0A2B5B000824F5F8E6C0E0E50824C0
:0E2B6500FBF8E6C0E008E6C0E008E6C0E0E5E8
:0C2B73000824F8F886820886830886F0A3
:0E2B7F00121F6AE58124F8F5819000018003A1
:032B8D00900000B5
:062B9000850881D0082237
:0A2B9600C008858108C082C083C01A
:0A2BA000F0743DC0E074DDC0E07485
:0C2BAA0080C0E0E50824FAF8E6C0E0086E
:0C2BB600E6C0E0E50824FCF8E6C0E008FA
:0C2BC200E6C0E0A80808868208868308A8
:0C2BCE0086F0126D60E58124F9F581E5C8
:0C2BDA000824FAF8740126FDE40836FE19
:0C2BE600A80808743626FFE40836FA0838
:0A2BF20086037439C0E074DDC0E012
:0E2BFC007480C0E0C005C0068F828A838BF013
:0C2C0A00127031E58124FBF581A8080858
:0E2C1600746326FAE40836FB0886048A828B73
:0C2C2400838CF0E50824F7F8E61289B272
:0D2C3000A308E61289B2A308E61289B28556
:052C3D000881D008220F
:0E2C4200AA82AB83ACF074362AFDE43BFE8C14
:0E2C5000078D828E838FF0C002C003C0041275
:0E2C5E0070B3D004D003D0028A828B838CF036
:0E2C6C00C002C003C004126DE5D004D003D036
:0E2C7A000274482AFAE43BFB8A828B838CF0BA
:032C88000254E310
:0E2C8B00AA82AB83ACF090E1B9E4F074632A46
:0D2C9900FDE43BFE8C078D828E838FF012D0
:0A2CA600AE67FDA312AE67FEA31295
:0E2CB000AE67FF74022DFDE43EFE8D828E8322
:0E2CBE008FF012AE67FDA312AE67FE4D601BD5
:0A2CCC00C005C00674E3C0E0742CDC
:0D2CD600C0E0C005C0068A828B838CF0220E
:042CE300D006D00542
:012CE70022CA
:0A2CE800C008858108AA82AB83AC06
:0E2CF200F090E1B9E0FD6006900000022DD0E8
:0E2D000090ECE3E0FD6063C002C003C004E598
:0C2D0E000824FBF88605088606088607E6
:0E2D1A0074012DFAE43EFB8F048A828B838CB9
:0E2D2800F012AE67FA7B008D828E838FF01260
:0E2D3600AE67FD7C00C002C003C004C002C036
:0A2D440003C005C0047443C0E0742E
:0C2D4E00DDC0E07480C0E012A8F1E58157
:0E2D5A0024F9F581D004D003D002D004D003B8
:022D6800D00297
:0E2D6A0074482AFDE43BFE8C07C002C003C083
:0C2D780004C002C003C004748BC0E074EF
:0A2D84002CC0E0E50824F9F8E6C0D1
:0E2D8E00E008E6C0E08D828E838FF0125226A0
:0D2D9C00E58124F9F581D004D003D0029028
:0C2DA900E1B97401F0E50824FBF8E6C075
:0E2DB500E008E6C0E008E6C0E08A828B838C6E
:0D2DC300F0121CA4158115811581900001EE
:032DD000D0082206
:0EDC6C00524F5554455F444953434F5645525D
:0ADC7A00593A207265706C792000A1
:0EDC840025642E2564202825642E2530327557
:0BDC9200562C20256429202D3E200088
:0EDC9D0025642E2564202825642920494E4444
:0EDCAB004558203D2025642E253032750A0094
:0EDCB900524F5554455F444953434F56455210
:0EDCC700593A207265717565737420666F722C
:0EDCD500206D65206F7269672025642E25641E
:0EDCE3002066726F6D2025642E256420686F08
:07DCF10070732025640A0096
:0EDCF800524F5554455F444953434F564552D1
:0EDD0600593A207265717565737420746F2030
:0EDD140025642E2564206F7269672025642E19
:0EDD220025642066726F6D2025642E25642016
:09DD3000686F70732025640A007D
:04DD3900562300006D
:06DD3D0092270000000027
:0EDD4300524F5554455F444953434F56455285
:0EDD5100593A2042726F616463617374696EA7
:0EDD5F0067207265717565737420746F2025DE
:07DD6D00642E25642E0A005C
:0A2DD300C008E581F5082408F58129
:092DDD00E582FA20E003022E76E3
:0E2DE60090E1BAE0FB90E1BBE0FCEB6C30E06A
:0E2DF4001DABE27C00AEE3E4FD2BFBEE3CFCED
:0E2E020090E3ABEBF0A3ECF090E3C07401F0B2
:022E10008064DC
:0C2E120090E3C0E0605EC00290E381A885
:0C2E1E000808E0F6A3E008F6A3E008F6C0
:0E2E2A00A3E008F6ACE27D00AEE38E03E42CDC
:0E2E3800FFEB3DFB90E3ABE0FCA3E0FDEFC33E
:0C2E46009CFFEB9DFB7C007D00A80808B1
:0E2E5200EF26FFEB0836FBEC0836FCED0836E9
:0E2E6000FD90E381EFF0A3EBF0A3ECF0A3ED07
:082E6E00F090E3C0E4F0D00293
:072E7600EA20E103022F0E28
:0E2E7D0090E1BAE0FB90E1BBE0FCEB6C30E1D1
:0E2E8B001DABE27C00AEE3E4FD2BFBEE3CFC55
:0E2E990090E3ADEBF0A3ECF090E3C17401F018
:022EA700806544
:0C2EA90090E3C1E0605FC00290E385E5AB
:0C2EB500082405F8E0F6A3E008F6A3E00E
:0E2EC10008F6A3E008F6ABE27C00AFE3E42BDA
:0E2ECF00FBEF3CFC90E3ADE0FAA3E0FFEBC3A9
:0C2EDD009AFAEC9FFFE4FBFCE5082405DA
:0E2EE900F8EA26FAEF0836FFEB0836FBEC0895
:0E2EF70036FC90E385EAF0A3EFF0A3EBF0A326
:092F0500ECF090E3C1E4F0D0020D
:072F0E00EA20E203022F9FFD
:0E2F150090E1BAE0FA90E1BBE0FBEA6B30E23B
:0E2F23001DAAE27B00ADE3E4FC2AFAED3BFBC5
:0E2F310090E3AFEAF0A3EBF090E3C27401F07E
:022F3F00805EB2
:0A2F410090E3C2E0605890E389A815
:0C2F4B000808E0F6A3E008F6A3E008F692
:0E2F5700A3E008F6AAE27B00AFE3E42AFAEF5B
:0E2F65003BFB90E3AFE0FEA3E0FFEAC39EFE5D
:0C2F7300EB9FFF7A007B00A80808EE2608
:0E2F7F00FEEF0836FFEA0836FAEB0836FB9044
:0E2F8D00E389EEF0A3EFF0A3EAF0A3EBF090DF
:042F9B00E3C2E4F0B9
:0E2F9F0090E1BBE0FA90E1BAE062028A821291
:062FAD0089E7850881D0D0
:022FB3000822F2
:092FB5001289CB90E1BBE4F0901D
:042FBE00E1BAF02262
:0E2FC20090E1BBE0FA90E1BAE06202EAF4FAB4
:0E2FD000F582C002123017900190128AC8D00C
:062FDE00028A8202301796
:032FE4000289CC93
:0D2FE700AA8290E1BAE0FBF4FCEA520490EB
:0A2FF400E1BAEA4BF08C82022DD303
:0D2FFE00AA8290E1BAE0FBEA5BFCEAF490E5
:09300B00E1BA5BF08C82022DD3C6
:0330140002301770
:0D301700AA8290E1BBE06AF08A82022DD30C
:0E302400AA82AB83EA4B6006758201022FE799
:06303200758201022FFE71
:0E303800AA82AB83EA4B6006758202022FE784
:06304600758202022FFE5C
:0E304C00AA82AB83EA4B6006758204022FE76E
:06305A00758204022FFE46
:0430600085C9C92233
:0430640043C9082232
:0E306800740F55C944A0F5C9740F55C94450E2
:03307600F5C92277
:03307900023068BA
:05307C0075C903C2AF9D
:043081000002308198
:0A308500C008E581F5082407F58175
:0E308F0090E1BCE0FAA3E0FBA3E0FCEA4B4CAE
:0C309D00700A90E1BFE4F0A3F002321CC6
:0C30A900128B1AAA82AB83E5082403F8FE
:0E30B500A60208A60390E1BCE0FCA3E0FDA388
:0C30C300E0FEE5082405F8A60408A605B8
:0C30CF0008A606E5082405F8868208869D
:0E30DB00830886F012AE67FFA312AE67FAE517
:0C30E900082405F8740226FBE40836FCFD
:0E30F5000886058B828C838DF012AE67FBA3DC
:0C31030012AE67FCEB2FFFEC3AFAE50877
:0C310F002403F8EFC396FFEA0896FAA824
:0A311B000808A60708A602E508242C
:0E31250005F8740426FCE40836FD0886068CC6
:0E313300828D838EF012AE67FCA312AE67FD94
:0C314100A312AE67FEE5082405F8A60402
:06314D0008A60508A60615
:0C315300E5082405F8B6000B08B60007DC
:07315F0008B600030232086C
:0C316600E5082405F886820886830886A8
:0B317200F012AE67FCA312AE67FDE593
:0C317D00082405F8740226FEE40836FF62
:0E3189000886028E828F838AF012AE67FAA348
:0C31970012AE67FBEA2CFEEB3DFFE508E2
:0C31A3002403F8EEC396FEEF0896FFA888
:0C31AF000808C3EE96EF0896501BEA2CAF
:0C31BB00FCEB3DFDE5082403F8ECC39696
:0C31C700FCED0896FDA80808A60408A668
:0131D30005F6
:0C31D400E5082405F8740426FAE4083627
:0E31E000FB0886048A828B838CF012AE67FA9D
:0B31EE00A312AE67FBA312AE67FCE566
:0C31F900082405F8A60208A60308A60496
:0332050002315340
:09320800E5082403F8A908099067
:0B321100E1BFE726F009E70836A3F054
:06321C00850881D00822A4
:0A322200C008E581F508240CF581D1
:0E322C00AA82AB83ACF07D0112AE67FEA31246
:0B323A00AE67FFBE0005BF0002800B66
:08324500BE5A05BF0002801E05
:03324D0002360F37
:0932500090E1BCE4F0A3F0A3F04E
:0E3259007D008A828B838CF0745A1289B2A396
:04326700E41289B232
:09326B00ED7006758201023621A6
:0A327400E50824FDF8B68702800388
:03327E00023419FE
:0C328100E50824FAF88605088606088691
:0C328D0007E5082407F8A60508A60608B7
:02329900A60786
:0E329B0090E1BCE0FDA3E0FEA3E0FFED4E4F8E
:0E32A900606EC002C003C00474072DFAE43E3C
:0E32B700FB8F048A828B838CF012AE67FAA321
:0A32C50012AE67FBA312AE67FCE532
:0C32CF00082407F8E6B5020C08E6B50379
:0832DB000708E6B504028008B3
:0832E300D004D003D002802EBC
:0E32EB00D004D003D00274042DFDE43EFE8D0D
:0E32F900828E838FF012AE67FDA312AE67FEC9
:0E330700A312AE67FF90E1BCEDF0A3EEF0A3C1
:04331500EFF08082D3
:0E33190090E1BCE0FDA3E0FEA3E0FFED4E4F0F
:053327007003023259A1
:0B332C00A80808A60508A60608A607CA
:0C333700A80808740426FDE40836FE080F
:0C33430086078D828E838FF0E508240A37
:0D334F00F812AE67F6A312AE6708F6A312DF
:0C335C00AE6708F6E508240AF8E608460B
:073368000846700302325910
:0C336F00C002C003C004E508240AF87482
:0E337B000726FAE40836FB0886048A828B8354
:0D3389008CF012AE67FAA312AE67FBA31220
:0C339600AE67FCE5082407F8E6B5020C61
:0C33A20008E6B5030708E6B50402800841
:0833AE00D004D003D0028041DD
:0C33B600E508240AF8740426FAE408363E
:0E33C200FB0886048A828B838CF012AE67FAB9
:0E33D000A312AE67FBA312AE67FC8D828E8344
:0E33DE008FF0EA1289B2A3EB1289B2A3EC12AF
:0B33EC0089B2D004D003D002023337B6
:0E33F7008D828E838FF012AE67FDA312AE673B
:0C340500FEA312AE67FFA80808A6050889
:08341100A60608A607023337E6
:0A341900E50824FDF8B682028003E6
:0334230002325919
:0C342600E5082404F8E4F608F608760037
:0C34320090E1BCE0FDA3E0FEA3E0FFA8D9
:0A343E000808A60508A60608A60760
:0C344800A80808B6000B08B6000708B67C
:053454000003023259E3
:0C345900A8080886820886830886F0C058
:0E34650002C003C004127D91E5828583F0D081
:0C34730004D003D00245F070030235CDF8
:0C347F00C002C003C004A808087407269F
:0E348B00FDE40836FE0886078D828E838FF0E2
:0B34990012AE67FAA312AE67FBA3128D
:0C34A400AE67FCC004C005C006C007A84D
:0C34B0000808E6C0E008E6C0E008E6C03E
:0E34BC00E07488C0E08A828B838CF0121B6B58
:0E34CA00AA82AB83E58124FCF581D007D006F1
:0E34D800D005D004EA4BD004D003D00260032C
:0334E6000235BEEE
:0D34E9008D828E838FF0E41289B2A3E4126D
:0834F60089B2A3E41289B2E5DA
:0C34FE00082404F8E6084608466054C0A4
:0C350A0002C003C004E5082404F87404A7
:0C35160026FDE40836FE088607A8080819
:0E352200740426FAE40836FB0886048A828BBD
:0E353000838CF012AE67FAA312AE67FBA312F3
:0E353E00AE67FC8D828E838FF0EA1289B2A3F5
:0E354C00EB1289B2A3EC1289B2D004D003D0E6
:03355A0002802DBF
:0C355D00A80808740426FDE40836FE08E7
:0E35690086078D828E838FF012AE67FDA3124F
:09357700AE67FEA312AE67FF90DF
:0A358000E1BCEDF0A3EEF0A3EFF0C4
:0C358A00A80808740426FDE40836FE08BA
:0E35960086078D828E838FF0E41289B2A3E443
:0E35A4001289B2A3E41289B2C002C003C004AF
:0C35B200123085D004D003D00202342671
:0E35BE00C002C003C004123627D004D003D0D0
:0135CC0002FC
:0A35CD00A80808E5082404F9E6F751
:0C35D7000809E6F70809E6F7A8080874E0
:0E35E3000426FDE40836FE0886078D828E83DE
:0D35F1008FF012AE67FDA312AE67FEA312AD
:0C35FE00AE67FFA80808A60508A606088E
:05360A00A60702344890
:0D360F008A828B838CF0E41289B2A3E4124E
:05361C0089B275820374
:06362100850881D008229B
:0936270090ECEA75F000021C367B
:0A363000C008858108C082C083C075
:0C363A00F0123627A80808740726FDE4EB
:0D3646000836FE0886078D828E838FF012F5
:0A365300AE67FAA312AE67FBA312E4
:0E365D00AE67FCEA4B4C606290E1BCE0FAA361
:05366B00E0FBA3E0FC00
:0B367000BA0008BB0005BC0002804C43
:0C367B00A80808E6B5020C08E6B5030735
:0736870008E6B50402800211
:02368E008006B4
:063690001230850237260E
:0E369600C005C006C00774042AFDE43BFE8C8C
:0D36A400078D828E838FF012AE67FDA3129A
:0E36B100AE67FEA312AE67FF8D028E038F047C
:0836BF00D007D006D00580A958
:0E36C70090ECE7E0FAA3E0FBA3E0FC8D828E1E
:0E36D500838FF0EA1289B2A3EB1289B2A3EC44
:0C36E3001289B2A80808740426FAE40852
:0E36EF0036FB08860490E1BCE0FDA3E0FEA3DC
:0E36FD00E0FF8A828B838CF0ED1289B2A3EE7F
:09370B001289B2A3EF1289B2A8E1
:0C371400080890E1BCE6F008A3E6F0080D
:06372000A3E6F012308563
:06372600850881D0082295
:0A372C00C008858108AA82AB83ACB7
:0C373600F0C002C003C004E50824FCF849
:0E374200E6C0E008E6C0E08A828B838CF012BD
:0E3750007CDF15811581D004D003D0028A825F
:0A375E008B838CF0123630D0082265
:0D376800AA82AB83ACF0C002C003C0041203
:0E3775007D2DD004D003D0028A828B838CF08D
:03378300023630DB
:0D378600AA82AB83ACF0C002C003C00412E5
:0E3793007D69D004D003D0028A828B838CF033
:0337A100023630BD
:0A37A400C008858108C082C083C000
:0C37AE00F0A8080886820886830886F0D0
:0A37BA0012AE67FDA312AE67FEE534
:0C37C4000824FCF88607088602EF2DFDA3
:0C37D000EA3EFEA80808868208868308EE
:0C37DC0086F0ED1289B2A3EE1289B21241
:0637E8003085850881D048
:0237EE000822AF
:0E37F000AA82AB83ACF074072AFAE43BFB8A92
:0E37FE00828B838CF012AE67FAA312AE67FBCB
:0E380C00A312AE67FCE4BA0007BB0004BC00C8
:02381A000104A7
:09381C00FA3395E08A82F583225B
:0E382500AA82AB83ACF012AE67FDA312AE67B1
:0E383300FE74022AFAE43BFB8A828B838CF03F
:0E38410012AE67FAA312AE67FBEA2DFDEB3E56
:05384F008D82F58322CB
:0D38540012AE67FAA312AE678A82F58322D6
:0E38610090E1BCE0FAA3E0FBA3E0FCE4BA00B7
:08386F0007BB0004BC000104CA
:04387700FAB401009E
:0A387B00E433FA7B008A828B83227B
:0D388500123861E5828583F045F0600A90FD
:09389200E1BFE0FAA3E0FB8004B1
:04389B007A007B0034
:05389F008A828B8322E8
:0A38A400C008858108C082C083C0FF
:0D38AE00F090E1BCE0FDA3E0FEA3E0FFA868
:0C38BB000808E6B5050C08E6B50607088D
:0638C700E6B507028002D5
:0238CD00802E4B
:0E38CF0074042DFAE43EFB8F048A828B838CF6
:0C38DD00F012AE67FAA312AE67FBA31254
:0E38E900AE67FC90E1BCEAF0A3EBF0A3ECF0BC
:0638F70012308502398544
:0B38FD00BD0008BE0005BF00028038BF
:0E39080074042DFAE43EFB8F048A828B838CBC
:0C391600F012AE67FAA312AE67FBA3121A
:0C392200AE67FCA80808E6B5020C08E639
:0A392E00B5030708E6B5040280089F
:083938008A058B068C0780BD97
:0D394000ED4E4F604074042DFDE43EFEA8E6
:0C394D000808740426FAE40836FB08861B
:0D395900048A828B838CF012AE67FAA312F1
:0E396600AE67FBA312AE67FC8D828E838FF0DE
:0C397400EA1289B2A3EB1289B2A3EC1294
:0539800089B212308540
:0C398500A80808740426FAE40836FB08C1
:0E39910086048A828B838CF0E41289B2A3E450
:09399F001289B2A3E41289B2A856
:0C39A8000808740726FAE40836FB0886BD
:0E39B400048A828B838CF0E41289B2A3E412A1
:0839C20089B2A3E41289B28569
:0539CA000881D0082275
:09DEA8000000002232000000001D
:0939CF00125A73AA82AB83ACF01A
:0E39D800EA4B4C605E74052AFDE43BFE8C0752
:0E39E6008D828E838FF012AE67FDA312AE6746
:0E39F400FEC002C003C004C005C0067401C0BE
:0A3A0200E0E4C0E07416C0E0743A7E
:0A3A0C00C0E0C005C0069000812252
:0E3A160015811581D006D005D004D003D00252
:0E3A24008A828B838CF0125A85AD82AE83AFFE
:093A3200F08D028E038F04809DCB
:0E3A3B00AAE27B00ADE37C00EC2AFAED3BFB37
:0E3A490090E3B9EAF0A3EBF090E3C77401F04C
:013A5700224C
:0A3A5800C008E581F5082404F5819B
:093A6200125A73AA82AB83ACF086
:0E3A6B00EA4B4C605C74052AFDE43BFE8C07C0
:0E3A79008D828E838FF012AE67FDA312AE67B2
:0E3A8700FEC002C003C004C005C006E4C0E0DB
:0A3A9500C0E074A7C0E0743AC0E07E
:083A9F00C005C0069000812261
:0E3AA70015811581D006D005D004D003D002C1
:0E3AB5008A828B838CF0125A85AD82AE83AF6D
:093AC300F08D028E038F04809F38
:0A3ACC0090E3C7E0605A90E39DA864
:0C3AD6000808E0F6A3E008F6A3E008F6FC
:0E3AE200A3E008F6AAE27B00AFE37E00EE2A26
:0E3AF000FAEF3BFB90E3B9E0FEA3E0FFEAC370
:0C3AFE009EFEEB9FFF7A007B00A80808EA
:0E3B0A00EE26FEEF0836FFEA0836FAEB083624
:0E3B1800FB90E39DEEF0A3EFF0A3EAF0A3EB29
:063B2600F090E3C7E4F09B
:063B2C00850881D008228B
:03DEB1004CDE80C4
:03DEB40048DC80C7
:06DEB70051DC80000000B8
:033B32000270F529
:0A3B3500C00885810805810581AAFA
:0C3B3F0082AB83ACF0A80808E4F608F69E
:0E3B4B0090E1C5E0FFA3E0FDA3E0FEEF4D4ECC
:0A3B59007008A8080876010876003D
:0E3B630074022AFDE43BFE8C078D828E838F58
:0C3B7100F0E50824F8F8E61289B2A30879
:0E3B7D00E61289B274042AFDE43BFE8C078D2B
:0C3B8B00828E838FF0E50824F5F8E61226
:0C3B970089B2A308E61289B2A308E61266
:0C3BA30089B28A828B838CF0E50824FC38
:0C3BAF00F8E61289B2A308E61289B29071
:0C3BBB00E1C5EAF0A3EBF0A3ECF0A808D1
:0C3BC70008B6011108B6000DE50824FC4A
:093BD300F8868208868312710E47
:093BDC00900000850881D0082248
:0A3BE500C0088581080581058105EF
:0E3BEF008190E1C5E0FAA3E0FBA3E0FCEA4B05
:063BFD004C7003023CA81D
:0C3C0300A80808A60208A60308A6049062
:0C3C0F00E1C5E4F0A3F0A3F0A8080874DD
:0E3C1B000226FDE40836FE0886078D828E83A1
:0C3C29008FF012AE67FDA312AE67FEA87C
:0C3C35000808740426FFE40836FA08862C
:0D3C4100038F828A838BF012AE67FFA312FF
:0E3C4E00AE67FAA312AE67FBC005C006C00742
:0A3C5C00C002C0037478C0E0743C9D
:0C3C6600C0E0C005C006A808088682085F
:063C720086830886F022A3
:0E3C7800158115811581D006D00590E1C5E0BB
:0E3C8600FAA3E0FBA3E0FCEA4B4C60168A8236
:0E3C94008B838CF012AE67FAA312AE67FB8A28
:063CA200828B8312710EFB
:063CA800850881D008220E
:0A3CAE00C008858108C082C083C0F1
:0A3CB800F00581E5082404F8760009
:083CC200E5082404F8B6020035
:0A3CCA005045A80808E5082404F995
:0C3CD400E726FEE40836FF088602E5083B
:0C3CE00024FBF88603088604088605E52E
:0C3CEC00082404F8E62BFBE43CFC8B826F
:0E3CF8008C838DF012AE67FB8E828F838AF074
:0B3D06001289B2E5082404F80680B121
:063D1100850881D00822A4
:0A3D1700C008858108C082C083C087
:0A3D2100F00581E5082404F876009F
:083D2B00E5082404F8B60200CB
:0A3D33005051A80808E5082404F91F
:0C3D3D00E726FEE40836FF088602E508D1
:0C3D490024FBF88603088604088605E5C4
:0C3D5500082404F8E62BFBE43CFC8E8202
:0E3D61008F838AF012AE67FE8B828C838DF00A
:0A3D6F0012AE67FBEEB503028005FB
:053D7900900000800B2A
:083D7E00E5082404F80680A505
:033D8600900001A9
:063D8900850881D008222C
:0D3D8F00AA82AB83ACF0C002C003C0049058
:0E3D9C00E1C875F000123CAE1581158115814D
:013DAA0022F6
:02DD74000000AD
:0A3DAB00C008858108C082C083C0F3
:0B3DB500F0E581240FF581A80808E567
:0C3DC000082404F9E6F70809E6F70809F2
:0E3DCC00E6F775821A127BBDAD82AE83AFF0B2
:0C3DDA00E5082407FA7B007C40C005C00F
:0E3DE60006C0078A828B838CF0123CAE1581DA
:0E3DF4001581158175821B127BBDAA82AB83DF
:0C3E0200ACF0E5082409FD7E007F40C004
:0E3E0E0002C003C0048D828E838FF0123CAE82
:0E3E1C0015811581158175821B127BBDAA824E
:0A3E2A00AB83ACF074C8C0E074E193
:0E3E3400C0E0E4C0E08A828B838CF0123D1760
:0E3E4200AA82AB83158115811581EA4B7003AE
:033E5000023EE44B
:0C3E5300A80808741226FAE40836FB08E0
:0E3E5F0086048A828B838CF012AE67FAA3125F
:0E3E6D00AE67FBA312AE67FC8A828B838CF0DB
:0D3E7B0012AE67FAA312AE67FB4A70030295
:023E88004001F7
:0E3E8A00758213C002C003127B6EAC82D0039F
:0C3E9800D002E5082407FD7E007F40C03A
:0C3EA40002C003C004E50824FBF8E6C0DF
:0E3EB000E008E6C0E008E6C0E0C005C006C0BD
:0A3EBE000774D7C0E0743EC0E0C0F6
:0C3EC80002C003A8080886820886830850
:033ED40086F02253
:0D3ED700E58124F9F581D003D002024001FD
:0C3EE4007A007B007C00A80808741226FD
:0E3EF000FDE40836FE0886078D828E838FF073
:0B3EFE0012AE67FDA312AE67FEA31218
:0E3F0900AE67FF74022DFDE43EFE8D828E83B6
:0C3F17008FF0E508240BF812AE67F6A34B
:0C3F230012AE6708F6E508240BF8E6086B
:063F2F00467003023FE0B2
:0C3F3500758213127B6EAF828F02E508CC
:0C3F41002409FDE508240DF8A60508760B
:0C3F4D0000087640E5082407FD7E007F98
:0C3F590040C002E50824FBF8E6C0E008C8
:0C3F6500E6C0E008E6C0E0E508240DF826
:0E3F7100E6C0E008E6C0E008E6C0E0C005C01B
:0A3F7F0006C00774A2C0E0743FC042
:0C3F8900E0E508240BF8E6C0E008E6C004
:0C3F9500E0A8080886820886830886F0F1
:013FA10022FD
:0E3FA200AD82AE83AFF0E58124F6F5818D028D
:0E3FB0008E038F04758213C002C003C004127A
:0E3FBE007B6EE5828583F02401FDE435F0FE84
:0E3FCC00C005C006758213127B4B158115814E
:063FDA00D004D003D00268
:0C3FE000EA4B4C601CC002C003C004E5AA
:0C3FEC00082404F886820886830886F00A
:093FF8001270B6158115811581C6
:06400100850881D00822B1
:0A400700C008858108AA82AB83ACD3
:0C401100F0C002C003C0047482C0E07460
:0A401D00DDC0E07480C0E0E5082477
:0E402700FCF8E6C0E008E6C0E08A828B838CDD
:0C403500F0127031E58124FBF5817476F7
:0B404100C0E074DDC0E07480C0E0E56A
:0C404C000824FCF8868208868312587055
:0E405800158115811581D004D003D002741299
:0C4066002AFAE43BFB8A828B838CF0E595
:0C4072000824F9F8E61289B2A308E6124F
:09407E0089B2A308E61289B2D050
:0240870008220D
:034089000270B30F
:0A408C00C008858108C082C083C00F
:0C409600F0A80808741226FDE40836FEAD
:0E40A2000886078D828E838FF012AE67FAA318
:0E40B00012AE67FBA312AE67FC74022AFAE49C
:0E40BE003BFB8A828B838CF012AE67FAA31252
:0C40CC00AE67FB4A70069000000241D570
:0E40D800C005C006C007127607D007D006D07C
:0D40E600058D828E838FF012AE67FDA31250
:0E40F300AE67FEA312AE67FF74022DFDE43E21
:0D410100FE8D828E838FF012AE67FDA3123B
:0E410E00AE67FEE4C0E0E4C0E0C0E0C0E0E563
:0C411C000824FBF8E6C0E008E6C0E0085C
:0A412800E6C0E074C8C0E074E1C016
:0A413200E0E4C0E0744EC0E0744108
:0C413C00C0E0C005C006A8080886820884
:0641480086830886F022C8
:0E414E00AD82AE83AAF0E58124F6F5818D04E2
:0C415C008E03EC4B4A7005900000806D53
:0C416800C002C003C004E50824FBF8E618
:0E417400C0E008E6C0E008E6C0E075821B125D
:0C4182007B8415811581158174C8C0E094
:0B418E0074E1C0E0E4C0E075821A128A
:0E4199007B841581158115817401C0E0E4C09E
:0E41A700E0758213127B4B15811581D004D078
:0C41B50003D002C004C003C002A8080828
:0E41C10086820886830886F01270B615811576
:0641CF0081158190000142
:0641D500850881D00822DC
:0CDD76001A101B101305191018100000E3
:04DD8200AB3D0000B5
:0D41DB0043FE0A43FD0443F3E075820E022B
:0241E80041EAAA
:0C41EA00AA827B01C0E0C0A8C2AF7C002C
:0341F600BC080002
:0E41F9005025EB5AFDEC6010ED600D8CF005CA
:04420700F0ED800254
:02420B00C313DB
:04420D00D5F0FBFDF0
:0E421100ED24FF9282D293C293EB2BFB0C8024
:01421F00D6C8
:0E422000D291C291D0E053E080E5E042A8D0F8
:07422E00E090E1CAEAF02272
:0742350090E1CAE0F58222CE
:0E423C0090ED02E0FAA3E0FBA3E0FC8A828B87
:0C424A00838CF0124977AA82AB83ACF0A1
:0C425600BA0009BB0006BC000302430ACA
:0E426200740C2AFDE43BFE8C07C002C003C0B2
:0E427000048D828E838FF012AE67FA0A8D8263
:0E427E008E838FF0EA1289B290ED0FE0FBA361
:0E428C00E0FC7D00C3EA9BED64808CF063F0E3
:0E429A008095F0D004D003D002404D90ED028C
:0E42A800E0FDA3E0FEA3E0FFC002C003C004DF
:0D42B600C002C003C0048D828E838FF01201
:0E42C3004CC4158115811581D004D003D002A2
:0D42D100C002C003C004C002C003C00490BE
:0E42DE00ED0575F000128626158115811581FB
:0642EC00D004D003D00253
:0E42F2008A828B838CF0124EEDAD82AE83AFCC
:0A430000F08D028E038F0402425676
:0C430A00E4C0E0C0E0C0E0743CC0E0741F
:0B43160042C0E07480C0E0E4C0E09012
:0E432100E24B75F000125226E58124F9F58179
:01432F00226B
:0E43300090ED02E0FAA3E0FBA3E0FC8A828B92
:0D433E00838CF012496990ED0575F00012B6
:0C434B00840CE4C0E0C0E0C0E0743CC0A2
:0C435700E07442C0E07480C0E0E4C0E00C
:0E43630090E24B75F000125226E58124F9F528
:024371008122A7
:0A437300C008858108C082C083C025
:0C437D00F0E50824FBF8E6C0E008E6C00C
:0C438900E008E6C0E0A80808868208866C
:0E439500830886F0124516AD82AE83AFF01598
:0E43A3008115811581BD0008BE0005BF000216
:0243B100802E5C
:0E43B30090ED02E0FAA3E0FBA3E0FCC005C021
:0E43C10006C007C005C006C0078A828B838C29
:0E43CF00F0124CC4158115811581D007D0065F
:0443DD00D005803E49
:0E43E10090ED0575F0001284FEAA82AB83AC4D
:0E43EF00F08A058B068C07BD0026BE0023BF9A
:0E43FD00002090ED02E0FAA3E0FBA3E0FC8AB2
:0E440B00828B838CF0124B64AA82AB83ACF0E0
:064419008A058B068C07EA
:0E441F00740C2DFAE43EFB8F048A828B838C92
:0E442D00F0E41289B274032DFAE43EFB8F0412
:0C443B00C005C006C007A80808E6C0E0E5
:0E44470008E6C0E008E6C0E08A828B838CF0B5
:0E445500123CAE158115811581D007D006D01E
:0E4463000574052DFAE43EFB8F04C005C0066B
:0C447100C007E50824FBF8E6C0E008E600
:0D447D00C0E008E6C0E08A828B838CF0125C
:0E448A003CAE158115811581D007D006D005F6
:0E44980074082DFAE43EFB8F048A828B838C1D
:0C44A600F0E50824F7F8E61289B2A3083C
:0E44B200E61289B2A308E61289B2A308E61248
:0E44C00089B274072DFAE43EFB8F048A828BCA
:0C44CE00838CF0E50824F6F8E61289B2B1
:0E44DA00740D2DFAE43EFB8F048A828B838CD6
:0E44E800F0E41289B290ED02E0FAA3E0FBA32B
:0E44F600E0FCC005C006C0078A828B838CF0F4
:0D450400124AE11581158115819000008596
:054511000881D0082222
:0A451600C008858108C082C083C080
:0C452000F0058105810581E5082404F800
:0E452C00E4F608F608760090ED02E0FDA3E04C
:0E453A00FEA3E0FF8D828E838FF0124977ADD5
:0545480082AE83AFF01C
:0C454D00BD0009BE0006BF00030245EEE1
:0E45590074032DFAE43EFB8F04C005C006C0BB
:0C45670007C002C003C004A80808868238
:0E4573000886830886F0123D17AA82AB8315D6
:0E4581008115811581D007D006D005EA4B6068
:0E458F004674052DFAE43EFB8F04C005C006FD
:0C459D00C007C002C003C004E50824FBF6
:0E45A900F886820886830886F0123D17AA82E3
:0E45B700AB83158115811581D007D006D00584
:0C45C500EA4B600DE5082404F8A6050888
:0545D100A60608A60784
:0E45D6008D828E838FF0124EEDAA82AB83ACE5
:0A45E400F08A058B068C0702454D96
:0C45EE00E5082404F8868208868308860D
:0745FA00F0850881D00822C2
:0A460100C008858108C082C083C094
:0C460B00F0E581240DF581E508240AF893
:0C46170076FF0876FF08767F08767FE5C6
:0C462300082407F8E4F608F6087600907A
:0E462F00ED02E0FBA3E0FCA3E0FA8B828C839B
:0C463D008AF0124977AA82AB83ACF0E54A
:0C464900082404F8A60208A60308A60432
:0C465500E5082404F8B6000B08B60007C6
:0746610008B60003024749FF
:0C466800E5082404F8740326FDE408367D
:0C467400FE088607C005C006C007A808A5
:0E4680000886820886830886F0123D17AD82F8
:0D468E00AE83158115811581ED4E7003027C
:02469B004723B3
:0C469D00E5082404F8740826FDE4083643
:0E46A900FE0886078D828E838FF012AE67FDAD
:0C46B700A312AE67FEA312AE67FFA312B1
:0C46C300AE67FAC002C005C006C007E5E3
:0C46CF0008240AF8E6C0E008E6C0E00895
:0E46DB00E6C0E008E6C0E08D828E838FF0EA34
:0E46E9001283DCAB82E58124FCF581D007D082
:0C46F70006D005D002EB7024E508240476
:0C470300F8E5082407F9E6F70809E6F7D6
:0C470F000809E6F7E508240AF8A60508EA
:08471B00A60608A60708A60285
:0C472300E5082404F886820886830886D6
:0C472F00F0124EEDAA82AB83ACF0E5085E
:0E473B002404F8A60208A60308A604024655A8
:0C474900E5082407F886820886830886AD
:07475500F0850881D0082265
:0E475C00AA82AB83ACF0BA0007BB0004BC001D
:02476A0001222A
:0E476C00740C2AFDE43BFE8C078D828E838F39
:0E477A00F0E41289B2740D2AFAE43BFB8A8245
:084788008B838CF0E40289B27E
:0E479000AA82AB83ACF0740C2AFDE43BFE8CD5
:0E479E00078D828E838FF012AE67FD740E2A97
:0D47AC00FEE43BFF8C008E828F8388F012AC
:0847B900AE67F9EDB501012224
:0E47C1008E828F8388F0ED1289B2740D2AFD6E
:0E47CF00E43BFE8C078D828E838FF012AE6766
:0E47DD00F8088D828E838FF0E81289B2B8083A
:0147EB0000CD
:0B47EC0040098A828B838CF00247F8A2
:0147F700229F
:0E47F800AA82AB83ACF090ED02E0FDA3E0FEE0
:0E480600A3E0FFC002C003C004C002C003C094
:0E481400048D828E838FF0124CC415811581A5
:0E482200158190ED0575F000128626158115A2
:04483000811581224B
:0E48340090ED02E0FAA3E0FBA3E0FC8A828B89
:0E484200838CF0124C59AA82AB83ACF0BA0002
:0848500007BB0004BC000122BB
:0D485800C002C003C00490ED0575F0001211
:0A486500862615811581158180C596
:0C486F00AA83E58290ED0FF0A3EAF0228E
:0A487B00C0088581080581058190C1
:0E488500ED02E0FAA3E0FBA3E0FC8A828B8345
:0C4893008CF0124977AA82AB83ACF0A82D
:06489F000808E4F608F62B
:0B48A500BA0008BB0005BC0002802028
:0948B000A8080806B6000208067B
:0E48B9008A828B838CF0124EEDAF82AD83AEFF
:0948C700F08F028D038E0480D5F0
:0A48D000A808088682088683850880
:0448DA0081D008225F
:0A48DE00C008858108C082C0830570
:0E48E80081058190ED02E0FCA3E0FDA3E0FE5F
:0E48F6008C828D838EF0124977AC82AD83AE3A
:0A490400F0E5082403F8E4F608F6D5
:0B490E00BC0008BD0005BE0002804494
:0A491900E5082403F8A9080986F058
:0E492300E7B5F00A0886F009E7B5F002800259
:024931008008FC
:084933008C828D838EF0802838
:0B493B00E5082403F806B60002080699
:0E4946008C828D838EF0124EEDAB82AA83AF71
:09495400F08B048A058F0680B186
:06495D0090000075F0005F
:06496300850881D0082246
:03DEBD0000000062
:03DEC000FFEC0074
:07DEC3000F000800CBE10095
:03DECA00D3E100A1
:02DECD003C0017
:0600B400E478FFF6D8FD20
:0C496900E41289B2A3E41289B2A3E402B4
:0249750089B205
:0B49770012AE67FAA312AE67FBA3129A
:0A498200AE67FC8A828B838CF02262
:0A498C00C008858108AA82AB83AC45
:0C499600F0E50824FBF8860508860608FA
:0E49A20086078D828E838FF012AE67FDA31202
:0E49B000AE67FEA312AE67FF8A828B838CF087
:0C49BE00ED1289B2A3EE1289B2A3EF1231
:0549CA0089B2D00822B3
:0B49CF0012AE67FAA312AE67FBA31242
:0E49DA00AE67FCEA4B4C7006900000F5F02230
:0E49E8008A828B838CF012AE67FDA312AE673D
:0E49F600FEA312AE67FFBD0008BE0005BF00A5
:034A040002800825
:084A07008D028E038F0480D99B
:074A0F008A828B838CF022E8
:0A4A1600C0088581080581058105AF
:0E4A200081AA82AB83ACF0C002C003C004E5E3
:0C4A2E000824FBF8E6C0E008E6C0E00841
:0E4A3A00E6C0E08A828B838CF0124CC415819A
:0C4A480015811581D004D003D002E508D0
:0E4A540024FBF886050886060886078D828EEC
:0E4A6200838FF0E41289B2A3E41289B2A3E4B8
:0E4A70001289B28A828B838CF0C002C003C010
:0C4A7E0004C005C006C0071249CFA808FC
:0E4A8A0008A68208A68308A6F0D007D006D0A2
:0B4A980005D004D003D002A80808A835
:0C4AA3000808E60846084670168A828B58
:0E4AAF00838CF0ED1289B2A3EE1289B2A3EF50
:054ABD001289B280190E
:0C4AC200A8080886820886830886F0EDAC
:0B4ACE001289B2A3EE1289B2A3EF120E
:024AD90089B2A0
:064ADB00850881D00822CD
:0A4AE100C008858108AA82AB83ACEF
:0C4AEB00F0C002C003C004E50824FBF882
:0E4AF700E6C0E008E6C0E008E6C0E08A828B78
:0E4B0500838CF0124CC4158115811581D004EB
:0E4B1300D003D0028A828B838CF012AE67FD35
:0B4B2100A312AE67FEA312AE67FFE513
:0C4B2C000824FBF886820886830886F0C7
:0C4B3800ED1289B2A3EE1289B2A3EF12B5
:0C4B440089B28A828B838CF0E50824FB88
:0E4B5000F8E61289B2A308E61289B2A308E6BD
:064B5E001289B2D008220A
:0A4B6400C008858108C082C083C02C
:0C4B6E00F0A8080886820886830886F0FC
:0B4B7A0012AE67FDA312AE67FEA3128F
:0E4B8500AE67FFED4E4F7008900000F5F00295
:024B93004C5381
:0E4B95008D828E838FF012AE67FAA312AE6788
:0E4BA300FBA312AE67FCEA4B4C70288D028E0D
:0C4BB100038F04A8080886820886830889
:0E4BBD0086F0E41289B2A3E41289B2A3E412D6
:0B4BCB0089B28A828B838CF0024C536D
:064BD6008D028E038F0426
:0E4BDC008A828B838CF012AE67FDA312AE6747
:0D4BEA00FEA312AE67FF8D828E838FF01246
:0A4BF700AE67FDA312AE67FEA31225
:0E4C0100AE67FFBD0008BE0005BF00028016B2
:0E4C0F008A828B838CF012AE67FAA312AE6716
:084C1D00FBA312AE67FC80B797
:0E4C25008A828B838CF012AE67FDA312AE67FD
:0E4C3300FEA312AE67FF8A828B838CF0E41220
:0A4C410089B2A3E41289B2A3E412C1
:084C4B0089B28D828E838FF087
:064C5300850881D0082253
:0A4C5900C00885810805810581056A
:0D4C630081AA82AB83ACF012AE67FDA312F4
:094C7000AE67FEA312AE67FFA8B7
:0B4C79000808A60508A60608A607A864
:0C4C84000808ED4E4F60288D828E838F53
:0C4C9000F012AE67FDA312AE67FEA31287
:0E4C9C00AE67FF8A828B838CF0ED1289B2A383
:094CAA00EE1289B2A3EF1289B2E7
:0C4CB300A8080886820886830886F08521
:054CBF000881D008226D
:0A4CC400C008858108C082C083C0CB
:0C4CCE00F0E5812409F581A80808868221
:0E4CDA000886830886F012AE67FDA312AE674F
:0E4CE800FEA312AE67FFED4E4F7003024E1298
:0C4CF600E5082407F8E4F608F60876004C
:0C4D0200E5082404F8A60508A60608A68B
