:040000000200853243
:01000B0032C2
:03001300022D3388
:03001B00022E149E
:0100230032AA
:03002B00027496C6
:01003300329A
:03003B00022E078B
:030043000279D56A
:03004B00025B0A4B
:01005300327A
:01005B003272
:01006300326A
:03006B00022B5114
:03007300022EE872
:03007B00022C3C18
:0300EC0002007E91
:05007E001202D980FE12
:0A00EF00C008858108C082C0837C30
:0300F900007D0087
:0E00FC00C3EC9490ED6480948140030201EB0C
:0E010A00C374C89C74808DF063F08095F05033
:0C0118000B7490C39CFE74019DFF8004DA
:040124008C068D07B1
:0C012800A8080886028A82C002C004C039
:0E01340005C006C007123990D007D006D005CE
:0B014200D004D00290E000E4F0A3F035
:0E014D00C00290E000E0FBA3E0FAC3EB9EEAE4
:0E015B0064808FF063F08095F0D0025022C0D7
:0E0169000290E000E0FBA3E0FA90E002EBF071
:0E017700A3EAF090E000E02401F0A3E03400E1
:05018500F0D00280C370
:0E018A008A82C004C005C006C0071239A7D083
:0E01980007D006D005D00490E000E4F0A3F0FC
:0801A60074C8C39EFAE49FFB3C
:0E01AE0090E000E0FEA3E0FFC3EE9AEF648055
:0E01BC008BF063F08095F0501E90E000E0FEA6
:0E01CA00A3E0FF90E002EEF0A3EFF090E00063
:0B01D800E02401F0A3E03400F080CB35
:0501E3000CBC00010D41
:0301E8000200FC16
:0601EB00850881D0082206
:0A01F100C00885810805810581C260
:0A01FB00AF759F037AF87BFF7C00CC
:03020500BC080032
:0A020800501DEC2406FDE434E0FE76
:0E0212008A828B83E493FFA3AA82AB838D8242
:070220008E83EFF00C80DE7D
:0C022700759F01D2AFAA080A7B007C4042
:0E0233007402C0E0E4C0E0E4C0E08A828B8385
:0E0241008CF012806515811581158190EE28D4
:09024F00E0FAA3E0FB4A701FFA7B
:03025800BA0200E7
:0C025B005038AB080BEA2BF87401C39A72
:0A0267002406F582E434E0F583E09C
:05027100FBF60A80E22B
:0A02760090C1C975F080126CF5AA62
:0C028000080AEA04F890EE28E0FAA3E077
:09028C00FCF6A808087B00A6029C
:0C029500AA080A7B007C408A828B838CC4
:0C02A100F012713BA8080886028A037A5C
:0C02AD0000AC080CEC04F886047D00ECAA
:0E02B9002AFAED3BFBE4C0E0C0E0C0E0C0026A
:0D02C700C00390FFFF125800E58124FB8565
:0502D4000881D00822A2
:0702D900129D7D1245471242
:0902E00046C312395E90000112C0
:0D02E90000EF90C20075F001E4127D199045
:0602F60048FD122E081263
:0602FC0033C4124B129006
:09030200C1EE75F080126CF5905B
:09030B00C20775F080126CF512B6
:090314003A09900000127D8A12E2
:0D031D006D9C1201F1E4C0E0C0E0C0E09072
:0E032A00EE5E75F000122EF61581158115811C
:0E033800128BE0E4C0E0C0E0C0E090EE827501
:0E034600F000122EF6158115811581124378F4
:0E0354009000041200EF12628AAAE27B00AD54
:0E036200E37C00EC2AFAED3BFB90E507EAF0A5
:0E037000A3EBF090E51F7401F090C23375F01E
:07037E0080127157123A0DC5
:0E038500123A11123606AA82AB83C3E49A74B0
:0E039300808BF063F08095F040E890C853E452
:0E03A10093FAA3E493FB8A828B83120083AA53
:0E03AF0082AB8390E004EAF0A3EBF0EA4B602F
:0E03BD00C712653B1268FEAA82AB83ACF074D7
:0D03CB0080C0E0E4C0E08A828B838CF012D9
:0E03D80054D1AA82AB831581158190E004EA0E
:0E03E600F0A3EBF0C3E49A74808BF063F08018
:0E03F40095F0508D8A828B831268F290C88B30
:0E040200E493FAA3E493FBC002C0038A828B4A
:0B04100083120083D003D0020203859A
:0EC1C90053657474696E67206D616E75616CEC
:0EC1D70020616464726573732066726F6D2060
:09C1E5006E6F64655F69640A0075
:0EC1EE0057656C636F6D6520746F20436F6E34
:0BC1FC0074696B6920322E342E0A009B
:0EC2070052756E6E696E67206F6E3A204E376C
:0EC215003430204E616E6F53656E736F722071
:0EC22300284343323433312D46313238292E30
:02C231000A0001
:02C8D000000066
:0900DE0090E18A7401F0A3E4F042
:0A041B00C00885810805810581AA4B
:0C04250082AB83ACF0E50824FDF8B68340
:0E0431002790E00E75F000C002C003C0041258
:09043F005AA390E02075F00012B0
:090448005AA390E03275F0001295
:0804510048C8D004D003D0021A
:0E0459008A828B838CF012902CFDA312902CC3
:09046700FEBD0005BE0002800389
:030470000206374A
:07047300A80808E4F608F6F2
:0C047A00A80808C3E6940308E664809418
:0E048600805076C002C003C004C003C004A8AA
:0C0494000808E6C0E008E6C0E090000A9E
:0E04A00012732CAF82AA8315811581D004D06F
:0A04AE0003EF2441FBEA34E0FCA850
:0C04B8000808740126FDE40836FE8B8263
:0C04C4008C83EDF0A3EEF0EF2441FFEA82
:0C04D00034E0FA74082FF582E43AF5835A
:0E04DC00E4F0A3F08F828A83A3A3A3A374325B
:0C04EA00F0A3E4F0A80808A60508A60688
:0904F600D004D003D00202047A04
:0B04FF00C002C003C0047445C0E074DC
:0C050A00C2C0E07480C0E07416C0E0E4E1
:0E051600C0E090E00E75F000125A21E581243D
:0E052400FBF581D004D003D00290EE57E0FD2D
:0E0532006028C002C003C0047416C0E0E4C01C
:0A054000E07451C0E074C2C0E07422
:0E054A0080C0E012881AE58124FBF581D00400
:04055800D003D002FA
:0B055C00C002C003C0047449C0E0747A
:0C056700C2C0E07480C0E07417C0E0E483
:0E057300C0E090E02075F000125A21E58124CE
:0E058100FBF581D004D003D00290EE57E0FDD0
:0E058F006028C002C003C0047417C0E0E4C0BE
:0A059D00E07488C0E074C2C0E0748E
:0E05A70080C0E012881AE58124FBF581D004A3
:0405B500D003D0029D
:0B05B900C002C003C004744DC0E07419
:0C05C400C2C0E07480C0E0741AC0E0E423
:0E05D000C0E090E03275F000124846E581244C
:0E05DE00FBF581D004D003D00290EE57E0FD73
:0E05EC006028C002C003C004741AC0E0E4C05E
:0A05FA00E074B8C0E074C2C0E07401
:0E06040080C0E012881AE58124FBF581D00445
:04061200D003D0023F
:0B061600C002C003C00474EEC0E0741A
:0C062100C2C0E07480C0E012881A15818D
:0A062D0015811581D004D003D0021E
:0D0637008A828B838CF0E41272B4A3E4126B
:0906440072B4758203850881D0AF
:02064D00082281
:0A064F00C008858108AA82AB83ACC5
:0E065900F07D0112902CFEA312902CFFBE002B
:0606670005BF0002800B3C
:08066D00BE1A05BF010280283E
:0306750002076217
:0E067800758202C002C003C0041239A7D0046C
:0E068600D003D0027D008A828B838CF0741A20
:090694001272B4A374011272B4D5
:0C069D00ED600E90E4CDE0FDE50824FDCA
:0506A900F8E6B50506AE
:0606AE00758201020774D1
:0E06B400C002C003C004758202C002C003C0B1
:0C06C20004123990D004D003D002E508E7
:0E06CE0024FAF8860508860608860790E1756E
:0E06DC00EDF0A3EEF0A3EFF08D828E838FF091
:0A06EA0012902CFAA312902CFB9042
:0E06F400E178EAF0A3EBF074022DFAE43EFB8D
:0E0702008F048A828B838CF012902CFAA31243
:0E071000902CFB90E17CEAF0A3EBF074042D3A
:0D071E00FAE43EFB8F048A828B838CF0127C
:09072B00902CFAA312902CFB9013
:0E073400E17AEAF0A3EBF08D828E838FF0C0A5
:0E07420002C003C0041219EE90E17875F000B9
:0E0750001217A0D004D003D002D004D003D0E2
:04075E000202067815
:0D0762008A828B838CF0E41272B4A3E4123F
:05076F0072B475820365
:03077400D0082288
:0A077700C00885810805810581AAEC
:0D07810082AB83ACF07D0112902CFEA31220
:0B078E00902CFFBE0005BF0002800B96
:08079900BE4405BF010280759A
:0307A100020AD178
:0E07A400C002C003C004127D74AE82AF837425
:0E07B2001EC0E0E4C0E08E828F8312A209AE6A
:0E07C00082AF831581158190E188EEF0A3EFE2
:0E07CE00F0EF5401A2E0CE13CE13CEFFC00612
:0E07DC00C00790E17E75F0001240D515811522
:0707EA0081D004D003D0020E
:0E07F100758201C002C003C0041239A7D004F3
:0E07FF00D003D0027D008A828B838CF074447C
:09080D001272B4A374011272B45A
:0C081600ED600E90E4CDE0FDE50824FD4F
:05082200F8E6B5050633
:06082700758201020AE3E4
:0E082D00758201C002C003C004123990D004CD
:0C083B00D003D002E50824FDF8B68802C6
:0208470080032C
:0308490002097B26
:0E084C0090EE57E0FD6021C002C003C00474AE
:0A085A0000C0E074C3C0E07480C069
:0E086400E012881A158115811581D004D00389
:02087200D002B2
:0D087400C002C003C004C002C003C00412D3
:0E0881007D74AD82AE837403C0E0E4C0E08DF0
:0E088F00828E8312A209AD82AE83158115817F
:0C089D00D004D003D002A8080874012D7C
:0C08A900F6E43E08F6A8080890E18CE692
:0D08B500F008A3E6F090E61DE0FF7A00A831
:0C08C2000808E6B5070708E6B50202804A
:0108CE000821
:0808CF00D004D003D0028030F8
:0C08D700D004D003D002A80808E4B60347
:0608E3000508B600010447
:0408E900FFB4010057
:0E08ED00E433FF600974022DFDE43EFE80043A
:0408FB007D017E00FD
:0808FF0090E18CEDF0A3EEF096
:0D09070090E19E75F000C002C003C0041214
:0E0914001D9FD004D003D00290EE57E0FD608E
:0C09220036C002C003C004749EC0E07424
:0C092E00E1C0E0E4C0E090E18CE0C0E03B
:0A093A00A3E0C0E07423C0E074C322
:0E094400C0E07480C0E012881AE58124F8F546
:0709520081D004D003D002A4
:0E095900C002C003C004E4C0E0740FC0E09010
:0E096700E17E75F0001240D515811581D00497
:06097500D003D0028058FF
:0C097B00C002C003C004E50824FAF8869E
:0E098700050886060886078D828E838FF01283
:09099500902CFAA312902CFB90A7
:0E099E00E18CEAF0A3EBF074022DFDE43EFEC6
:0D09AC00C002C003C004C005C006C0079013
:0E09B900E19E75F0001244DB15811581158159
:0C09C700D004D003D002D004D003D00232
:0E09D30090E18CE0FDA3E0FE90E19CEDF0A32E
:0D09E100EEF08D828E83C002C003C00412B0
:0D09EE0019ADAD82AE83D004D003D00290CD
:0E09FB00E18EEDF0A3EEF0ED4E6020C002C0E4
:0E0A090003C004C005C00690E19C75F0001209
:0D0A170016E915811581D004D003D002022C
:020A240007F1D8
:0E0A2600C002C003C00490E19C75F000C00245
:0E0A3400C003C004121CF0D004D003D0029006
:0E0A4200E18AE0FDA3E0FE90E190EDF0A3EE6E
:0E0A5000F090E61DE0FD7E0090E192EDF0A337
:0E0A5E00EEF090E18CE0FFA3E0FA90E194EF5F
:0E0A6C00F0A3EAF090E196EDF0A3EEF0C002E8
:0A0A7A00C003C0047490C0E074E1F2
:0E0A8400C0E0E4C0E07485C0E090EE3375F091
:0E0A920000123643E58124FCF581D004D00328
:0E0AA000D00290E18AE0FDA3E0FEC3ED946376
:0E0AAE00EE64809480D004D003D00250070D77
:060ABC00BD00070E8004DE
:040AC2007D017E0034
:0B0AC60090E18AEDF0A3EEF00207F1D2
:0D0AD1008A828B838CF0E41272B4A3E412CD
:050ADE0072B4758203F3
:060AE300850881D0082205
:0A0AE900C008858108C082C083C0E8
:0C0AF300F0E5812409F5817D01A80808C8
:0E0AFF0086820886830886F012902CFEA312D1
:0B0B0D00902CFFBE0005BF0002800B13
:080B1800BE9105BF0102802F10
:030B2000020F6C55
:0E0B2300E4C0E07405C0E090E1A975F0001296
:0C0B310040D5158115817D00A8080886BC
:0E0B3D00820886830886F074911272B4A37445
:040B4B00011272B46D
:0E0B4F00ED601290E1A975F000124199E58267
:070B5D008583F045F07006EE
:060B6400758201020F83FF
:0E0B6A0090E1B5E4F0A3F090E1B3E4F0A3F065
:0E0B780090E1B3E0FDA3E0FEC3ED9403EE6454
:080B86008094804003020C95ED
:0E0B8E00C005C006C005C00690000A12732CF8
:0E0B9C00AF82AA8315811581D006D005EF2403
:070BAA0041FBEA34E0FCE529
:0C0BB100082404F874062BF6E43C08F657
:0B0BBD00E5082404F88682088683E522
:0B0BC800082406F9E0F7A3E009F7E5B8
:0C0BD300082406F8C3E49674800886F03D
:0A0BDF0063F08095F04003020C86DD
:0C0BE900E5082408F874082BF6E43C082A
:0C0BF500F6E5082408F88682088683E0F4
:0C0C0100FFA3E0FABF0105BA0002800268
:020C0D008077EE
:0C0C0F00E5082406F8E624FFFF08E634A0
:0C0C1B00FFFAE5082404F88682088683AE
:0C0C2700EFF0A3EAF0EF4A7056E5082455
:0E0C330008F88682088683E4F0A3F08B828C9A
:0E0C410083A3A3E4F0A3F08B828C83A3A3A370
:0C0C4F00A37432F0A3E4F00DBD00010E10
:0A0C5B00C005C006744BC0E074C36E
:0E0C6500C0E07480C0E012881AE58124FBF51F
:0E0C73008175820412399090E1B5E02401F001
:050C8100A3E03400F0C7
:0D0C860090E1B3E02401F0A3E03400F0029F
:020C93000B78DC
:0E0C950090E1B5E0FAA3E0FB4A6003121F8471
:0E0CA30090E1B5E4F0A3F090E1B3E4F0A3F02B
:0E0CB10090E1B3E0FAA3E0FBC3EA9409EB6420
:080CBF008094804003020DCE79
:0E0CC700C002C00390000C12732CAA82AB83F3
:0A0CD50015811581EA245FFAEB3463
:0C0CDF00E0FB740A2AF582E43BF583E098
:0E0CEB00FCA3E0FDC3E49C74808DF063F080F8
:070CF90095F04003020DBF5E
:0E0D0000C004C00574082AFEE43BFF8E828FFB
:0E0D0E0083E0FCA3E0FDBC0105BD00028007F0
:070D1C00D005D004020DBF59
:0E0D2300D005D004EC4D70568E828F83E4F024
:0E0D3100A3F08A828B83E0FCA3E0FD8A828B14
:0E0D3F0083A3A3A3A3E0FEA3E0FF8A828B831D
:0E0D4D00A3A3E0FAA3E0FBC004C005C006C0EB
:0A0D5B0007C002C0037465C0E07415
:0C0D6500C3C0E07480C0E012881AE58171
:0E0D710024F7F58190E1B5E02401F0A3E03411
:020D7F0000F082
:0E0D810090E1B3E0C0E0A3E0C0E090000C12EF
:0C0D8F00732CAA82AB8315811581EA2425
:0A0D9B005FFAEB34E0FB740A2AFA59
:0E0DA500E43BFB8A828B83E0FCA3E0FD1CBCD8
:030DB300FF011D20
:090DB6008A828B83ECF0A3EDF0BE
:0D0DBF0090E1B3E02401F0A3E03400F00265
:020DCC000CB168
:0E0DCE0090E1B5E0FAA3E0FB4A60031220C4F6
:0E0DDC0090E1B5E4F0A3F090E1B3E4F0A3F0F1
:0E0DEA0090E1B3E0FAA3E0FBC3EA940AEB64E5
:080DF8008094804003020F58B3
:0E0E0000C002C00390001112732CAA82AB83B3
:0A0E0E0015811581EA24CBFAEB34BC
:0C0E1800E0FB740F2AF582E43BF583E058
:0A0E2400FCA3E0FD4C7003020F492F
:0E0E2E008A828B83E0FAA3E0FB90E1B7EAF042
:0E0E3C00A3EBF08A828B831219ADAA82AB83DE
:0E0E4A0090E1B9EAF0A3EBF0EA4B6072C0024F
:0D0E5800C00390E1B3E0C0E0A3E0C0E09073
:0E0E6500001112732CAC82AD8315811581EC47
:0A0E730024CBFCED34E0FD7E008C82
:0D0E7D00828D838EF01216E915811581908B
:0E0E8A00EE57E0FA602990E1B9E0C0E0A3E085
:0D0E9800C0E090E1B7E0C0E0A3E0C0E0746E
:0A0EA50097C0E074C3C0E07480C081
:0A0EAF00E012881AE58124F9F581AC
:0D0EB90090E1B5E02401F0A3E03400F00268
:020EC6000F49D2
:0E0EC80090E1B3E0C0E0A3E0C0E090001112A2
:0C0ED600732CAA82AB8315811581EA24DD
:0A0EE200CBFAEB34E0FB740D2AFCA0
:0E0EEC00E43BFD8C828D83E0FEA3E0FF1EBE82
:030EFA00FF011FD6
:0E0EFD008C828D83EEF0A3EFF0EF30E73F74B0
:0D0F0B000F2AF582E43BF583E4F0A3F0909B
:0E0F1800EE57E0FA601F90E1B7E0C0E0A3E002
:0A0F2600C0E074B4C0E074C3C0E082
:0D0F30007480C0E012881AE58124FBF58171
:0C0F3D0090E1B5E02401F0A3E03400F0E6
:0D0F490090E1B3E02401F0A3E03400F002D9
:020F56000DEAA2
:0E0F580090E1B5E0FAA3E0FB4A7003020B2320
:060F6600122203020B231E
:0C0F6C00A8080886820886830886F0E446
:0B0F78001272B4A3E41272B47582037D
:060F8300850881D0082260
:070F8900C008858108E41295
:0B0F900072B4A3E41272B4758203D0A7
:020F9B0008222A
:0A0F9D00C008E581F5082440F58145
:0C0FA7001268FEC8E5082438C8A68208BD
:0C0FB300A68308A6F0AD080D8D067F0097
:0C0FBF007A40C005742DC0E0E4C0E0E5FD
:0C0FCB00082438F8E6C0E008E6C0E008A2
:0E0FD700E6C0E08E828F838AF0128854E58196
:0C0FE50024FBF581D005E508242EFAE578
:0C0FF100082438F8A602087600087640B4
:0C0FFD008D067F007A40C005E50824380E
:0E100900F8E6C0E008E6C0E008E6C0E08E822F
:0E1017008F838AF012264CAA8215811581154E
:0910250081D005EA70030212BF3C
:0B102E00E508242EF82406F9C000E5B8
:0C10390008243FF8E7F609E708F6D000AD
:0C104500740428F9C000E5082438F8E71E
:0E105100F609E708F6D000740228F9C000E5A1
:0C105F0008243BF8E7F609E708F6D0008B
:0C106B00E508243DF9E6F708E609F7E582
:0C1077000824FBF886070886040886069B
:0E1083008F828C838EF012902CFA7B00C004BA
:0C109100C006C007E508243FF8E6C0E0F8
:0C109D0008E6C0E0E5082438F8E6C0E0F2
:0C10A90008E6C0E0E508243BF8E6C0E0E3
:0C10B50008E6C0E0E508243DF8E6C0E0D5
:0C10C10008E6C0E0C002C00374DFC0E01D
:0C10CD0074C3C0E07480C0E012881AE513
:0E10D9008124F3F581D007D006D0048F828CDD
:0C10E700838EF012902CFF7A00E50824A4
:0E10F3002EFB7C007E40C007C0028B828C83E7
:0E1101008EF0121877AA8215811581EA70030C
:03110F0002129138
:0C111200E508242EFA2404F88603088661
:0E111E000490E61DE0FE7F00EBB50607ECB581
:05112C00070302127D23
:0E11310074062AF88603088604180BBB00011A
:01113F000CA3
:0C114000A60308A604E508243DF8A6025A
:0C114C0074022AF8E508242EF9C000E522
:0C115800082436F8E4F608F6D0007E000B
:021164007F000A
:0C116600C000E5082436F8C3E694090830
:0C117200E664809480D000400302127DEF
:0A117E00C000E508243FF8EE245FEE
:0A118800F6EF34E008F6E508243F16
:0E119200F8740826F582E40836F583D000E0F4
:0A11A000FAA3E0FC4A700302126497
:0C11AA00C000C000E508243FF886820861
:0E11B6008683E0FCA3E0FDD0008703098702DA
:0B11C40019ECB50306EDB50202800532
:0511CF00D000021264D3
:0C11D400D000C006C007C000E508243FA2
:0E11E000F88682088683A3A3A3A3D000E0FABA
:0E11EE00A3E0FB860408860618EAB50406EBAB
:0511FC00B506028006AB
:06120100D007D006805D5D
:0C120700D007D006C000C000E508243F5E
:0C121300F8740626F582E40836F583E541
:0B121F0008243FF8E0F6A3E008F6E525
:0C122A0008243DF88604D0007A007B40C8
:0C123600C006C007C000C0018500F0E544
:0C12420008243FF8E6C0E008E6C0E08C9D
:0E124E00828A838BF01215C515811581D0019F
:08125C00D000D007D006D0003D
:0C126400740C2EFEE43FFFC000E50824DF
:0812700036F806B6000208067C
:05127800D00002116628
:0C127D00E508242EFA7B007C408A828B5E
:08128900838CF0121B828054DB
:0C12910090EE57E0FA604DE508242E2492
:0C129D0002F88602088603C002C0037439
:0A12A9001FC0E074C4C0E07480C0F0
:0C12B300E012881AE58124FBF5818026FA
:0E12BF0090EE57E0FA601F7A007B40C005C039
:0A12CD0002C0037443C0E074C4C003
:0E12D700E07480C0E012881AE58124FAF581E7
:0612E500850881D00822FB
:0612EB00C0088581081215
:0E12F10068FEAA82AB83ACF07420C0E0E4C0BB
:0E12FF00E0C002C003C00490E1C875F0001208
:0C130D008854E58124FBF58174BBC0E02E
:0C13190074E1C0E0E4C0E090E1C875F0B1
:0E13250000122857AA82158115811581EA70E1
:04133300030213B0EE
:0E13370090E1BBE0FAA3E0FB90E61DE0FC7D38
:0C13450000EAB50426EBB5052274BDC01B
:0A135100E074E1C0E0E4C0E0748F36
:0B135B00C0E074C4C0E07480C0E01269
:0A136600881AE58124FAF5818067FA
:0C13700090EE57E0FC6019C002C003744E
:0A137C00A4C0E074C4C0E07480C097
:0A138600E012881AE58124FBF581CE
:0A13900074BBC0E074E1C0E0E4C0EB
:0E139A00E07485C0E090EE3C75F00012364322
:0813A800E58124FCF58180279A
:0C13B00090EE57E0FA602074C8C0E074B2
:0A13BC00E1C0E0E4C0E074BAC0E054
:0C13C60074C4C0E07480C0E012881AE516
:0513D2008124FAF58101
:0313D700D0082219
:0A13DA00C008E581F5082405F5813F
:0E13E4001268FEAA82AB83ACF07427C0E0E46E
:0E13F200C0E0C002C003C00490E20275F0002B
:0C140000128854E58124FBF58174F4C0CF
:0C140C00E074E1C0E0E4C0E090E2027592
:0E141800F0001224B6AA82158115811581EA12
:0514260070030215989F
:0E142B0090E1F8E0FAA3E0FB90E1F6E0FCA30C
:0C143900E0FD90E1F4E5082404F8E0F682
:0A144500A3E008F6E50824FBF8A96F
:0C144F000809E6F70809E6F70809E6F7C7
:0C145B00A8080886820886830886F01224
:0E146700902CFE7F00C002C003C004C005E54B
:0C147500082404F8E6C0E008E6C0E0C06F
:0A14810006C00774FEC0E074C4C08A
:0E148B00E07480C0E012881AE58124F5F58136
:0E14990090E1F6E0FAA3E0FB90E61DE0FC7D9A
:0E14A70000EAB50458EBB5055490E1F4E0FC02
:0E14B500A3E0FD90E1FAECF0A3EDF090E1F879
:0E14C300E0FCA3E0FD90E1FEECF0A3EDF09064
:0E14D100E1FCEAF0A3EBF090E200E4F0A3F0FF
:0C14DF00A8080886820886830886F012A0
:0E14EB00902CFA7B00C002C00390E1FA75F06D
:0B14F900001215C5158115810215BFFA
:0E15040090E1F475F000121BE0E58270699032
:0E151200E1F4E0FAA3E0FB90E1E8EAF0A3EBDD
:0E152000F090E1F8E0FAA3E0FB90E1EAEAF0D7
:0E152E00A3EBF090E1F6E0FAA3E0FB90E1EC15
:0C153C00EAF0A3EBF0A8080886820886FD
:0E154800830886F012902CFA7B0090E1EEEA08
:0A155600F0A3EBF074E8C0E074E1CC
:0E156000C0E0E4C0E07485C0E090EE3375F0AA
:0C156E0000123643E58124FCF581804525
:0C157A0090EE57E0FA603E7437C0E07459
:0C158600C5C0E07480C0E012881A158116
:0615920015811581802780
:0C15980090EE57E0FA60207402C0E0748E
:0A15A400E2C0E0E4C0E0745DC0E0C6
:0C15AE0074C5C0E07480C0E012881AE52B
:0515BA008124FAF58117
:0615BF00850881D008221E
:0A15C500C008858108C082C083C001
:0C15CF00F005810581E50824FCF8860584
:0B15DB0090E256EDF090E257E4F0744F
:0A15E60029C0E074E2C0E0E4C0E0B8
:0C15F000A8080886820886830886F0128E
:0E15FC00239E15811581158112653B742DC04B
:0E160A00E0E4C0E090E22975F0001265721570
:0A1618008115817456C0E074E2C031
:0E162200E0E4C0E090E00E75F000125AA6154C
:0C1630008115811581A80808740626FDAC
:0E163C00E40836FE0886078D828E838FF0E567
:0A164A00082404F812902CF6A312F5
:0C165400902C08F6A80808740426FFE497
:0D1660000836FA0886038F828A838BF01209
:09166D00902CFFA312902CFAA8A6
:0C1676000808740226FBE40836FC088615
:0D168200058B828C838DF012902CFBA3123F
:0C168F00902CFCA80808868208868308BE
:0C169B0086F012902CFDA312902CFEE5AE
:0C16A700082404F8E6C0E008E6C0E0C03B
:0C16B30007C002C003C004C005C006E56B
:0C16BF000824FCF8E6C0E008E6C0E0C02B
:0A16CB0007C00274ABC0E074C5C094
:0E16D500E07480C0E012881AE58124F1F581EE
:0616E300850881D00822F9
:0A16E900C008858108AA82AB83AC1B
:0C16F300F0E50824FCF8860590E278ED94
:0D16FF00F090E279E4F0C002C003C0047472
:0A170C0058C0E074E2C0E0E4C0E061
:0E1716008A828B838CF0122461158115811557
:0E1724008112653B7420C0E0E4C0E090E25802
:0C17320075F00012657215811581747845
:0C173E00C0E074E2C0E0E4C0E090E020F5
:0E174A0075F000125AA6158115811581D00484
:0E175800D003D0028A828B838CF012902CFD7D
:0D176600A312902CFE74022AFAE43BFBE56E
:0C1773000824FCF8E6C0E008E6C0E0C076
:0C177F0005C006C002C003C00474F3C023
:0C178B00E074C5C0E07480C0E012881A51
:09179700E58124F6F581D0082259
:0D17A000AA82AB83ACF0C002C003C0047489
:0A17AD007AC0E074E2C0E0E4C0E09E
:0E17B7008A828B838CF012230E15811581150A
:0917C5008112653B7414C0E0744C
:0C17CE00C6C0E07480C0E012881A1581CB
:0E17DA00158115817427C0E0E4C0E090E27A2A
:0E17E80075F0001265721581158190E0327562
:0A17F600F0001248CB7427C0E07425
:0C180000C6C0E07480C0E012881A158198
:0E180C0015811581D004D003D00274042AFD8A
:0E181A00E43BFE8C078D828E838FF012902CA3
:0E182800FDA312902CFE74022AFFE43BF88C04
:0D183600018F82888389F012902CFFA3128D
:0E184300902CF88A828B838CF012902CFAA3E2
:0E18510012902CFBC005C006C007C000C002EC
:0A185F00C0037434C0E074C6C0E09A
:0E1869007480C0E012881AE58124F7F5812210
:0A187700C008E581F5082406F5819C
:0E188100AA82AB83ACF074022AFDE43BFE8C1D
:0D188F00078D828E838FF012902CFDA31226
:0C189C00902CFEA80808ED24FFF6EE34A6
:0E18A800FF08F674062AFAE43BFB8A828B8363
:0C18B6008CF0E5082405F812902CF6A335
:0C18C20012902C08F6C005C006A808080B
:0E18CE00E6C0E008E6C0E090000A12732CAC01
:0D18DC0082AF8315811581D006D005EC2464
:0718E90041FCEF34E0FFE5D4
:0C18F000082403F874042CF6E43F08F60A
:0C18FC00E5082403F88682088683E0FAE1
:0C190800A3E0FBE5082405F8C3E69A08FC
:0D191400E664808BF063F08095F0400302E4
:0219210019A407
:0C1923008C828F83EDF0A3EEF0E5082429
:0C192F0003F88682088683E5082405F989
:0D193B00E7F0A309E7F08C828F83A3A3E5FA
:0C1948000824FCF8E6F0A308E6F07406A2
:0E1954002CF582E43FF583745AF0A3E4F0749E
:0E196200082CF582E43FF5837401F0A3E4F055
:0C19700090EE57E0FA6025E5082405F829
:0C197C00E6C0E008E6C0E0C005C006744C
:0A19880054C0E074C6C0E07480C0D3
:0A199200E012881AE58124F9F581BE
:08199C00121F84758201800313
:0319A40075820049
:0619A700850881D0082232
:0C19AD00E582FA1475F00AA42441FBE462
:0C19B90034E0FC74082BF582E43CF5835C
:0E19C500E0FBA3E0FC4B601DEA1475F00AA4E1
:0A19D3002441FAE434E0FB8A828B21
:0D19DD0083A3A3E0FAA3E0FB8A828B8322A0
:0419EA009000002247
:0A19EE00C008858108C082C083C0D4
:0C19F800F0E5812409F581E5082404F8DD
:081A0400E4F608F67B007C000B
:0C1A0C00E5082404F8C3E6940908E66429
:081A18008094804003021B6072
:0A1A2000E5082406F8EB245FF6EC5D
:0A1A2A0034E008F6E5082406F8741D
:0E1A34000826FFE40836FD8F828D83E0FEA3B6
:081A4200E0FA4E6003021B4BA9
:0C1A4A00A8080886820886830886F0122F
:091A5600902CFAA312902CFBE580
:0C1A5F00082406F88682088683EAF0A3BB
:0A1A6B00EBF0E5082406F8E5082476
:0C1A750008F9740226F7E4083609F7A807
:0C1A81000808740226FCE40836FE088603
:0D1A8D00028C828E838AF012902CFCA31232
:0C1A9A00902CFEE5082408F886820886DF
:0C1AA60083ECF0A3EEF0E5082406F8E560
:0C1AB200082408F9740426F7E40836093B
:0C1ABE00F7A80808740426FCE40836FEB3
:0E1ACA000886028C828E838AF012902CFCA378
:0C1AD80012902CFEE5082408F886820815
:0C1AE4008683ECF0A3EEF0E5082406F881
:0C1AF000E5082408F9740626F7E408361F
:0C1AFC0009F7A80808740626FCE4083668
:0E1B0800FE0886028C828E838AF012902CFCDE
:0C1B1600A312902CFEE5082408F886823B
:0E1B2200088683ECF0A3EEF08F828D837401B1
:0C1B3000F0A3E4F0E5082406F8740A268F
:0E1B3C00F582E40836F5837401F0A3E4F0802E
:011B4A001585
:0C1B4B00740C2BFBE43CFCE5082404F8BF
:061B570006B600020806BC
:031B5D00021A0C5D
:0C1B600090EE57E0FA60157474C0E07459
:0C1B6C00C6C0E07480C0E012881A158129
:041B7800158115813D
:061B7C00850881D008225B
:0E1B8200AA82AB83ACF090E067E0FDA3E0FE2A
:0E1B90004D604C90E05FE0FDA3E0FE8A828B8A
:0E1B9E00838CF012902CFFA312902CF8EDB562
:0E1BAC000731EEB5002D90E063E0FDA3E0FEF2
:0E1BBA0074022AFAE43BFB8A828B838CF012C1
:0E1BC800902CFAA312902CFBEDB5020BEEB59B
:091BD600030790E067E4F0A3F0BE
:011BDF0022E3
:0A1BE000C008E581F5082408F5812E
:0E1BEA00AA82AB83ACF074022AFDE43BFE8CB1
:0C1BF800078D828E838FF0E5082407F82B
:0E1C040012902CF6A312902C08F674042AFD00
:0C1C1200E43BFE8C078D828E838FF0E592
:0A1C1E00082405F812902CF6A3121A
:0E1C2800902C08F68A828B838CF012902CFA96
:0C1C3600A312902CFBA80808E4F608F6A6
:091C4200E5082403F8E4F608F6B5
:0C1C4B00A80808C3E6940908E664809429
:061C5700804003021CE7BF
:0A1C5D00E5082403F8E6245FFC0804
:0C1C6700E634E0FF74082CF582E43FF541
:0E1C730083E0FDA3E0FE4D60528C828F83E083
:0E1C8100FDA3E0FEEDB50245EEB503418C82F9
:0C1C8F008F83A3A3E0FDA3E0FEE5082482
:0D1C9B0005F8E6B5050708E6B5060280026B
:021CA800802496
:0E1CAA008C828F83A3A3A3A3E0FCA3E0FDE53F
:0C1CB800082407F8E6B5040708E6B505A7
:031CC40002800299
:021CC700800596
:051CC900758201801C82
:0C1CCE00E5082403F8740C26F6E4083640
:0A1CDA00F6A8080806B60002080686
:031CE400021C4B94
:031CE70075820003
:061CEA00850881D00822EC
:0A1CF000C008858108C082C083C0CF
:0C1CFA00F005810581E4FDFEE5082404EE
:051D0600F8E4F608F608
:0E1D0B00C3ED940AEE648094804003021D969E
:0A1D1900E5082404F8E624CBFC08DA
:0C1D2300E634E0FB740F2CF582E43BF585
:0E1D2F0083E0FFA3E0FA4F70498C02FC7403BE
:0C1D3D00C0E0E4C0E0A80808E6C0E00830
:0E1D4900E6C0E008E6C0E08A828B838CF012D0
:0C1D57007FC7E58124FBF581E50824042A
:0A1D6300F8E624CBFA08E634E0FBB2
:0E1D6D00740D2AF582E43BF5837405F0A3E4BF
:061D7B00F07582018018E2
:0C1D8100E5082404F8741126F6E4083686
:061D8D00F60DBD00010E81
:031D9300021D0B23
:031D960075820053
:061D9900850881D008223C
:0A1D9F00C008858108C082C083C01F
:0E1DA900F0E5812407F58190E2A37404F0A315
:0E1DB700E4F0127D74AD82AE837464C0E0E48B
:0E1DC500C0E08D828E8312A209AD82AE83151E
:0E1DD30081158190E2A5EDF0A3EEF090E2A163
:0E1DE100E4F0A3F08D078E00C005C006740A62
:0E1DEF00C0E0E4C0E08F828883129CFCC8E54F
:0C1DFD00082406C8A68208A683158115DC
:0E1E090081D006D005740AC0E0E4C0E08D82EE
:0D1E17008E8312A38EAD82AE8315811581DE
:0C1E240090E2A1E5082404F8E0F6A3E039
:0C1E300008F6E5082404F8C3E6940A084C
:0A1E3C00E6648094804003021F61F9
:0E1E4600C005C00690E2A3E0FAA3E0FBEA2488
:0C1E5400FFFFEB34FFFDE5082404F8E676
:0E1E6000B5070B08E6B50506D006D0058025AF
:0C1E6E00D006C00674022AFFE43BFDE52C
:0C1E7A00082404F8E6B5070708E6B505E3
:031E8600028006D1
:061E8900D006D005802FF9
:041E8F00D006D005A4
:0D1E9300C005C00690E2A1E0FFA3E0FDA89D
:0C1EA0000808EF26FFED0836FD08860656
:0E1EAC008F828D838EF074201272B4D006D017
:041EBA0005021F52AC
:0C1EBE00E5082404F8E6B5020708E6B5C4
:041ECA00030280028D
:021ECE0080246E
:0A1ED000A80808E5082404F9E72635
:0E1EDA00FF09E70836FA0886038D0474302CE1
:0C1EE800FC8F828A838BF01272B4805E43
:051EF4000ABA00010B19
:0C1EF900E5082404F8E6B5020708E6B589
:041F05000302800251
:021F090080292D
:0A1F0B00A80808E5082404F9E726F9
:0C1F1500FA09E70836FB088604E50824FA
:0E1F210006F8860774302FFF8A828B838CF0BF
:051F2F001272B4801ED7
:0A1F3400A80808E5082404F9E726D0
:0E1F3E00FA09E70836FB0886048A828B838C3A
:061F4C00F0742A1272B4C9
:0D1F520090E2A1E02401F0A3E03400F002D1
:021F5F001E243E
:0A1F6100A80808E5082404F9E726A3
:0E1F6B00FA09E70836FB0886048A828B838C0D
:091F7900F0E41272B4850881D075
:021F8200082233
:0A1F8400C008E581F5082407F58187
:0A1F8E007495C0E074C6C0E07480D2
:0C1F9800C0E012881A158115811581A87F
:0C1FA400080876007B007C007D007E00B9
:0E1FB000C3EB9403EC64809480400302208C09
:0A1FBE00ED2441FAEE34E0FF740850
:0C1FC8002AF582E43FF583A8080808E031
:0C1FD400F6A3E008F6A8080808E6084696
:051FE000700302207DEA
:0E1FE500C003C00474062AF582E43FF583A809
:0C1FF300080808E0F6A3E008F68A828FD8
:0C1FFF0083A3A3A3A3E5082404F8E0F6E4
:0C200B00A3E008F68A828F83A3A3E508F7
:0E2017002406F8E0F6A3E008F68A828F83E044
:0D202500FCA3E0FBC003C004C005C006A87A
:0B203200080808E6C0E008E6C0E0E592
:0C203D00082404F8E6C0E008E6C0E0E576
:0C204900082406F8E6C0E008E6C0E0C08D
:0A20550004C00374A3C0E074C6C009
:0E205F00E07480C0E012881AE58124F5F58156
:0C206D00D006D005D004D003A808080657
:04207900D004D003BC
:0C207D00740A2DFDE43EFE0BBB00010CBC
:03208900021FB083
:0A208C00A80808E6701774D1C0E040
:0C20960074C6C0E07480C0E012881A1507
:0720A20081158115818015F5
:0A20A90074DCC0E074C6C0E074806F
:0B20B300C0E012881A1581158115810C
:0620BE00850881D0082214
:0A20C400C008E581F5082408F58145
:0A20CE0074DEC0E074C6C0E0748048
:0C20D800C0E012881A158115811581A83E
:0C20E4000808E4F608F67C007D007E0091
:0220F0007F006F
:0E20F200C3EC9409ED6480948040030221E069
:0A210000E5082403F8EE245FF6EF73
:0A210A0034E008F6E5082403F87439
:0E2114000826F582E40836F583E0FAA3E0FB26
:062122004A70030221D106
:0C212800C004C005E5082403F874062676
:0D213400F582E40836F583E0FAA3E0FBE550
:0C214100082403F88682088683A3A3A369
:0C214D00A3E5082405F8E0F6A3E008F67E
:0C215900E5082403F88682088683A3A30F
:0C216500E5082407F8E0F6A3E008F6E522
:0C217100082403F88682088683E0FCA3A3
:0E217D00E0FDC004C005C006C007C002C003DC
:0C218B00E5082405F8E6C0E008E6C0E026
:0C219700E5082407F8E6C0E008E6C0E018
:0A21A300C004C00574EEC0E074C66D
:0E21AD00C0E07480C0E012881AE58124F5F5C8
:0C21BB0081D007D006D005D004A8080889
:0621C70006B60002080646
:0421CD00D005D00465
:0C21D100740C2EFEE43FFF0CBC00010D5E
:0321DD000220F2EB
:0A21E000A80808E6084670157412FE
:0B21EA00C0E074C7C0E07480C0E012C9
:0821F500881A1581158115817E
:0621FD00850881D00822D4
:0A220300C008E581F5082404F58108
:0A220D00742DC0E074C7C0E07480B7
:0C221700C0E012881A158115811581A8FD
:0C2223000808E4F608F67C007D007E0050
:02222F007F002E
:0E223100C3EC940AED6480948040030222D432
:0A223F00E5082403F8EE24CBF6EFC7
:0A22490034E008F6E5082403F874F9
:0E2253000F26F582E40836F583E0FAA3E0FBDF
:0C2261004A6061C004C005E5082403F8D1
:0E226D00740D26F582E40836F583E0FAA3E04E
:0C227B00FBE5082403F88682088683E057
:0E228700FCA3E0FDC004C005C006C007C002F5
:0B229500C003C004C0057440C0E0742A
:0C22A000C7C0E07480C0E012881AE5811D
:0D22AC0024F9F581D007D006D005D004A894
:0822B900080806B60002080641
:0422C100D005D00470
:0C22C50074112EFEE43FFF0CBC00010D64
:0322D100022231B5
:0A22D400A80808E6084670177458C1
:0B22DE00C0E074C7C0E07480C0E012D4
:0A22E900881A1581158115818015F2
:0A22F30074DCC0E074C6C0E0748023
:0B22FD00C0E012881A158115811581C0
:06230800850881D00822C7
:0A230E00C008858108C082C083C0AA
:0C231800F0A80808740426FDE40836FE56
:0E2324000886078D828E838FF012902CFDA309
:0C23320012902CFEA80808740226FFE49C
:0D233E000836FA0886038F828A838BF0121E
:09234B00902CFFA312902CFAA8BB
:0B235400080886820886830886F012C5
:0E235F00902CFBA312902CFCC005C006C007FA
:0B236D00C002C003C0047464C0E07430
:0A237800C7C0E07480C0E0E508244F
:0E238200FBF8E6C0E008E6C0E008E6C0E012A6
:0C2390007EA8E58124F4F581850881D049
:02239C00082215
:0A239E00C008858108C082C083C01A
:0C23A800F005810581A80808740626FDD8
:0E23B400E40836FE0886078D828E838FF012B5
:0923C200902CFDA312902CFEA842
:0C23CB000808740426FFE40836FA0886AF
:0C23D700038F828A838BF0E5082404F851
:0B23E30012902CF6A312902C08F6A814
:0C23EE000808740226FBE40836FC088690
:0D23FA00028B828C838AF012902CFBA312C0
:0C240700902CFCA8080886820886830838
:0E24130086F012902CFAA312902CFFC005C088
:0C24210006E5082404F8E6C0E008E6C068
:0C242D00E0C003C004C002C007748FC0F0
:0A243900E074C7C0E07480C0E0E565
:0C2443000824FBF8E6C0E008E6C0E00852
:0D244F00E6C0E0127EA8E58124F2F581854B
:05245C000881D00822F8
:0A246100C008858108AA82AB83AC95
:0E246B00F074022AFDE43BFE8C078A828B830C
:0E2479008CF012902CFAA312902CFBC005C020
:0C24870006C007C002C00374C1C0E074AE
:0A249300C7C0E07480C0E0E5082433
:0E249D00FBF8E6C0E008E6C0E008E6C0E0128A
:0B24AB007EA8E58124F5F581D0082211
:0A24B600C008858108C082C083C001
:0E24C000F0058105810581740DC0E0E4C0E0E7
:0A24CE0074DAC0E074C7C0E0748047
:0C24D800C0E0A8080886820886830886F9
:0E24E400F0127F01AD82AE83E58124FBF5810D
:0724F200ED4E6003022643DA
:0C24F900A80808741526FDE40836FE084B
:0E25050086078D828E838FF012902C90E2A7B5
:0C251300F0A80808741626FDE40836FE47
:0D251F000886078D828E838FF012902C901D
:0C252C00E2A8F0E50824FBF8860508860C
:0E2538000608860790E2A775F000C005C006F1
:0E254600C007126176AA82AB83D007D006D000
:0E255400058D828E838FF0EA1272B4A3EB1213
:0C25620072B4A80808741D26FAE40836BC
:0E256E00FB0886048A828B838CF012902C90DE
:0C257C00E2ABF0A80808741E26FAE40880
:0E25880036FB0886048A828B838CF012902C1E
:0C25960090E2ACF0E5082404F874022D7B
:0E25A200F6E43E08F608A60790E2AB75F000DE
:0E25B000C005C006C007126176AA82AB83D0B8
:0C25BE0007D006D005E5082404F886824A
:0D25CA000886830886F0EA1272B4A3EB12B3
:0C25D70072B4A80808742426FAE4083640
:0E25E300FB0886048A828B838CF012902C9069
:0C25F100E2A9F0A80808742526FAE40806
:0E25FD0036FB0886048A828B838CF012902CA9
:0E260B0090E2AAF074042DFDE43EFE90E2A9D8
:0E26190075F000C005C006C007126176AA82E7
:0E262700AB83D007D006D0058D828E838FF056
:0E263500EA1272B4A3EB1272B4758201800334
:032643007582009D
:06264600850881D0082286
:0A264C00C008858108C082C083C069
:0E265600F0058105810581740BC0E0E4C0E051
:0A26640074E8C0E074C7C0E07480A1
:0C266E00C0E0A808088682088683088661
:0E267A00F0127F01AD82AE83E58124FBF58175
:07268800ED4E600302284E35
:0C268F00A80808741326FDE40836FE08B5
:0E269B0086078D828E838FF012902C90E2AD18
:0C26A900F0A80808741426FDE40836FEB2
:0D26B5000886078D828E838FF012902C9086
:0C26C200E2AEF0E50824FBF8860508866F
:0E26CE000608860790E2AD75F000C005C00654
:0E26DC00C007126176AA82AB83D007D006D069
:0E26EA00058D828E838FF0EA1272B4A3EB127C
:0C26F80072B4A80808741B26FAE4083627
:0E270400FB0886048A828B838CF012902C9046
:0C271200E2B1F0A80808741C26FAE408E4
:0E271E0036FB0886048A828B838CF012902C86
:0C272C0090E2B2F0E5082404F874022DDD
:0E273800F6E43E08F608A60790E2B175F00040
:0E274600C005C006C007126176AA82AB83D020
:0C27540007D006D005E5082404F88682B2
:0D2760000886830886F0EA1272B4A3EB121B
:0C276D0072B4A80808742226FAE40836AA
:0E277900FB0886048A828B838CF012902C90D1
:0C278700E2AFF0A80808742326FAE4086A
:0E27930036FB0886048A828B838CF012902C11
:0C27A10090E2B0F0E5082404F874042D68
:0E27AD00F6E43E08F608A60790E2AF75F000CD
:0E27BB00C005C006C007126176AA82AB83D0AB
:0C27C90007D006D005E5082404F886823D
:0D27D5000886830886F0EA1272B4A3EB12A6
:0C27E20072B4A80808742A26FAE408362D
:0E27EE00FB0886048A828B838CF012902C905C
:0C27FC00E2B3F0A80808742B26FAE408E9
:0E28080036FB0886048A828B838CF012902C9B
:0E28160090E2B4F074062DFDE43EFE90E2B3B5
:0E28240075F000C005C006C007126176AA82DA
:0E283200AB83D007D006D0058D828E838FF049
:0E284000EA1272B4A3EB1272B4758201800327
:03284E0075820090
:06285100850881D0082279
:0A285700C008858108C082C083C05C
:0C286100F07404C0E0E4C0E074F4C0E0D7
:0A286D0074C7C0E07480C0E0A80842
:0E2877000886820886830886F0127F01AD82F3
:0D288500AE83E58124FBF581ED4E6003027A
:022892002935E6
:0C289400A80808740A26FDE40836FE08B7
:0E28A00086078D828E838FF012902C90E2B509
:0C28AE00F0A80808740B26FDE40836FEB4
:0D28BA000886078D828E838FF012902C907F
:0C28C700E2B6F0E50824FBF88605088660
:0E28D3000608860790E2B575F000C005C00645
:0E28E100C007126176AA82AB83D007D006D062
:0E28EF00058D828E838FF0EA1272B4A3EB1275
:0C28FD0072B4A80808741526FAE4083626
:0E290900FB08860474022DFDE43EFE740BC034
:0E291700E0E4C0E0C002C003C0048D828E83E5
:0E2925008FF0128854E58124FBF58175820144
:0229330080031F
:03293500758200A8
:06293800850881D0082291
:03C233002AEE00F0
:03C2360033EE00E4
:03C239003CEE00D8
:03C23C0045EE00CC
:06C23F004EEE00000000BD
:04C245009D0F000049
:04C24900EB120000F4
:04C24D00DA13000000
:0EC251004E6F77206C697374656E696E67209E
:0EC25F00746F20524F5554455F5245504C5954
:0EC26D00206D65737361676573206F6E2063CB
:0DC27B0068616E6E656C3A202564200A0033
:0EC288004E6F77206C697374656E696E672067
:0EC29600746F2044415441206D6573736167DD
:0EC2A4006573206F6E206368616E6E656C3A84
:06C2B200202564200A00B3
:0EC2B8004E6F77206C697374656E696E672037
:0EC2C600746F20524F5554455F524551202051
:0EC2D4006D65737361676573206F6E2063681C
:0CC2E200616E6E656C3A202564200A0035
:0EC2EE004E6F646520696E697469616C697ACF
:04C2FC0065640A006B
:0EC3000050726F6365737320746861742073EC
:0EC30E00656E647320444154412069732061C0
:07C31C0077616B65210A0047
:0EC32300526561647920746F2073656E64202A
:0EC3310044415441206D65737361676520744B
:0CC33F006F2025643A207B25737D0A00E6
:0EC34B00726F75746520746F20256420686120
:0CC35900732065787069726564210A0029
:0EC36500524F5554455F524551554553542093
:0EC3730066726F6D20256420746F2025642093
:0EC381002849443A25642920686173206578B4
:08C38F007069726564210A0067
:0EC39700444154412073656E7420746F7761C9
:0EC3A500726473202564207669612025640A85
:01C3B3000089
:0EC3B4004441544120746F202564207761734A
:0EC3C2002064697363617264656420286E6F85
:0EC3D00020726F75746520666F756E64290AA1
:01C3DE00005E
:0EC3DF00524F5554455F5245504C59207265DF
:0EC3ED006365697665642066726F6D20256455
:0EC3FB00205B49443A25642C20446573743A53
:0EC4090025642C205372633A25642C20486F62
:08C4170070733A25645D0A0010
:0EC41F0042657474657220726F7574652074C6
:0EC42D006F20256420616C7265616479207057
:08C43B00726573656E740A005E
:0EC443004552524F5220696E20524F555445BB
:0EC451005F5245504C592043414C4C424143F0
:0EC45F004B3A20756E657870656374656420D5
:0EC46D007061636B6167652072656365697657
:0EC47B006564210A0920636F6E74656E743A61
:06C489007B25737D0A0013
:0EC48F00444154412052454345495645443AE4
:07C49D00207B25737D0A00DE
:0EC4A400526563656976656420444154412009
:08C4B200666F722025640A0088
:0EC4BA004552524F5220696E20444154412099
:0EC4C80043414C4C4241434B3A20756E65781F
:0EC4D600706563746564207061636B616765F7
:0EC4E400207265636569766564210A09636FDD
:0CC4F2006E74656E743A7B25737D0A0041
:0EC4FE00524F5554455F5245515545535420F9
:0EC50C0072656365697665642066726F6D20E6
:0EC51A002564205B49443A25642C2044657357
:0EC52800743A25642C205372633A25645D0A30
:01C536000004
:0EC537004475706C69636174656420524F55E1
:0EC5450054455F524551554553543A204469C0
:0AC5530073636172646564210A00DD
:0EC55D004552524F5220696E20524F555445A0
:0EC56B005F524551554553542043414C4C42BC
:0EC5790041434B3A20756E65787065637465BA
:0EC5870064207061636B616765207265636597
:0EC5950069766564210A09636F6E74656E74C1
:08C5A3003A207B25737D0A009C
:0EC5AB0053656E64696E6720524F5554455FAC
:0EC5B9005245504C5920746F776172642025F2
:0EC5C7006420766961202564205B49443A2592
:0EC5D500642C20446573743A25642C20537244
:0EC5E300633A25642C20486F70733A25645D1E
:02C5F1000A003E
:0EC5F30053656E64696E672044415441207B9D
:0EC6010025737D20746F2025642076696120EA
:05C60F002564200A0073
:0EC61400707265706172652073656E642072CD
:05C622007265710A00C1
:0DC62700525245512042524F4144430A00F7
:0EC63400525F524551205B49443A25642C2048
:0EC64200446573743A25642C205372633A25C4
:04C65000645D0A001B
:0EC65400496D70726F76656420524F555445E3
:0EC6620020746F2025643A20256420484F5034
:04C6700053210A0048
:0EC67400416464696E6720656E74727920748B
:0EC682006F20646973636F766572792074614E
:05C69000626C650A0068
:0EC69500526F7574696E67205461626C6500A7
:0EC6A3000A207B526F757465543A204465730B
:0EC6B100743A25643B204E6578743A25643B4C
:0EC6BF0020486F70733A25643B204167653A4E
:04C6CD0025647D0063
:0BC6D10020697320656D7074790A0009
:02C6DC000A0052
:0EC6DE00446973636F76657279205461626CF3
:02C6EC006500E7
:0EC6EE007B49443A25643B205372633A25642D
:0EC6FC003B20446573743A25643B20536E6402
:08C70A003A25643B7D200A0082
:0EC71200446973636F76657279205461626CBE
:0DC720006520697320656D707479200A0032
:0EC72D00446174612057616974696E6720541D
:05C73B0061626C650065
:0EC740000A202020207B446573743A25643B58
:0AC74E00204167653A25643B7D0039
:0CC7580020697320656D707479200A0060
:0EC76400524F5554455F524551554553543B75
:0EC772005245515F49443A2532643B444553D9
:0EC78000543A2532643B5352433A2532643B0F
:01C78E0000AA
:0EC78F00524F5554455F5245504C593B524550
:0EC79D00515F49443A2532643B444553543AB7
:0EC7AB002532643B5352433A2532643B484FDB
:08C7B90050533A2532643B00A5
:0EC7C100444154413B444553543A2532643BB5
:0BC7CF005041594C4F41443A25730083
:0EC7DA00524F5554455F52455155455354003A
:0CC7E800524F5554455F5245504C5900CB
:05C7F400444154410026
:09C8D2000000001B04000000003E
:09C8DB000000004F0600000000FF
:09C8E400000000770700000000CD
:09C8ED00000000E90A000000004F
:09C8F600000000890F00000000A1
:01C8FF000137
:04293E0053F4FE222E
:0429420053F4FE222A
:0429460043F4012233
:03294A00D2902206
:03294D00C2902213
:07295000A290E433F582229E
:0429570043FE012218
:04295B0053FEFE2207
:07295F00438D01439A102291
:0A296600538DFEE58D7003539AEFC8
:012970002244
:0C2971007401558DFA7B008A828B832252
:04297D00438C022263
:04298100538CFD2254
:0C2985007401558AFA7B008A828B832241
:06299100C2EB758A002272
:0429970053F3EF22E5
:04299B0053F3EF22E1
:04299F0043F31022CC
:0329A300D28422B9
:0329A600C28422C6
:0729A900A284E433F5822251
:0429B00043FD1022B1
:0429B40053FDEF22BE
:0E29B800438C1090E2B7E04410F043B82022A8
:0E29C60090E2B7E054EFF090E2B7E0FA54F080
:0329D4006001227D
:0429D700538CEF220C
:0E29DB0090E2B7E0FA5302107B008A828B83F1
:0129E90022CB
:0429EA00438C0122F7
:0429EE00538CFE22E6
:0C29F20074105589FA7B008A828B8322C6
:0629FE00C2C5758900222C
:0D2A0400122950E582701990E2B9F5F01228
:0B2A11006EB3AA82AB83EA4BB4010055
:082A1C00E433FA7003FA8002B2
:022A24007A0135
:092A2600EA3395E08A82F583226F
:0C2A2F00AA82AB83BA8105BB00028006BE
:062A3B00BA8206BB000395
:032A4100022971F6
:042A440090000022DC
:0A2A4800C008858108AA82AB83BA9A
:072A52008005BB00028008B3
:082A5900BA814ABB0047800E60
:072A610012297D12293E122B
:072A6800295B900001803A98
:0B2A6F00E50824FCF8E608466025128C
:0E2A7A002971E5828583F045F0701CC0E0C034
:0E2A8800E090E2B975F000126E011581158123
:082A960012299112295F80034F
:032A9E0012296694
:052AA10090000180031C
:032AA6009000009D
:032AA900D0082230
:0D2AAC001229A9E582701990E2BDF5F01223
:0B2AB9006EB3AA82AB83EA4BB40100AD
:082AC400E433FA7003FA80020A
:022ACC007A018D
:092ACE00EA3395E08A82F58322C7
:0C2AD700AA82AB83BA8105BB0002800616
:062AE300BA8206BB0003ED
:032AE9000229DBE4
:042AEC009000002234
:0A2AF000C008858108AA82AB83BAF2
:072AFA008005BB000280080B
:082B0100BA8147BB0044800BC0
:0B2B09001229971229B4900001803AB5
:0B2B1400E50824FCF8E60846602512E6
:0E2B1F0029DBE5828583F045F0701CC0E0C024
:0E2B2D00E090E2BD75F000126E011581158179
:082B3B001229FE1229B88003E3
:032B43001229C68E
:052B4600900001800376
:032B4B00900000F7
:032B4E00D008228A
:0C2B5100C020C0E0C0F0C082C083C00201
:0E2B5D00C003C004C005C006C007C000C00110
:0E2B6B00C0D075D000C2AFAAE27B00ADE3E49B
:0E2B79002AFAED3BFB90E50BEAF0A3EBF0909F
:0E2B8700E5217401F01229F2E5828583F04504
:0E2B9500F0602F90E2BD75F000126EB3E58285
:0E2BA3008583F045F0601D7420C0E0E4C0E0C2
:0E2BB10090E2BD75F000126E01158115819045
:082BBF00C80275F080124DAA56
:0E2BC700758900C2C590E521E0604B90E4DF07
:0E2BD500E0FAA3E0FBA3E0FCA3E0FDAEE27F8C
:0E2BE30000A9E3E42EFEE93FFF90E50BE0F8C9
:0E2BF100A3E0F9EEC398FEEF99FFE4F8F9EEC9
:0E2BFF002AFAEF3BFBE83CFCE93DFD90E4DFE9
:0E2C0D00EAF0A3EBF0A3ECF0A3EDF090E521CC
:022C1B00E4F0E3
:0E2C1D00D2AFD0D0D001D000D007D006D00565
:0E2C2B00D004D003D002D083D082D0F0D0E00D
:032C3900D0203276
:0C2C3C00C020C0E0C0F0C082C083C00215
:0E2C4800C003C004C005C006C007C000C00124
:0E2C5600C0D075D000C2AFAAE27B00ADE3E4AF
:0E2C64002AFAED3BFB90E50BEAF0A3EBF090B3
:0E2C7200E5217401F0122985E5828583F04585
:0E2C8000F0602F90E2B975F000126EB3E5829D
:0E2C8E008583F045F0601D7420C0E0E4C0E0D6
:0E2C9C0090E2B975F000126E0115811581905D
:082CAA00C7F975F080124DAA74
:0E2CB200758A00C2EB90E521E0604B90E4DFF4
:0E2CC000E0FAA3E0FBA3E0FCA3E0FDAEE27FA0
:0E2CCE0000A9E3E42EFEE93FFF90E50BE0F8DD
:0E2CDC00A3E0F9EEC398FEEF99FFE4F8F9EEDD
:0E2CEA002AFAEF3BFBE83CFCE93DFD90E4DFFD
:0E2CF800EAF0A3EBF0A3ECF0A3EDF090E521E1
:022D0600E4F0F7
:0E2D0800D2AFD0D0D001D000D007D006D00579
:0E2D1600D004D003D002D083D082D0F0D0E021
:032D2400D020328A
:03C7F9000BC880EA
:02C7FC00042A0D
:02C7FE00482AC7
:02C800002F2ADD
:03C8020014C880D7
:02C80500AC2A5B
:02C80700F02A15
:02C80900D72A2C
:09C80B00427574746F6E20310057
:09C81400427574746F6E2032004D
:0C2D2700AA83E58290E2C1F0A3EAF0224A
:0C2D3300C020C0E0C0F0C082C083C0021D
:0E2D3F00C003C004C005C006C007C000C0012C
:0E2D4D00C0D075D000AAE27B00ADE3E42AFA04
:0E2D5B00ED3BFB90E50BEAF0A3EBF090E521D9
:0E2D69007401F0C28B90E2C1E0FAA3E0FB7CA3
:0C2D770080BA0008BB0005BC00028016FA
:092D83007499C0E0742DC0E090C9
:0D2D8C00E2C1E0C0E0A3E0C0E085C182220A
:0E2D990090E521E0604B90E4DFE0FAA3E0FB60
:0E2DA700A3E0FCA3E0FDAEE27F00A9E3E42E72
:0E2DB500FEE93FFF90E50BE0F8A3E0F9EEC366
:0E2DC30098FEEF99FFE4F8F9EE2AFAEF3BFBD9
:0E2DD100E83CFCE93DFD90E4DFEAF0A3EBF006
:0B2DDF00A3ECF0A3EDF090E521E4F080
:0E2DEA00D0D0D001D000D007D006D005D00444
:0D2DF800D003D002D083D082D0F0D0E0D044
:022E0500203279
:012E07003298
:0C2E0800AA83E58290E2C3F0A3EAF02266
:0C2E1400C020C0E0C0F0C082C083C0023B
:0E2E2000C003C004C005C006C007C000C0014A
:0E2E2E00C0D075D000AAE27B00ADE3E42AFA22
:0E2E3C00ED3BFB90E50BEAF0A3EBF090E521F7
:0E2E4A007401F0C28F90E2C3E0FAA3E0FB7CBB
:0C2E580080BA0008BB0005BC0002801618
:092E6400747AC0E0742EC0E09005
:0D2E6D00E2C3E0C0E0A3E0C0E085F98222EE
:0E2E7A0090E521E0604B90E4DFE0FAA3E0FB7E
:0E2E8800A3E0FCA3E0FDAEE27F00A9E3E42E90
:0E2E9600FEE93FFF90E50BE0F8A3E0F9EEC384
:0E2EA40098FEEF99FFE4F8F9EE2AFAEF3BFBF7
:0E2EB200E83CFCE93DFD90E4DFEAF0A3EBF024
:0B2EC000A3ECF0A3EDF090E521E4F09E
:0E2ECB00D0D0D001D000D007D006D005D00462
:0D2ED900D003D002D083D082D0F0D0E0D062
:022EE600203298
:012EE80032B7
:0D2EE90090E2C5E0FA90E2C504F08A822272
:0A2EF600C008858108C082C083C0B7
:0E2F0000F090EE58E0FDA3E0FEA3E0FF8D028E
:042F0E008E038F049B
:0C2F1200A80808E6B5020C08E6B50307A5
:072F1E0008E6B50402802162
:0B2F2500BA0008BB0005BC00028016CB
:0E2F30008A828B838CF012902CFAA312902CC4
:082F3E00FBA312902CFC80CCD7
:0C2F4600A80808E6B5020C08E6B5030771
:072F520008E6B5040280024D
:022F59008003F3
:032F5B00022FE55D
:0C2F5E00A8080886820886830886F0ED2B
:0B2F6A001272B4A3EE1272B4A3EF12B7
:062F750072B4A8080890E8
:0D2F7B00EE58E6F008A3E6F008A3E6F0A883
:0C2F88000808740726FAE40836FB0886E7
:0D2F9400048A828B838CF074011272B4A841
:0C2FA1000808740526FAE40836FB0886D0
:0E2FAD00048A828B838CF0E41272B4A3E412C7
:0C2FBB0072B4E50824FBF8E6C0E008E66C
:0C2FC700C0E008E6C0E07481C0E0A8088B
:0E2FD3000886820886830886F01236B7E581EC
:042FE10024FCF58156
:062FE500850881D00822DE
:0A2FEB00C008858108C082C083C0C1
:0E2FF500F0E5812409F58190EE5BE0FDA3E09C
:0C300300FEA3E0FFE5082407F8A605087E
:0C300F00A60608A607A808088682088606
:0E301B00830886F0123752E5828583F045F077
:0530290070030231718B
:0C302E00A80808740726FDE40836FE0818
:0D303A0086078D828E838FF0E41272B490B1
:0C304700EE58E0FDA3E0FEA3E0FFE5086A
:0B3053002404F8A60508A60608A6073E
:0C305E00E5082404F8B6000A08B60006D5
:06306A0008B600028069B7
:0A307000A80808E5082404F986F01A
:0E307A00E7B5F0120886F009E7B5F00A0886FF
:08308800F009E7B5F002802811
:0C309000A80808E6C0E008E6C0E008E67A
:0C309C00C0E07487C0E0E5082404F8865A
:0E30A800820886830886F0123266E58124FCD9
:0230B600F581A2
:0C30B800E5082404F88682088683088658
:0E30C400F012902C1818F6A312902C08F6A308
:0730D20012902C08F6808526
:0C30D900A80808740326FDE40836FE0871
:0E30E50086078D828E838FF012902CFAA31234
:0E30F300902CFB8A058B067F80BD0008BE0076
:0631010005BF0002806A18
:0A310700A80808E50824FBF986F08B
:0E311100E7B5F0120886F009E7B5F00A088667
:08311F00F009E7B5F002804A57
:0C312700A8080890EE5BE6F008A3E6F0B4
:0C31330008A3E6F0A80808740526FDE4D7
:0E313F000836FE088607C002C003E4C0E0C0E8
:0C314D00E0C0E07483C0E07467C0E07470
:0C31590031C0E0C002C0038D828E838F65
:02316500F02256
:0A316700E58124FCF581D003D002BD
:0C31710090EE58E0FAA3E0FBA3E0FCA8FD
:0C317D000808E6B5020C08E6B5030708D8
:06318900E6B5040280021D
:02318F0080229C
:0E3191008A828B838CF012902CFDA312902C5E
:0E319F00FEA312902CFF90EE58EDF0A3EEF080
:0631AD00A3EFF002324E18
:0C31B3008A058B068C07E5082404F8A6AA
:0731BF000508A60608A6079B
:0C31C600E5082404F8B6000A08B600066C
:0631D20008B60002807641
:0C31D800E5082404F88682088683088637
:0C31E400F012902CFDA312902CFEA31200
:0C31F000902CFFA80808E6B5050C08E6C6
:0A31FC00B5060708E6B507028002D9
:02320600803610
:0C320800A8080886820886830886F01259
:0A321400902CFAA312902CFBA312D9
:0C321E00902CFCE5082404F88682088649
:0E322A00830886F0EA1272B4A3EB1272B4A30A
:06323800EC1272B48010DC
:0C323E00E5082404F8A60508A60608A66A
:04324A00070231C680
:0C324E00E5082407F890EE5BE6F008A30A
:0A325A00E6F008A3E6F0850881D035
:0232640008223E
:0A326600C008858108C082C083C043
:0C327000F0A80808740726FDE40836FEEC
:0E327C000886078D828E838FF012902CFA2028
:05328A00E00302339A8D
:0C328F00C005C006C007A808087403268C
:0E329B00FAE40836FB0886048A828B838CF0E6
:0E32A90012902CFAA312902CFB8A048B057E47
:0E32B70080BC000FBD000CBE0009D007D00681
:0532C500D00502339A60
:0C32CA00D007D006D005A8080890EE5BE5
:0E32D600E6F008A3E6F008A3E6F08D828E83F2
:0E32E4008FF074021272B4C005C006C007A8B5
:0C32F2000808740526FCE40836FD088678
:0C32FE0006C003C005C006C007E5082498
:0E330A00FAF8E6C0E008E6C0E008E6C0E0E53C
:0A3318000824FDF8E6C0E07432C09E
:0C332200E07433C0E0C002C0038C828D58
:04332E00838EF02278
:0E333200AA82E58124FCF581D007D006D005E3
:0E334000D003EA3395E0FBBA020BBB0008D0C5
:07334E0007D006D005801630
:0E335500D007D006D005BA0305BB00028008E1
:08336300E50824FDF8B68324FF
:0C336B00A80808E6C0E008E6C0E008E69C
:0C337700C0E0A80808868208868308864B
:0C338300F0122FEB158115811581800BD5
:0B338F008D828E838FF074011272B4E7
:06339A00850881D0082225
:0E33A000AA82AB83ACF090EE5BE0C0E0A3E04D
:0D33AE00C0E0A3E0C0E08A828B838CF012A7
:0933BB002FEB158115811581220B
:0C33C40090E2C5748AF090E2C7E4F0903B
:0C33D000E2C6F090EE58F0A3F0A3F090DD
:0933DC00EE5BE4F0A3F0A3F02283
:0A33E500C0088581080581058105F7
:0E33EF008190E3A8E4F090EE58E0FAA3E0FB32
:0C33FD00A3E0FCA80808A60208A603082C
:02340900A60417
:0C340B00A80808B6000B08B6000708B6B9
:053417000003023497E0
:0C341C00A80808740826FDE40836FE0825
:0E34280086078D828E838FF012902C6042A852
:0C3436000808740726FAE40836FB088634
:0E344200048A828B838CF074011272B48D8226
:0E3450008E838FF0E41272B4E4C0E0C0E0C0DE
:0C345E00E07482C0E0A80808868208869E
:0D346A00830886F0123266E58124FCF581AE
:0C347700A8080886820886830886F012E8
:0D348300902C1818F6A312902C08F6A31236
:07349000902C08F602340B3A
:06349700850881D0082227
:08349D0090E2C6E0FA70012282
:0C34A50090E2C7E0FB75F007A4FC24C80F
:0C34B100F582E434E2F583E090E3A9F03A
:0A34BD00EC24C8FCE434E2FD8C822C
:0E34C7008D83A3E0FEA3E0FFA3E0F890E3AA4C
:0E34D500EEF0A3EFF0A3E8F08C828D83A3A3AA
:0E34E300A3A3E0FCA3E0FDA3E0FE90E3ADECAC
:0E34F100F0A3EDF0A3EEF07C000BBB00010C8D
:0E34FF00C0027420C0E0E4C0E08B828C831217
:0E350D009CFCAB8215811581D00290E2C7EBC9
:0E351B00F0EA1490E2C6F090E3ADE0FAA3E00F
:0E352900FBA3E0FCBA0008BB0005BC0002805A
:013537000390
:033538000235CA8F
:0E353B0090EE58E0FDA3E0FEA3E0FF90E3B0A9
:08354900EDF0A3EEF0A3EFF09A
:0E35510090E3B0E0FDA3E0FEA3E0FFBD0007A5
:07355F00BE0004BF000122C1
:0A35660090E3A8E0FD60031233E5D6
:0E35700090E3B0E0FDA3E0FEA3E0FF90E3AA2D
:0E357E00E0C0E0A3E0C0E0A3E0C0E090E3A95D
:0E358C00E0C0E08D828E838FF0123266E58102
:0E359A0024FCF58190E3B0E0FDA3E0FEA3E089
:0D35A800FF8D828E838FF012902CFDA312F8
:0935B500902CFEA312902CFF9053
:0C35BE00E3B0EDF0A3EEF0A3EFF0808787
:0E35CA0090E3A9E0FDBD811474072AFEE43BE6
:0E35D800FF8C008E828F8388F074011272B413
:0E35E60090E3AAE0C0E0A3E0C0E0A3E0C0E0F4
:0E35F400C0058A828B838CF0123266E581243A
:04360200FCF5812230
:0A36060090E3A8E0FA60031233E538
:0B36100012349D90E2C6E0FA7B0090AF
:0E361B00E3A8E0FC7D00EC2AFAED3B8A82F584
:023629008322FA
:0E362B0090E2C6E0FA7B0090E3A8E0FC7D0090
:0A363900EC2AFAED3B8A82F58322A9
:0A364300C008858108AA82AB83ACA1
:0E364D00F090E2C6E0FDBD200590000180591E
:0E365B0090E2C7E0FEED2E541FFE90E3B3F0A8
:0C366900EE75F007A4FE24C8F582E434DE
:0A367500E2F583E50824FDF8E6F015
:0A367F00EE24C8FEE434E2FF8E8260
:0C3689008F83A3E50824FAF8E6F0A308FC
:0E369500E6F0A308E6F08E828F83A3A3A3A322
:0E36A300EAF0A3EBF0A3ECF090E2C6ED04F029
:0336B10090000086
:0336B400D0082219
:0A36B700C008858108AA82AB83AC2D
:0E36C100F090EE5BE0FDA3E0FEA3E0FFC0058D
:0C36CF00C006C007E50824FAF8E6C0E0D9
:0C36DB0008E6C0E008E6C0E0E50824FDB9
:0E36E700F8E6C0E08A828B838CF0123266E532
:0E36F5008124FCF581D007D006D00590EE5B55
:0B370300EDF0A3EEF0A3EFF0D00822E1
:0E370E00AA82AB83ACF0BA0007BB0004BC007B
:02371C00012288
:0E371E0074072AFDE43BFE8C078D828E838F9C
:0A372C00F012902CFDBD0102800395
:03373600BD0218B9
:0E37390074082AFAE43BFB8A828B838CF074BE
:0A374700011272B490E3A87401F0BF
:013751002255
:0E375200AA82AB83ACF074072AFAE43BFB8A30
:0E376000828B838CF012902CFAE4BA000104E4
:04376E00FAB40100A8
:0A377200E433FA7B008A828B832285
:03C9000000000034
:03C9030000000031
:0A377C00C008E581F5082408F58176
:09378600E582FA20E00302381F7D
:0E378F0090E3B4E0FB90E3B5E0FCEB6C30E0BF
:0E379D001DABE27C00AEE3E4FD2BFBEE3CFC3A
:0E37AB0090E50DEBF0A3ECF090E5227401F038
:0237B90080642A
:0C37BB0090E522E0605EC00290E4E3A80C
:0C37C7000808E0F6A3E008F6A3E008F60E
:0E37D300A3E008F6ACE27D00AEE38E03E42C2A
:0E37E100FFEB3DFB90E50DE0FCA3E0FDEFC328
:0C37EF009CFFEB9DFB7C007D00A80808FF
:0E37FB00EF26FFEB0836FBEC0836FCED083637
:0E380900FD90E4E3EFF0A3EBF0A3ECF0A3EDF1
:08381700F090E522E4F0D0027C
:07381F00EA20E1030238B7C3
:0E38260090E3B4E0FB90E3B5E0FCEB6C30E126
:0E3834001DABE27C00AEE3E4FD2BFBEE3CFCA2
:0E38420090E50FEBF0A3ECF090E5237401F09D
:02385000806591
:0C38520090E523E0605FC00290E4E7E531
:0C385E00082405F8E0F6A3E008F6A3E05B
:0E386A0008F6A3E008F6ABE27C00AFE3E42B27
:0E387800FBEF3CFC90E50FE0FAA3E0FFEBC392
:0C3886009AFAEC9FFFE4FBFCE508240527
:0E389200F8EA26FAEF0836FFEB0836FBEC08E2
:0E38A00036FC90E4E7EAF0A3EFF0A3EBF0A310
:0938AE00ECF090E523E4F0D002F7
:0738B700EA20E20302394898
:0E38BE0090E3B4E0FA90E3B5E0FBEA6B30E291
:0E38CC001DAAE27B00ADE3E4FC2AFAED3BFB13
:0E38DA0090E511EAF0A3EBF090E5247401F004
:0238E800805E00
:0A38EA0090E524E0605890E4EBA89C
:0C38F4000808E0F6A3E008F6A3E008F6E0
:0E390000A3E008F6AAE27B00AFE3E42AFAEFA8
:0E390E003BFB90E511E0FEA3E0FFEAC39EFE46
:0C391C00EB9FFF7A007B00A80808EE2655
:0E392800FEEF0836FFEA0836FAEB0836FB9091
:0E393600E4EBEEF0A3EFF0A3EAF0A3EBF090C9
:04394400E524E4F0A2
:0E39480090E3B5E0FA90E3B4E062028A8212E6
:0639560072E9850881D032
:02395C0008223F
:09395E001272CD90E3B5E4F09083
:04396700E3B4F022B3
:0E396B0090E3B5E0FA90E3B4E06202EAF4FA09
:0E397900F582C0021239C09001901273CAD0BC
:06398700028A820239C031
:03398D000272CEF5
:0D399000AA8290E3B4E0FBF4FCEA5204903C
:0A399D00E3B4EA4BF08C8202377CA1
:0D39A700AA8290E3B4E0FBEA5BFCEAF49036
:0939B400E3B45BF08C8202377C65
:0339BD000239C00C
:0D39C000AA8290E3B5E06AF08A8202377CAB
:0E39CD00AA82AB83EA4B600675820102399034
:0639DB007582010239A70C
:0E39E100AA82AB83EA4B60067582020239901F
:0639EF007582020239A7F7
:0E39F500AA82AB83EA4B600675820402399009
:063A03007582040239A7E0
:043A090085C9C92280
:043A0D0043C908227F
:0E3A1100740F55C944A0F5C9740F55C944502F
:033A1F00F5C922C4
:033A2200023A1154
:053A250075C903C2AFEA
:043A2A0000023A2A32
:0A3A2E00C008E581F5082407F581C2
:0E3A380090E3B6E0FAA3E0FBA3E0FCEA4B4CFF
:0C3A4600700A90E3B9E4F0A3F0023BC565
:0C3A520012741CAA82AB83E5082403F860
:0E3A5E00A60208A60390E3B6E0FCA3E0FDA3D9
:0C3A6C00E0FEE5082405F8A60408A60505
:0C3A780008A606E5082405F886820886EA
:0E3A8400830886F012902CFFA312902CFAE516
:0C3A9200082405F8740226FBE40836FC4A
:0E3A9E000886058B828C838DF012902CFBA382
:0C3AAC0012902CFCEB2FFFEC3AFAE5081E
:0C3AB8002403F8EFC396FFEA0896FAA872
:0A3AC4000808A60708A602E508247A
:0E3ACE0005F8740426FCE40836FD0886068C14
:0E3ADC00828D838EF012902CFCA312902CFD94
:0C3AEA00A312902CFEE5082405F8A604A9
:063AF60008A60508A60663
:0C3AFC00E5082405F8B6000B08B600072A
:073B080008B60003023BB107
:0C3B0F00E5082405F886820886830886F5
:0B3B1B00F012902CFCA312902CFDE592
:0C3B2600082405F8740226FEE40836FFAF
:0E3B32000886028E828F838AF012902CFAA3EE
:0C3B400012902CFBEA2CFEEB3DFFE50888
:0C3B4C002403F8EEC396FEEF0896FFA8D5
:0C3B58000808C3EE96EF0896501BEA2CFC
:0C3B6400FCEB3DFDE5082403F8ECC396E3
:0C3B7000FCED0896FDA80808A60408A6B5
:013B7C000543
:0C3B7D00E5082405F8740426FAE4083674
:0E3B8900FB0886048A828B838CF012902CFA43
:0B3B9700A312902CFBA312902CFCE565
:0C3BA200082405F8A60208A60308A604E3
:033BAE00023AFCDC
:093BB100E5082403F8A9080990B5
:0B3BBA00E3B9E726F009E70836A3F0A6
:063BC500850881D00822F2
:0A3BCB00C008E581F508240CF5811F
:0E3BD500AA82AB83ACF07D0112902CFEA312ED
:0B3BE300902CFFBE0005BF0002800B0D
:083BEE00BE5A05BF0002801E53
:033BF600023FB8D3
:093BF90090E3B6E4F0A3F0A3F0A0
:0E3C02007D008A828B838CF0745A1272B4A3F8
:043C1000E41272B494
:093C1400ED7006758201023FCA41
:0A3C1D00E50824FDF8B687028003D5
:033C2700023DC299
:0C3C2A00E50824FAF886050886060886DE
:0C3C360007E5082407F8A60508A6060804
:023C4200A607D3
:0E3C440090E3B6E0FDA3E0FEA3E0FFED4E4FDF
:0E3C5200606EC002C003C00474072DFAE43E89
:0E3C6000FB8F048A828B838CF012902CFAA3C7
:0A3C6E0012902CFBA312902CFCE531
:0C3C7800082407F8E6B5020C08E6B503C6
:083C84000708E6B50402800800
:083C8C00D004D003D002802E09
:0E3C9400D004D003D00274042DFDE43EFE8D5A
:0E3CA200828E838FF012902CFDA312902CFEC8
:0E3CB000A312902CFF90E3B6EDF0A3EEF0A36C
:043CBE00EFF0808221
:0E3CC20090E3B6E0FDA3E0FEA3E0FFED4E4F61
:053CD0007003023C023C
:0B3CD500A80808A60508A60608A60718
:0C3CE000A80808740426FDE40836FE085D
:0C3CEC0086078D828E838FF0E508240A85
:0D3CF800F812902CF6A312902C08F6A312DF
:0C3D0500902C08F6E508240AF8E60846B1
:073D110008467003023C02AA
:0C3D1800C002C003C004E508240AF874CF
:0E3D24000726FAE40836FB0886048A828B83A1
:0D3D32008CF012902CFAA312902CFBA3121F
:0C3D3F00902CFCE5082407F8E6B5020C07
:0C3D4B0008E6B5030708E6B5040280088E
:083D5700D004D003D00280412A
:0C3D5F00E508240AF8740426FAE408368B
:0E3D6B00FB0886048A828B838CF012902CFA5F
:0E3D7900A312902CFBA312902CFC8D828E8343
:0E3D87008FF0EA1272B4A3EB1272B4A3EC1226
:0B3D950072B4D004D003D002023CE066
:0E3DA0008D828E838FF012902CFDA312902C3A
:0C3DAE00FEA312902CFFA80808A6050830
:083DBA00A60608A607023CE082
:0A3DC200E50824FDF8B68202800334
:033DCC00023C02B4
:0C3DCF00E5082404F8E4F608F608760085
:0C3DDB0090E3B6E0FDA3E0FEA3E0FFA82B
:0A3DE7000808A60508A60608A607AE
:0C3DF100A80808B6000B08B6000708B6CA
:053DFD000003023C027E
:0C3E0200A8080886820886830886F0C0A5
:0E3E0E0002C003C004126EB3E5828583F0D0BB
:0C3E1C0004D003D00245F07003023F7692
:0C3E2800C002C003C004A80808740726EC
:0E3E3400FDE40836FE0886078D828E838FF02F
:0B3E420012902CFAA312902CFBA3128C
:0C3E4D00902CFCC004C005C006C007A8F3
:0C3E59000808E6C0E008E6C0E008E6C08B
:0E3E6500E07488C0E08A828B838CF0123643B2
:0E3E7300AA82AB83E58124FCF581D007D0063E
:0E3E8100D005D004EA4BD004D003D002600379
:033E8F00023F6788
:0D3E92008D828E838FF0E41272B4A3E412CF
:083E9F0072B4A3E41272B4E551
:0C3EA700082404F8E6084608466054C0F1
:0C3EB30002C003C004E5082404F87404F5
:0C3EBF0026FDE40836FE088607A8080867
:0E3ECB00740426FAE40836FB0886048A828B0B
:0E3ED900838CF012902CFAA312902CFBA312F3
:0E3EE700902CFC8D828E838FF0EA1272B4A3B1
:0E3EF500EB1272B4A3EC1272B4D004D003D05E
:033F030002802D0C
:0C3F0600A80808740426FDE40836FE0834
:0E3F120086078D828E838FF012902CFDA312F5
:093F2000902CFEA312902CFF90DE
:0A3F2900E3B6EDF0A3EEF0A3EFF015
:0C3F3300A80808740426FDE40836FE0807
:0E3F3F0086078D828E838FF0E41272B4A3E4A5
:0E3F4D001272B4A3E41272B4C002C003C00426
:0C3F5B00123A2ED004D003D002023DCF59
:0E3F6700C002C003C004123FD0D004D003D06B
:013F75000249
:0A3F7600A80808E5082404F9E6F79E
:0C3F80000809E6F70809E6F7A80808742D
:0E3F8C000426FDE40836FE0886078D828E832B
:0D3F9A008FF012902CFDA312902CFEA312AC
:0C3FA700902CFFA80808A60508A6060834
:053FB300A607023DF12C
:0D3FB8008A828B838CF0E41272B4A3E412B1
:053FC50072B4758203D7
:063FCA00850881D00822E9
:093FD00090EE5E75F00002370E60
:0A3FD900C008858108C082C083C0C3
:0C3FE300F0123FD0A80808740726FDE487
:0D3FEF000836FE0886078D828E838FF01243
:0A3FFC00902CFAA312902CFBA312E4
:0E400600902CFCEA4B4C606290E3B6E0FAA30B
:05401400E0FBA3E0FC4D
:0B401900BA0008BB0005BC0002804C90
:0C402400A80808E6B5020C08E6B5030782
:0740300008E6B5040280025E
:02403700800601
:06403900123A2E0240CFF6
:0E403F00C005C006C00774042AFDE43BFE8CD9
:0D404D00078D828E838FF012902CFDA31240
:0E405A00902CFEA312902CFF8D028E038F047B
:08406800D007D006D00580A9A5
:0E40700090EE5BE0FAA3E0FBA3E0FC8D828EF5
:0E407E00838FF0EA1272B4A3EB1272B4A3ECBB
:0C408C001272B4A80808740426FAE408B4
:0E40980036FB08860490E3B6E0FDA3E0FEA32D
:0E40A600E0FF8A828B838CF0ED1272B4A3EEE1
:0940B4001272B4A3EF1272B4A859
:0C40BD00080890E3B6E6F008A3E6F0085F
:0640C900A3E6F0123A2EFE
:0640CF00850881D00822E3
:0A40D500C008858108AA82AB83AC05
:0C40DF00F0C002C003C004E50824FCF897
:0E40EB00E6C0E008E6C0E08A828B838CF0120B
:0E40F9006E0115811581D004D003D0028A8299
:0A4107008B838CF0123FD9D0082200
:0D411100AA82AB83ACF0C002C003C0041250
:0E411E006E4FD004D003D0028A828B838CF0C7
:03412C00023FD976
:0D412F00AA82AB83ACF0C002C003C0041232
:0E413C006E8BD004D003D0028A828B838CF06D
:03414A00023FD958
:0A414D00C008858108C082C083C04D
:0C415700F0A8080886820886830886F01D
:0A41630012902CFDA312902CFEE533
:0C416D000824FCF88607088602EF2DFDF0
:0C417900EA3EFEA808088682088683083B
:0C41850086F0ED1272B4A3EE1272B412B8
:064191003A2E850881D0E2
:024197000822FC
:0E419900AA82AB83ACF074072AFAE43BFB8ADF
:0E41A700828B838CF012902CFAA312902CFBCA
:0E41B500A312902CFCE4BA0007BB0004BC006F
:0241C3000104F5
:0941C500FA3395E08A82F58322A9
:0E41CE00AA82AB83ACF012902CFDA312902CB1
:0E41DC00FE74022AFAE43BFB8A828B838CF08D
:0E41EA0012902CFAA312902CFBEA2DFDEB3E56
:0541F8008D82F5832219
:0D41FD0012902CFAA312902C8A82F58322D6
:0E420A0090E3B6E0FAA3E0FBA3E0FCE4BA0008
:0842180007BB0004BC00010417
:04422000FAB40100EB
:0A422400E433FA7B008A828B8322C8
:0D422E0012420AE5828583F045F0600A9097
:09423B00E3B9E0FAA3E0FB800402
:044244007A007B0081
:054248008A828B832235
:0A424D00C008858108C082C083C04C
:0D425700F090E3B6E0FDA3E0FEA3E0FFA8B9
:0C4264000808E6B5050C08E6B5060708DA
:06427000E6B50702800222
:02427600802E98
:0E42780074042DFAE43EFB8F048A828B838C43
:0C428600F012902CFAA312902CFBA31253
:0E429200902CFC90E3B6EAF0A3EBF0A3ECF066
:0642A000123A2E02432E2B
:0B42A600BD0008BE0005BF000280380C
:0E42B10074042DFAE43EFB8F048A828B838C0A
:0C42BF00F012902CFAA312902CFBA3121A
:0C42CB00902CFCA80808E6B5020C08E6E0
:0A42D700B5030708E6B504028008ED
:0842E1008A058B068C0780BDE5
:0D42E900ED4E4F604074042DFDE43EFEA834
:0C42F6000808740426FAE40836FB088669
:0D430200048A828B838CF012902CFAA31297
:0E430F00902CFBA312902CFC8D828E838FF0DD
:0C431D00EA1272B4A3EB1272B4A3EC120B
:0543290072B4123A2EEF
:0C432E00A80808740426FAE40836FB080E
:0E433A0086048A828B838CF0E41272B4A3E4B2
:094348001272B4A3E41272B4A8CD
:0C4351000808740726FAE40836FB08860A
:0E435D00048A828B838CF0E41272B4A3E41203
:08436B0072B4A3E41272B485E0
:054373000881D00822C2
:09C90600000000CB3B0000000022
:09437800124D5EAA82AB83ACF089
:0E438100EA4B4C605E74052AFDE43BFE8C079F
:0E438F008D828E838FF012902CFDA312902C45
:0E439D00FEC002C003C004C005C0067401C00B
:0A43AB00E0E4C0E074BFC0E074431A
:0A43B500C0E0C005C00690008122A0
:0E43BF0015811581D006D005D004D003D002A0
:0E43CD008A828B838CF0124D70AD82AE83AF6E
:0943DB00F08D028E038F04809D19
:0E43E400AAE27B00ADE37C00EC2AFAED3BFB85
:0E43F20090E51BEAF0A3EBF090E5297401F0D2
:014400002299
:0A440100C008E581F5082404F581E8
:09440B00124D5EAA82AB83ACF0F5
:0E441400EA4B4C605C74052AFDE43BFE8C070D
:0E4422008D828E838FF012902CFDA312902CB1
:0E443000FEC002C003C004C005C006E4C0E028
:0A443E00C0E07450C0E07444C0E018
:08444800C005C00690008122AE
:0E44500015811581D006D005D004D003D0020E
:0E445E008A828B838CF0124D70AD82AE83AFDC
:09446C00F08D028E038F04809F85
:0A44750090E529E0605A90E4FFA8EA
:0C447F000808E0F6A3E008F6A3E008F649
:0E448B00A3E008F6AAE27B00AFE37E00EE2A73
:0E449900FAEF3BFB90E51BE0FEA3E0FFEAC359
:0C44A7009EFEEB9FFF7A007B00A8080837
:0E44B300EE26FEEF0836FFEA0836FAEB083672
:0E44C100FB90E4FFEEF0A3EFF0A3EAF0A3EB14
:0644CF00F090E529E4F085
:0644D500850881D00822D9
:03C90F009BC88042
:03C91200F9C780E2
:06C9150002C880000000D2
:0A44DB00C008858108C082C083C0BC
:0C44E500F0058105810581E50824FBF845
:0C44F1008605088606088607A80808E56E
:0C44FD00082404F9E6F70809E6F70809AE
:02450900E6F7D3
:0E450B008D828E838FF012902CFAA3AD82AEBB
:0C45190083E5082404F8868208868308E5
:0E45250086F0EA1272B4A31818A68208A683C4
:0C453300EA70D5A8080886820886830874
:08453F0086F0850881D00822F6
:03454700025AE530
:0A454A00C00885810805810581AADB
:0C45540082AB83ACF0A80808E4F608F67F
:0E45600090E3BFE0FFA3E0FDA3E0FEEF4D4EB1
:0A456E007008A8080876010876001E
:0E45780074022AFDE43BFE8C078D828E838F39
:0C458600F0E50824F8F8E61272B4A3086F
:0E459200E61272B474042AFDE43BFE8C078D21
:0C45A000828E838FF0E50824F5F8E61207
:0C45AC0072B4A308E61272B4A308E61271
:0C45B80072B48A828B838CF0E50824FC2E
:0C45C400F8E61272B4A308E61272B4907C
:0C45D000E3BFEAF0A3EBF0A3ECF0A808B6
:0C45DC0008B6011108B6000DE50824FC2B
:0945E800F88682088683125AFE4F
:0945F100900000850881D0082229
:0A45FA00C0088581080581058105D0
:0E4604008190E3BFE0FAA3E0FBA3E0FCEA4BE9
:064612004C70030246BDDE
:0C461800A80808A60208A60308A6049043
:0C462400E3BFE4F0A3F0A3F0A8080874C2
:0E4630000226FDE40836FE0886078D828E8382
:0C463E008FF012902CFDA312902CFEA80F
:0C464A000808740426FFE40836FA08860D
:0D465600038F828A838BF012902CFFA31239
:0E466300902CFAA312902CFBC005C006C007D5
:0A467100C002C003748DC0E074465F
:0C467B00C0E0C005C006A8080886820840
:0646870086830886F02284
:0E468D00158115811581D006D00590E3BFE0A0
:0E469B00FAA3E0FBA3E0FCEA4B4C60168A8217
:0E46A9008B838CF012902CFAA312902CFB8ABB
:0646B700828B83125AFE03
:0646BD00850881D00822EF
:0D46C30043FE0A43FD0443F3E075820E023E
:0246D00046D2D0
:0C46D200AA827B01C0E0C0A8C2AF7C003F
:0346DE00BC080015
:0E46E1005025EB5AFDEC6010ED600D8CF005DD
:0446EF00F0ED800268
:0246F300C313EF
:0446F500D5F0FBFD04
:0E46F900ED24FF9282D293C293EB2BFB0C8038
:01470700D6DB
:0E470800D291C291D0E053E080E5E042A8D00B
:07471600E090E3C2EAF0228B
:07471D0090E3C2E0F58222E7
:0A472400C008858108C082C083C070
:0E472E00F005810581758218126B9AAD82AE7E
:0C473C0083AFF0E5082404FA7B007C4009
:0D474800C005C006C0078A828B838CF0126A
:0C475500705A158115811581A8080874A0
:0E4761000C26FAE40836FB0886048A828B8355
:0D476F008CF012902CFAA312902CFBA312D8
:0E477C00902CFC8A828B838CF012902CFAA376
:0C478A0012902CFBE5082404FC7D007E4E
:0C47960040C002C003C004C005C006748F
:0A47A200B9C0E07447C0E0C002C0D7
:0C47AC0003A8080886820886830886F0AF
:0147B80022DE
:0C47B900158115811581D003D002850800
:0447C50081D0082275
:0A47C900C008858108AA82AB83AC0A
:0E47D300F0740C2AFDE43BFE8C078D828E8371
:0D47E1008FF012902CFDA312902CFEA3125D
:0E47EE00902CFF74022DFDE43EFE8D828E8322
:0E47FC008FF012902CFDA312902CFE4D603910
:0C480A00C005C006E50824FAF8E6C0E08E
:0C48160008E6C0E0E50824FCF8E6C0E07D
:0A48220008E6C0E07439C0E07448F5
:0D482C00C0E0C005C0068A828B838CF0229C
:0A483900E58124FCF581D006D005CE
:03484300D0082278
:0A484600C008858108AA82AB83AC8C
:0C485000F0C002C003C0047421C0E0747A
:0A485C00C8C0E07480C0E0E5082445
:0E486600FCF8E6C0E008E6C0E08A828B838C96
:0E487400F0126BB0E58124FBF581D004D00377
:0E488200D002740C2AFAE43BFB8A828B838CF2
:0C489000F0E50824F9F8E61272B4A30861
:0B489C00E61272B4A308E61272B474B6
:0A48A7001DC0E074C8C0E07480C0BA
:0C48B100E0E50824FCF8868208868312EB
:0B48BD004B5B158115811581D008228E
:0348C800026C245B
:0D48CB00AA82AB83ACF0C002C003C004742D
:0A48D8001DC0E074E6C0E0E4C0E09B
:0E48E200758218126B61158115811581D00445
:0D48F000D003D0028A828B838CF0026C27EB
:04C81D0018100000EF
:02C821002447AA
:02C82300C94703
:0600B400E478FFF6D8FD20
:0500E70090E44AE4F082
:0948FD00AA82BA0D049000002209
:0E49060090E44AE0FB701DC00290E3C375F020
:0E49140000127A5BAB82AC831581EB4C7025F0
:0849220090E44A7401F0801DCD
:0E492A00BA0A1AC00290E3C375F000127A5B5D
:0E493800AA82AB831581EA4B600590E44AE445
:01494600F080
:0D49470090EE7375F00012370E9000012203
:0A495400C00885810805810581AACD
:0D495E0082AB83ACF07D0112902CFEA31201
:0B496B00902CFFBE0005BF000280146E
:08497600BE6805BF0002806568
:09497E00BE7A06BF0003024ADE06
:03498700024AFAE7
:0E498A00C002C003C004122EE9E582D004D0A2
:0E49980003D00290E449F090E4CBE4F0A3F0E9
:0D49A60090E3C375F000C002C003C004120E
:0D49B3007B68AE82AF83D004D003D002A891
:0A49C0000808A60608A607A80808C4
:0E49CA00B6FF1F08B6FF1B7D008A828B838C10
:0B49D800F074681272B4A3E41272B411
:0949E300ED70C0758201024B0C5D
